{
  "_format": "hh-sol-artifact-1",
  "contractName": "AllowlistManager",
  "sourceName": "contracts/AllowlistManager.sol",
  "abi": [
    {
      "inputs": [
        {
          "internalType": "address",
          "name": "_nftContract",
          "type": "address"
        }
      ],
      "stateMutability": "nonpayable",
      "type": "constructor"
    },
    {
      "inputs": [
        {
          "internalType": "address",
          "name": "_user",
          "type": "address"
        }
      ],
      "name": "addToAllowlist",
      "outputs": [],
      "stateMutability": "nonpayable",
      "type": "function"
    },
    {
      "inputs": [],
      "name": "admin",
      "outputs": [
        {
          "internalType": "address",
          "name": "",
          "type": "address"
        }
      ],
      "stateMutability": "view",
      "type": "function"
    },
    {
      "inputs": [
        {
          "internalType": "uint256",
          "name": "tokenId",
          "type": "uint256"
        }
      ],
      "name": "claimNFT",
      "outputs": [],
      "stateMutability": "nonpayable",
      "type": "function"
    },
    {
      "inputs": [
        {
          "internalType": "address",
          "name": "",
          "type": "address"
        }
      ],
      "name": "isAllowed",
      "outputs": [
        {
          "internalType": "bool",
          "name": "",
          "type": "bool"
        }
      ],
      "stateMutability": "view",
      "type": "function"
    },
    {
      "inputs": [],
      "name": "nftContract",
      "outputs": [
        {
          "internalType": "address",
          "name": "",
          "type": "address"
        }
      ],
      "stateMutability": "view",
      "type": "function"
    },
    {
      "inputs": [
        {
          "internalType": "address",
          "name": "_user",
          "type": "address"
        }
      ],
      "name": "removeFromAllowlist",
      "outputs": [],
      "stateMutability": "nonpayable",
      "type": "function"
    }
  ],
  "bytecode": "0x608060405234801561001057600080fd5b506040516109c33803806109c38339818101604052810190610032919061011c565b336000806101000a81548173ffffffffffffffffffffffffffffffffffffffff021916908373ffffffffffffffffffffffffffffffffffffffff16021790555080600160006101000a81548173ffffffffffffffffffffffffffffffffffffffff021916908373ffffffffffffffffffffffffffffffffffffffff16021790555050610149565b600080fd5b600073ffffffffffffffffffffffffffffffffffffffff82169050919050565b60006100e9826100be565b9050919050565b6100f9816100de565b811461010457600080fd5b50565b600081519050610116816100f0565b92915050565b600060208284031215610132576101316100b9565b5b600061014084828501610107565b91505092915050565b61086b806101586000396000f3fe608060405234801561001057600080fd5b50600436106100625760003560e01c80635da93d7e14610067578063babcc53914610083578063d56d229d146100b3578063f851a440146100d1578063f8e86ece146100ef578063fe5c873a1461010b575b600080fd5b610081600480360381019061007c919061055e565b610127565b005b61009d6004803603810190610098919061055e565b610210565b6040516100aa91906105a6565b60405180910390f35b6100bb610230565b6040516100c891906105d0565b60405180910390f35b6100d9610256565b6040516100e691906105d0565b60405180910390f35b6101096004803603810190610104919061055e565b61027a565b005b61012560048036038101906101209190610621565b610363565b005b60008054906101000a900473ffffffffffffffffffffffffffffffffffffffff1673ffffffffffffffffffffffffffffffffffffffff163373ffffffffffffffffffffffffffffffffffffffff16146101b5576040517f08c379a00000000000000000000000000000000000000000000000000000000081526004016101ac906106d1565b60405180910390fd5b6000600260008373ffffffffffffffffffffffffffffffffffffffff1673ffffffffffffffffffffffffffffffffffffffff16815260200190815260200160002060006101000a81548160ff02191690831515021790555050565b60026020528060005260406000206000915054906101000a900460ff1681565b600160009054906101000a900473ffffffffffffffffffffffffffffffffffffffff1681565b60008054906101000a900473ffffffffffffffffffffffffffffffffffffffff1681565b60008054906101000a900473ffffffffffffffffffffffffffffffffffffffff1673ffffffffffffffffffffffffffffffffffffffff163373ffffffffffffffffffffffffffffffffffffffff1614610308576040517f08c379a00000000000000000000000000000000000000000000000000000000081526004016102ff90610763565b60405180910390fd5b6001600260008373ffffffffffffffffffffffffffffffffffffffff1673ffffffffffffffffffffffffffffffffffffffff16815260200190815260200160002060006101000a81548160ff02191690831515021790555050565b600260003373ffffffffffffffffffffffffffffffffffffffff1673ffffffffffffffffffffffffffffffffffffffff16815260200190815260200160002060009054906101000a900460ff166103ef576040517f08c379a00000000000000000000000000000000000000000000000000000000081526004016103e6906107cf565b60405180910390fd5b600160009054906101000a900473ffffffffffffffffffffffffffffffffffffffff1673ffffffffffffffffffffffffffffffffffffffff166323b872dd60008054906101000a900473ffffffffffffffffffffffffffffffffffffffff1633846040518463ffffffff1660e01b815260040161046e939291906107fe565b600060405180830381600087803b15801561048857600080fd5b505af115801561049c573d6000803e3d6000fd5b505050506000600260003373ffffffffffffffffffffffffffffffffffffffff1673ffffffffffffffffffffffffffffffffffffffff16815260200190815260200160002060006101000a81548160ff02191690831515021790555050565b600080fd5b600073ffffffffffffffffffffffffffffffffffffffff82169050919050565b600061052b82610500565b9050919050565b61053b81610520565b811461054657600080fd5b50565b60008135905061055881610532565b92915050565b600060208284031215610574576105736104fb565b5b600061058284828501610549565b91505092915050565b60008115159050919050565b6105a08161058b565b82525050565b60006020820190506105bb6000830184610597565b92915050565b6105ca81610520565b82525050565b60006020820190506105e560008301846105c1565b92915050565b6000819050919050565b6105fe816105eb565b811461060957600080fd5b50565b60008135905061061b816105f5565b92915050565b600060208284031215610637576106366104fb565b5b60006106458482850161060c565b91505092915050565b600082825260208201905092915050565b7f4f6e6c792061646d696e2063616e2072656d6f76652066726f6d20746865206160008201527f6c6c6f776c697374000000000000000000000000000000000000000000000000602082015250565b60006106bb60288361064e565b91506106c68261065f565b604082019050919050565b600060208201905081810360008301526106ea816106ae565b9050919050565b7f4f6e6c792061646d696e2063616e2061646420746f2074686520616c6c6f776c60008201527f6973740000000000000000000000000000000000000000000000000000000000602082015250565b600061074d60238361064e565b9150610758826106f1565b604082019050919050565b6000602082019050818103600083015261077c81610740565b9050919050565b7f4e6f7420656c696769626c6520746f20636c61696d204e465400000000000000600082015250565b60006107b960198361064e565b91506107c482610783565b602082019050919050565b600060208201905081810360008301526107e8816107ac565b9050919050565b6107f8816105eb565b82525050565b600060608201905061081360008301866105c1565b61082060208301856105c1565b61082d60408301846107ef565b94935050505056fea2646970667358221220af77b32860ec389fce09d7b76e0190f2b5e0419edc4aa2a74c8129547178927a64736f6c63430008180033",
  "linkReferences": {},
  "deployedLinkReferences": {}
}