{
  "_format": "hh-sol-artifact-1",
  "contractName": "SolarSeekerTraits",
  "sourceName": "contracts/SolarSeekerTraits.sol",
  "abi": [
    {
      "inputs": [],
      "stateMutability": "nonpayable",
      "type": "constructor"
    },
    {
      "inputs": [],
      "name": "ERC721EnumerableForbiddenBatchMint",
      "type": "error"
    },
    {
      "inputs": [
        {
          "internalType": "address",
          "name": "sender",
          "type": "address"
        },
        {
          "internalType": "uint256",
          "name": "tokenId",
          "type": "uint256"
        },
        {
          "internalType": "address",
          "name": "owner",
          "type": "address"
        }
      ],
      "name": "ERC721IncorrectOwner",
      "type": "error"
    },
    {
      "inputs": [
        {
          "internalType": "address",
          "name": "operator",
          "type": "address"
        },
        {
          "internalType": "uint256",
          "name": "tokenId",
          "type": "uint256"
        }
      ],
      "name": "ERC721InsufficientApproval",
      "type": "error"
    },
    {
      "inputs": [
        {
          "internalType": "address",
          "name": "approver",
          "type": "address"
        }
      ],
      "name": "ERC721InvalidApprover",
      "type": "error"
    },
    {
      "inputs": [
        {
          "internalType": "address",
          "name": "operator",
          "type": "address"
        }
      ],
      "name": "ERC721InvalidOperator",
      "type": "error"
    },
    {
      "inputs": [
        {
          "internalType": "address",
          "name": "owner",
          "type": "address"
        }
      ],
      "name": "ERC721InvalidOwner",
      "type": "error"
    },
    {
      "inputs": [
        {
          "internalType": "address",
          "name": "receiver",
          "type": "address"
        }
      ],
      "name": "ERC721InvalidReceiver",
      "type": "error"
    },
    {
      "inputs": [
        {
          "internalType": "address",
          "name": "sender",
          "type": "address"
        }
      ],
      "name": "ERC721InvalidSender",
      "type": "error"
    },
    {
      "inputs": [
        {
          "internalType": "uint256",
          "name": "tokenId",
          "type": "uint256"
        }
      ],
      "name": "ERC721NonexistentToken",
      "type": "error"
    },
    {
      "inputs": [
        {
          "internalType": "address",
          "name": "owner",
          "type": "address"
        },
        {
          "internalType": "uint256",
          "name": "index",
          "type": "uint256"
        }
      ],
      "name": "ERC721OutOfBoundsIndex",
      "type": "error"
    },
    {
      "inputs": [
        {
          "internalType": "address",
          "name": "owner",
          "type": "address"
        }
      ],
      "name": "OwnableInvalidOwner",
      "type": "error"
    },
    {
      "inputs": [
        {
          "internalType": "address",
          "name": "account",
          "type": "address"
        }
      ],
      "name": "OwnableUnauthorizedAccount",
      "type": "error"
    },
    {
      "anonymous": false,
      "inputs": [
        {
          "indexed": true,
          "internalType": "address",
          "name": "owner",
          "type": "address"
        },
        {
          "indexed": true,
          "internalType": "address",
          "name": "approved",
          "type": "address"
        },
        {
          "indexed": true,
          "internalType": "uint256",
          "name": "tokenId",
          "type": "uint256"
        }
      ],
      "name": "Approval",
      "type": "event"
    },
    {
      "anonymous": false,
      "inputs": [
        {
          "indexed": true,
          "internalType": "address",
          "name": "owner",
          "type": "address"
        },
        {
          "indexed": true,
          "internalType": "address",
          "name": "operator",
          "type": "address"
        },
        {
          "indexed": false,
          "internalType": "bool",
          "name": "approved",
          "type": "bool"
        }
      ],
      "name": "ApprovalForAll",
      "type": "event"
    },
    {
      "anonymous": false,
      "inputs": [
        {
          "indexed": false,
          "internalType": "uint256",
          "name": "_fromTokenId",
          "type": "uint256"
        },
        {
          "indexed": false,
          "internalType": "uint256",
          "name": "_toTokenId",
          "type": "uint256"
        }
      ],
      "name": "BatchMetadataUpdate",
      "type": "event"
    },
    {
      "anonymous": false,
      "inputs": [
        {
          "indexed": false,
          "internalType": "uint256",
          "name": "_tokenId",
          "type": "uint256"
        }
      ],
      "name": "MetadataUpdate",
      "type": "event"
    },
    {
      "anonymous": false,
      "inputs": [
        {
          "indexed": true,
          "internalType": "address",
          "name": "previousOwner",
          "type": "address"
        },
        {
          "indexed": true,
          "internalType": "address",
          "name": "newOwner",
          "type": "address"
        }
      ],
      "name": "OwnershipTransferred",
      "type": "event"
    },
    {
      "anonymous": false,
      "inputs": [
        {
          "indexed": true,
          "internalType": "address",
          "name": "from",
          "type": "address"
        },
        {
          "indexed": true,
          "internalType": "address",
          "name": "to",
          "type": "address"
        },
        {
          "indexed": true,
          "internalType": "uint256",
          "name": "tokenId",
          "type": "uint256"
        }
      ],
      "name": "Transfer",
      "type": "event"
    },
    {
      "inputs": [
        {
          "internalType": "address",
          "name": "receiver",
          "type": "address"
        },
        {
          "internalType": "uint256",
          "name": "amt",
          "type": "uint256"
        }
      ],
      "name": "allowMint",
      "outputs": [],
      "stateMutability": "nonpayable",
      "type": "function"
    },
    {
      "inputs": [
        {
          "internalType": "address[]",
          "name": "receivers",
          "type": "address[]"
        },
        {
          "internalType": "uint256",
          "name": "amt",
          "type": "uint256"
        }
      ],
      "name": "allowMint",
      "outputs": [],
      "stateMutability": "nonpayable",
      "type": "function"
    },
    {
      "inputs": [
        {
          "internalType": "address",
          "name": "receiver",
          "type": "address"
        }
      ],
      "name": "allowMint",
      "outputs": [],
      "stateMutability": "nonpayable",
      "type": "function"
    },
    {
      "inputs": [
        {
          "internalType": "address",
          "name": "to",
          "type": "address"
        },
        {
          "internalType": "uint256",
          "name": "tokenId",
          "type": "uint256"
        }
      ],
      "name": "approve",
      "outputs": [],
      "stateMutability": "nonpayable",
      "type": "function"
    },
    {
      "inputs": [
        {
          "internalType": "address",
          "name": "owner",
          "type": "address"
        }
      ],
      "name": "balanceOf",
      "outputs": [
        {
          "internalType": "uint256",
          "name": "",
          "type": "uint256"
        }
      ],
      "stateMutability": "view",
      "type": "function"
    },
    {
      "inputs": [
        {
          "internalType": "uint256",
          "name": "tokenId",
          "type": "uint256"
        }
      ],
      "name": "getApproved",
      "outputs": [
        {
          "internalType": "address",
          "name": "",
          "type": "address"
        }
      ],
      "stateMutability": "view",
      "type": "function"
    },
    {
      "inputs": [
        {
          "internalType": "address",
          "name": "owner",
          "type": "address"
        },
        {
          "internalType": "address",
          "name": "operator",
          "type": "address"
        }
      ],
      "name": "isApprovedForAll",
      "outputs": [
        {
          "internalType": "bool",
          "name": "",
          "type": "bool"
        }
      ],
      "stateMutability": "view",
      "type": "function"
    },
    {
      "inputs": [
        {
          "internalType": "address",
          "name": "",
          "type": "address"
        }
      ],
      "name": "mintAllowance",
      "outputs": [
        {
          "internalType": "uint256",
          "name": "",
          "type": "uint256"
        }
      ],
      "stateMutability": "view",
      "type": "function"
    },
    {
      "inputs": [],
      "name": "name",
      "outputs": [
        {
          "internalType": "string",
          "name": "",
          "type": "string"
        }
      ],
      "stateMutability": "view",
      "type": "function"
    },
    {
      "inputs": [],
      "name": "owner",
      "outputs": [
        {
          "internalType": "address",
          "name": "",
          "type": "address"
        }
      ],
      "stateMutability": "view",
      "type": "function"
    },
    {
      "inputs": [
        {
          "internalType": "uint256",
          "name": "tokenId",
          "type": "uint256"
        }
      ],
      "name": "ownerOf",
      "outputs": [
        {
          "internalType": "address",
          "name": "",
          "type": "address"
        }
      ],
      "stateMutability": "view",
      "type": "function"
    },
    {
      "inputs": [],
      "name": "renounceOwnership",
      "outputs": [],
      "stateMutability": "nonpayable",
      "type": "function"
    },
    {
      "inputs": [
        {
          "internalType": "address",
          "name": "to",
          "type": "address"
        },
        {
          "internalType": "string",
          "name": "uri",
          "type": "string"
        }
      ],
      "name": "safeMint",
      "outputs": [],
      "stateMutability": "nonpayable",
      "type": "function"
    },
    {
      "inputs": [
        {
          "internalType": "address",
          "name": "from",
          "type": "address"
        },
        {
          "internalType": "address",
          "name": "to",
          "type": "address"
        },
        {
          "internalType": "uint256",
          "name": "tokenId",
          "type": "uint256"
        }
      ],
      "name": "safeTransferFrom",
      "outputs": [],
      "stateMutability": "nonpayable",
      "type": "function"
    },
    {
      "inputs": [
        {
          "internalType": "address",
          "name": "from",
          "type": "address"
        },
        {
          "internalType": "address",
          "name": "to",
          "type": "address"
        },
        {
          "internalType": "uint256",
          "name": "tokenId",
          "type": "uint256"
        },
        {
          "internalType": "bytes",
          "name": "data",
          "type": "bytes"
        }
      ],
      "name": "safeTransferFrom",
      "outputs": [],
      "stateMutability": "nonpayable",
      "type": "function"
    },
    {
      "inputs": [
        {
          "internalType": "address",
          "name": "operator",
          "type": "address"
        },
        {
          "internalType": "bool",
          "name": "approved",
          "type": "bool"
        }
      ],
      "name": "setApprovalForAll",
      "outputs": [],
      "stateMutability": "nonpayable",
      "type": "function"
    },
    {
      "inputs": [
        {
          "internalType": "bytes4",
          "name": "interfaceId",
          "type": "bytes4"
        }
      ],
      "name": "supportsInterface",
      "outputs": [
        {
          "internalType": "bool",
          "name": "",
          "type": "bool"
        }
      ],
      "stateMutability": "view",
      "type": "function"
    },
    {
      "inputs": [],
      "name": "symbol",
      "outputs": [
        {
          "internalType": "string",
          "name": "",
          "type": "string"
        }
      ],
      "stateMutability": "view",
      "type": "function"
    },
    {
      "inputs": [
        {
          "internalType": "uint256",
          "name": "index",
          "type": "uint256"
        }
      ],
      "name": "tokenByIndex",
      "outputs": [
        {
          "internalType": "uint256",
          "name": "",
          "type": "uint256"
        }
      ],
      "stateMutability": "view",
      "type": "function"
    },
    {
      "inputs": [
        {
          "internalType": "address",
          "name": "owner",
          "type": "address"
        },
        {
          "internalType": "uint256",
          "name": "index",
          "type": "uint256"
        }
      ],
      "name": "tokenOfOwnerByIndex",
      "outputs": [
        {
          "internalType": "uint256",
          "name": "",
          "type": "uint256"
        }
      ],
      "stateMutability": "view",
      "type": "function"
    },
    {
      "inputs": [
        {
          "internalType": "uint256",
          "name": "tokenId",
          "type": "uint256"
        }
      ],
      "name": "tokenURI",
      "outputs": [
        {
          "internalType": "string",
          "name": "",
          "type": "string"
        }
      ],
      "stateMutability": "view",
      "type": "function"
    },
    {
      "inputs": [],
      "name": "totalSupply",
      "outputs": [
        {
          "internalType": "uint256",
          "name": "",
          "type": "uint256"
        }
      ],
      "stateMutability": "view",
      "type": "function"
    },
    {
      "inputs": [
        {
          "internalType": "address",
          "name": "from",
          "type": "address"
        },
        {
          "internalType": "address",
          "name": "to",
          "type": "address"
        },
        {
          "internalType": "uint256",
          "name": "tokenId",
          "type": "uint256"
        }
      ],
      "name": "transferFrom",
      "outputs": [],
      "stateMutability": "nonpayable",
      "type": "function"
    },
    {
      "inputs": [
        {
          "internalType": "address",
          "name": "newOwner",
          "type": "address"
        }
      ],
      "name": "transferOwnership",
      "outputs": [],
      "stateMutability": "nonpayable",
      "type": "function"
    }
  ],
  "bytecode": "0x60806040526001600c553480156200001657600080fd5b50336040518060400160405280601381526020017f536f6c6172205365656b657220547261697473000000000000000000000000008152506040518060400160405280601181526020017f536f6c61725365656b6572547261697473000000000000000000000000000000815250816000908162000095919062000477565b508060019081620000a7919062000477565b505050600073ffffffffffffffffffffffffffffffffffffffff168173ffffffffffffffffffffffffffffffffffffffff16036200011f5760006040517f1e4fbdf7000000000000000000000000000000000000000000000000000000008152600401620001169190620005a3565b60405180910390fd5b62000130816200013760201b60201c565b50620005c0565b6000600b60009054906101000a900473ffffffffffffffffffffffffffffffffffffffff16905081600b60006101000a81548173ffffffffffffffffffffffffffffffffffffffff021916908373ffffffffffffffffffffffffffffffffffffffff1602179055508173ffffffffffffffffffffffffffffffffffffffff168173ffffffffffffffffffffffffffffffffffffffff167f8be0079c531659141344cd1fd0a4f28419497f9722a3daafe3b4186f6b6457e060405160405180910390a35050565b600081519050919050565b7f4e487b7100000000000000000000000000000000000000000000000000000000600052604160045260246000fd5b7f4e487b7100000000000000000000000000000000000000000000000000000000600052602260045260246000fd5b600060028204905060018216806200027f57607f821691505b60208210810362000295576200029462000237565b5b50919050565b60008190508160005260206000209050919050565b60006020601f8301049050919050565b600082821b905092915050565b600060088302620002ff7fffffffffffffffffffffffffffffffffffffffffffffffffffffffffffffffff82620002c0565b6200030b8683620002c0565b95508019841693508086168417925050509392505050565b6000819050919050565b6000819050919050565b600062000358620003526200034c8462000323565b6200032d565b62000323565b9050919050565b6000819050919050565b620003748362000337565b6200038c62000383826200035f565b848454620002cd565b825550505050565b600090565b620003a362000394565b620003b081848462000369565b505050565b5b81811015620003d857620003cc60008262000399565b600181019050620003b6565b5050565b601f8211156200042757620003f1816200029b565b620003fc84620002b0565b810160208510156200040c578190505b620004246200041b85620002b0565b830182620003b5565b50505b505050565b600082821c905092915050565b60006200044c600019846008026200042c565b1980831691505092915050565b600062000467838362000439565b9150826002028217905092915050565b6200048282620001fd565b67ffffffffffffffff8111156200049e576200049d62000208565b5b620004aa825462000266565b620004b7828285620003dc565b600060209050601f831160018114620004ef5760008415620004da578287015190505b620004e6858262000459565b86555062000556565b601f198416620004ff866200029b565b60005b82811015620005295784890151825560018201915060208501945060208101905062000502565b8683101562000549578489015162000545601f89168262000439565b8355505b6001600288020188555050505b505050505050565b600073ffffffffffffffffffffffffffffffffffffffff82169050919050565b60006200058b826200055e565b9050919050565b6200059d816200057e565b82525050565b6000602082019050620005ba600083018462000592565b92915050565b61321680620005d06000396000f3fe608060405234801561001057600080fd5b50600436106101585760003560e01c8063640cff98116100c3578063b88d4fde1161007c578063b88d4fde146103c3578063c5119ff8146103df578063c87b56dd1461040f578063d204c45e1461043f578063e985e9c51461045b578063f2fde38b1461048b57610158565b8063640cff981461031557806370a0823114610331578063715018a6146103615780638da5cb5b1461036b57806395d89b4114610389578063a22cb465146103a757610158565b806326e97fce1161011557806326e97fce146102315780632f745c591461024d57806342842e0e1461027d5780634f6ccce714610299578063540dcc6d146102c95780636352211e146102e557610158565b806301ffc9a71461015d57806306fdde031461018d578063081812fc146101ab578063095ea7b3146101db57806318160ddd146101f757806323b872dd14610215575b600080fd5b61017760048036038101906101729190612453565b6104a7565b604051610184919061249b565b60405180910390f35b6101956104b9565b6040516101a29190612546565b60405180910390f35b6101c560048036038101906101c0919061259e565b61054b565b6040516101d2919061260c565b60405180910390f35b6101f560048036038101906101f09190612653565b610567565b005b6101ff61057d565b60405161020c91906126a2565b60405180910390f35b61022f600480360381019061022a91906126bd565b61058a565b005b61024b60048036038101906102469190612653565b61068c565b005b61026760048036038101906102629190612653565b6106ee565b60405161027491906126a2565b60405180910390f35b610297600480360381019061029291906126bd565b610797565b005b6102b360048036038101906102ae919061259e565b6107b7565b6040516102c091906126a2565b60405180910390f35b6102e360048036038101906102de9190612775565b61082d565b005b6102ff60048036038101906102fa919061259e565b6108d3565b60405161030c919061260c565b60405180910390f35b61032f600480360381019061032a91906127d5565b6108e5565b005b61034b600480360381019061034691906127d5565b610945565b60405161035891906126a2565b60405180910390f35b6103696109ff565b005b610373610a13565b604051610380919061260c565b60405180910390f35b610391610a3d565b60405161039e9190612546565b60405180910390f35b6103c160048036038101906103bc919061282e565b610acf565b005b6103dd60048036038101906103d8919061299e565b610ae5565b005b6103f960048036038101906103f491906127d5565b610b02565b60405161040691906126a2565b60405180910390f35b6104296004803603810190610424919061259e565b610b1a565b6040516104369190612546565b60405180910390f35b61045960048036038101906104549190612ac2565b610b2c565b005b61047560048036038101906104709190612b1e565b610c37565b604051610482919061249b565b60405180910390f35b6104a560048036038101906104a091906127d5565b610ccb565b005b60006104b282610d51565b9050919050565b6060600080546104c890612b8d565b80601f01602080910402602001604051908101604052809291908181526020018280546104f490612b8d565b80156105415780601f1061051657610100808354040283529160200191610541565b820191906000526020600020905b81548152906001019060200180831161052457829003601f168201915b5050505050905090565b600061055682610db2565b5061056082610e3a565b9050919050565b6105798282610574610e77565b610e7f565b5050565b6000600880549050905090565b600073ffffffffffffffffffffffffffffffffffffffff168273ffffffffffffffffffffffffffffffffffffffff16036105fc5760006040517f64a0ae920000000000000000000000000000000000000000000000000000000081526004016105f3919061260c565b60405180910390fd5b6000610610838361060b610e77565b610e91565b90508373ffffffffffffffffffffffffffffffffffffffff168173ffffffffffffffffffffffffffffffffffffffff1614610686578382826040517f64283d7b00000000000000000000000000000000000000000000000000000000815260040161067d93929190612bbe565b60405180910390fd5b50505050565b610694610ea7565b80600d60008473ffffffffffffffffffffffffffffffffffffffff1673ffffffffffffffffffffffffffffffffffffffff16815260200190815260200160002060008282546106e39190612c24565b925050819055505050565b60006106f983610945565b821061073e5782826040517fa57d13dc000000000000000000000000000000000000000000000000000000008152600401610735929190612c58565b60405180910390fd5b600660008473ffffffffffffffffffffffffffffffffffffffff1673ffffffffffffffffffffffffffffffffffffffff168152602001908152602001600020600083815260200190815260200160002054905092915050565b6107b283838360405180602001604052806000815250610ae5565b505050565b60006107c161057d565b8210610807576000826040517fa57d13dc0000000000000000000000000000000000000000000000000000000081526004016107fe929190612c58565b60405180910390fd5b6008828154811061081b5761081a612c81565b5b90600052602060002001549050919050565b610835610ea7565b60005b838390508110156108cd5781600d600086868581811061085b5761085a612c81565b5b905060200201602081019061087091906127d5565b73ffffffffffffffffffffffffffffffffffffffff1673ffffffffffffffffffffffffffffffffffffffff16815260200190815260200160002060008282546108b99190612c24565b925050819055508080600101915050610838565b50505050565b60006108de82610db2565b9050919050565b6108ed610ea7565b600d60008273ffffffffffffffffffffffffffffffffffffffff1673ffffffffffffffffffffffffffffffffffffffff168152602001908152602001600020600081548092919061093d90612cb0565b919050555050565b60008073ffffffffffffffffffffffffffffffffffffffff168273ffffffffffffffffffffffffffffffffffffffff16036109b85760006040517f89c62b640000000000000000000000000000000000000000000000000000000081526004016109af919061260c565b60405180910390fd5b600360008373ffffffffffffffffffffffffffffffffffffffff1673ffffffffffffffffffffffffffffffffffffffff168152602001908152602001600020549050919050565b610a07610ea7565b610a116000610f2e565b565b6000600b60009054906101000a900473ffffffffffffffffffffffffffffffffffffffff16905090565b606060018054610a4c90612b8d565b80601f0160208091040260200160405190810160405280929190818152602001828054610a7890612b8d565b8015610ac55780601f10610a9a57610100808354040283529160200191610ac5565b820191906000526020600020905b815481529060010190602001808311610aa857829003601f168201915b5050505050905090565b610ae1610ada610e77565b8383610ff4565b5050565b610af084848461058a565b610afc84848484611163565b50505050565b600d6020528060005260406000206000915090505481565b6060610b258261131a565b9050919050565b6000600d60003373ffffffffffffffffffffffffffffffffffffffff1673ffffffffffffffffffffffffffffffffffffffff1681526020019081526020016000205411610bae576040517f08c379a0000000000000000000000000000000000000000000000000000000008152600401610ba590612d44565b60405180910390fd5b600d60003373ffffffffffffffffffffffffffffffffffffffff1673ffffffffffffffffffffffffffffffffffffffff1681526020019081526020016000206000815480929190610bfe90612d64565b91905055506000600c6000815480929190610c1890612cb0565b919050559050610c28838261142d565b610c32818361144b565b505050565b6000600560008473ffffffffffffffffffffffffffffffffffffffff1673ffffffffffffffffffffffffffffffffffffffff16815260200190815260200160002060008373ffffffffffffffffffffffffffffffffffffffff1673ffffffffffffffffffffffffffffffffffffffff16815260200190815260200160002060009054906101000a900460ff16905092915050565b610cd3610ea7565b600073ffffffffffffffffffffffffffffffffffffffff168173ffffffffffffffffffffffffffffffffffffffff1603610d455760006040517f1e4fbdf7000000000000000000000000000000000000000000000000000000008152600401610d3c919061260c565b60405180910390fd5b610d4e81610f2e565b50565b6000634906490660e01b7bffffffffffffffffffffffffffffffffffffffffffffffffffffffff1916827bffffffffffffffffffffffffffffffffffffffffffffffffffffffff19161480610dab5750610daa826114a7565b5b9050919050565b600080610dbe83611521565b9050600073ffffffffffffffffffffffffffffffffffffffff168173ffffffffffffffffffffffffffffffffffffffff1603610e3157826040517f7e273289000000000000000000000000000000000000000000000000000000008152600401610e2891906126a2565b60405180910390fd5b80915050919050565b60006004600083815260200190815260200160002060009054906101000a900473ffffffffffffffffffffffffffffffffffffffff169050919050565b600033905090565b610e8c838383600161155e565b505050565b6000610e9e848484611723565b90509392505050565b610eaf610e77565b73ffffffffffffffffffffffffffffffffffffffff16610ecd610a13565b73ffffffffffffffffffffffffffffffffffffffff1614610f2c57610ef0610e77565b6040517f118cdaa7000000000000000000000000000000000000000000000000000000008152600401610f23919061260c565b60405180910390fd5b565b6000600b60009054906101000a900473ffffffffffffffffffffffffffffffffffffffff16905081600b60006101000a81548173ffffffffffffffffffffffffffffffffffffffff021916908373ffffffffffffffffffffffffffffffffffffffff1602179055508173ffffffffffffffffffffffffffffffffffffffff168173ffffffffffffffffffffffffffffffffffffffff167f8be0079c531659141344cd1fd0a4f28419497f9722a3daafe3b4186f6b6457e060405160405180910390a35050565b600073ffffffffffffffffffffffffffffffffffffffff168273ffffffffffffffffffffffffffffffffffffffff160361106557816040517f5b08ba1800000000000000000000000000000000000000000000000000000000815260040161105c919061260c565b60405180910390fd5b80600560008573ffffffffffffffffffffffffffffffffffffffff1673ffffffffffffffffffffffffffffffffffffffff16815260200190815260200160002060008473ffffffffffffffffffffffffffffffffffffffff1673ffffffffffffffffffffffffffffffffffffffff16815260200190815260200160002060006101000a81548160ff0219169083151502179055508173ffffffffffffffffffffffffffffffffffffffff168373ffffffffffffffffffffffffffffffffffffffff167f17307eab39ab6107e8899845ad3d59bd9653f200f220920489ca2b5937696c3183604051611156919061249b565b60405180910390a3505050565b60008373ffffffffffffffffffffffffffffffffffffffff163b1115611314578273ffffffffffffffffffffffffffffffffffffffff1663150b7a026111a7610e77565b8685856040518563ffffffff1660e01b81526004016111c99493929190612de2565b6020604051808303816000875af192505050801561120557506040513d601f19601f820116820180604052508101906112029190612e43565b60015b611289573d8060008114611235576040519150601f19603f3d011682016040523d82523d6000602084013e61123a565b606091505b50600081510361128157836040517f64a0ae92000000000000000000000000000000000000000000000000000000008152600401611278919061260c565b60405180910390fd5b805181602001fd5b63150b7a0260e01b7bffffffffffffffffffffffffffffffffffffffffffffffffffffffff1916817bffffffffffffffffffffffffffffffffffffffffffffffffffffffff19161461131257836040517f64a0ae92000000000000000000000000000000000000000000000000000000008152600401611309919061260c565b60405180910390fd5b505b50505050565b606061132582610db2565b506000600a6000848152602001908152602001600020805461134690612b8d565b80601f016020809104026020016040519081016040528092919081815260200182805461137290612b8d565b80156113bf5780601f10611394576101008083540402835291602001916113bf565b820191906000526020600020905b8154815290600101906020018083116113a257829003601f168201915b5050505050905060006113d0611840565b905060008151036113e5578192505050611428565b60008251111561141a578082604051602001611402929190612eac565b60405160208183030381529060405292505050611428565b61142384611857565b925050505b919050565b6114478282604051806020016040528060008152506118c0565b5050565b80600a6000848152602001908152602001600020908161146b919061307c565b507ff8e1a15aba9398e019f0b49df1a4fde98ee17ae345cb5f6b5e2c27f5033e8ce78260405161149b91906126a2565b60405180910390a15050565b60007f780e9d63000000000000000000000000000000000000000000000000000000007bffffffffffffffffffffffffffffffffffffffffffffffffffffffff1916827bffffffffffffffffffffffffffffffffffffffffffffffffffffffff1916148061151a5750611519826118dc565b5b9050919050565b60006002600083815260200190815260200160002060009054906101000a900473ffffffffffffffffffffffffffffffffffffffff169050919050565b80806115975750600073ffffffffffffffffffffffffffffffffffffffff168273ffffffffffffffffffffffffffffffffffffffff1614155b156116cb5760006115a784610db2565b9050600073ffffffffffffffffffffffffffffffffffffffff168373ffffffffffffffffffffffffffffffffffffffff161415801561161257508273ffffffffffffffffffffffffffffffffffffffff168173ffffffffffffffffffffffffffffffffffffffff1614155b801561162557506116238184610c37565b155b1561166757826040517fa9fbf51f00000000000000000000000000000000000000000000000000000000815260040161165e919061260c565b60405180910390fd5b81156116c957838573ffffffffffffffffffffffffffffffffffffffff168273ffffffffffffffffffffffffffffffffffffffff167f8c5be1e5ebec7d5bd14f71427d1e84f3dd0314c0f7b2291e5b200ac8c7c3b92560405160405180910390a45b505b836004600085815260200190815260200160002060006101000a81548173ffffffffffffffffffffffffffffffffffffffff021916908373ffffffffffffffffffffffffffffffffffffffff16021790555050505050565b6000806117318585856119be565b9050600073ffffffffffffffffffffffffffffffffffffffff168173ffffffffffffffffffffffffffffffffffffffff16036117755761177084611bd8565b6117b4565b8473ffffffffffffffffffffffffffffffffffffffff168173ffffffffffffffffffffffffffffffffffffffff16146117b3576117b28185611c21565b5b5b600073ffffffffffffffffffffffffffffffffffffffff168573ffffffffffffffffffffffffffffffffffffffff16036117f6576117f184611d82565b611835565b8473ffffffffffffffffffffffffffffffffffffffff168173ffffffffffffffffffffffffffffffffffffffff1614611834576118338585611e53565b5b5b809150509392505050565b606060405180602001604052806000815250905090565b606061186282610db2565b50600061186d611840565b9050600081511161188d57604051806020016040528060008152506118b8565b8061189784611ede565b6040516020016118a8929190612eac565b6040516020818303038152906040525b915050919050565b6118ca8383611fac565b6118d76000848484611163565b505050565b60007f80ac58cd000000000000000000000000000000000000000000000000000000007bffffffffffffffffffffffffffffffffffffffffffffffffffffffff1916827bffffffffffffffffffffffffffffffffffffffffffffffffffffffff191614806119a757507f5b5e139f000000000000000000000000000000000000000000000000000000007bffffffffffffffffffffffffffffffffffffffffffffffffffffffff1916827bffffffffffffffffffffffffffffffffffffffffffffffffffffffff1916145b806119b757506119b6826120a5565b5b9050919050565b6000806119ca84611521565b9050600073ffffffffffffffffffffffffffffffffffffffff168373ffffffffffffffffffffffffffffffffffffffff1614611a0c57611a0b81848661210f565b5b600073ffffffffffffffffffffffffffffffffffffffff168173ffffffffffffffffffffffffffffffffffffffff1614611a9d57611a4e60008560008061155e565b6001600360008373ffffffffffffffffffffffffffffffffffffffff1673ffffffffffffffffffffffffffffffffffffffff168152602001908152602001600020600082825403925050819055505b600073ffffffffffffffffffffffffffffffffffffffff168573ffffffffffffffffffffffffffffffffffffffff1614611b20576001600360008773ffffffffffffffffffffffffffffffffffffffff1673ffffffffffffffffffffffffffffffffffffffff168152602001908152602001600020600082825401925050819055505b846002600086815260200190815260200160002060006101000a81548173ffffffffffffffffffffffffffffffffffffffff021916908373ffffffffffffffffffffffffffffffffffffffff160217905550838573ffffffffffffffffffffffffffffffffffffffff168273ffffffffffffffffffffffffffffffffffffffff167fddf252ad1be2c89b69c2b068fc378daa952ba7f163c4a11628f55a4df523b3ef60405160405180910390a4809150509392505050565b6008805490506009600083815260200190815260200160002081905550600881908060018154018082558091505060019003906000526020600020016000909190919091505550565b6000611c2c83610945565b9050600060076000848152602001908152602001600020549050818114611d11576000600660008673ffffffffffffffffffffffffffffffffffffffff1673ffffffffffffffffffffffffffffffffffffffff168152602001908152602001600020600084815260200190815260200160002054905080600660008773ffffffffffffffffffffffffffffffffffffffff1673ffffffffffffffffffffffffffffffffffffffff168152602001908152602001600020600084815260200190815260200160002081905550816007600083815260200190815260200160002081905550505b6007600084815260200190815260200160002060009055600660008573ffffffffffffffffffffffffffffffffffffffff1673ffffffffffffffffffffffffffffffffffffffff16815260200190815260200160002060008381526020019081526020016000206000905550505050565b60006001600880549050611d96919061314e565b9050600060096000848152602001908152602001600020549050600060088381548110611dc657611dc5612c81565b5b906000526020600020015490508060088381548110611de857611de7612c81565b5b906000526020600020018190555081600960008381526020019081526020016000208190555060096000858152602001908152602001600020600090556008805480611e3757611e36613182565b5b6001900381819060005260206000200160009055905550505050565b60006001611e6084610945565b611e6a919061314e565b905081600660008573ffffffffffffffffffffffffffffffffffffffff1673ffffffffffffffffffffffffffffffffffffffff168152602001908152602001600020600083815260200190815260200160002081905550806007600084815260200190815260200160002081905550505050565b606060006001611eed846121d3565b01905060008167ffffffffffffffff811115611f0c57611f0b612873565b5b6040519080825280601f01601f191660200182016040528015611f3e5781602001600182028036833780820191505090505b509050600082602001820190505b600115611fa1578080600190039150507f3031323334353637383961626364656600000000000000000000000000000000600a86061a8153600a8581611f9557611f946131b1565b5b04945060008503611f4c575b819350505050919050565b600073ffffffffffffffffffffffffffffffffffffffff168273ffffffffffffffffffffffffffffffffffffffff160361201e5760006040517f64a0ae92000000000000000000000000000000000000000000000000000000008152600401612015919061260c565b60405180910390fd5b600061202c83836000610e91565b9050600073ffffffffffffffffffffffffffffffffffffffff168173ffffffffffffffffffffffffffffffffffffffff16146120a05760006040517f73c6ac6e000000000000000000000000000000000000000000000000000000008152600401612097919061260c565b60405180910390fd5b505050565b60007f01ffc9a7000000000000000000000000000000000000000000000000000000007bffffffffffffffffffffffffffffffffffffffffffffffffffffffff1916827bffffffffffffffffffffffffffffffffffffffffffffffffffffffff1916149050919050565b61211a838383612326565b6121ce57600073ffffffffffffffffffffffffffffffffffffffff168373ffffffffffffffffffffffffffffffffffffffff160361218f57806040517f7e27328900000000000000000000000000000000000000000000000000000000815260040161218691906126a2565b60405180910390fd5b81816040517f177e802f0000000000000000000000000000000000000000000000000000000081526004016121c5929190612c58565b60405180910390fd5b505050565b600080600090507a184f03e93ff9f4daa797ed6e38ed64bf6a1f0100000000000000008310612231577a184f03e93ff9f4daa797ed6e38ed64bf6a1f0100000000000000008381612227576122266131b1565b5b0492506040810190505b6d04ee2d6d415b85acef8100000000831061226e576d04ee2d6d415b85acef81000000008381612264576122636131b1565b5b0492506020810190505b662386f26fc10000831061229d57662386f26fc100008381612293576122926131b1565b5b0492506010810190505b6305f5e10083106122c6576305f5e10083816122bc576122bb6131b1565b5b0492506008810190505b61271083106122eb5761271083816122e1576122e06131b1565b5b0492506004810190505b6064831061230e5760648381612304576123036131b1565b5b0492506002810190505b600a831061231d576001810190505b80915050919050565b60008073ffffffffffffffffffffffffffffffffffffffff168373ffffffffffffffffffffffffffffffffffffffff16141580156123de57508273ffffffffffffffffffffffffffffffffffffffff168473ffffffffffffffffffffffffffffffffffffffff16148061239f575061239e8484610c37565b5b806123dd57508273ffffffffffffffffffffffffffffffffffffffff166123c583610e3a565b73ffffffffffffffffffffffffffffffffffffffff16145b5b90509392505050565b6000604051905090565b600080fd5b600080fd5b60007fffffffff0000000000000000000000000000000000000000000000000000000082169050919050565b612430816123fb565b811461243b57600080fd5b50565b60008135905061244d81612427565b92915050565b600060208284031215612469576124686123f1565b5b60006124778482850161243e565b91505092915050565b60008115159050919050565b61249581612480565b82525050565b60006020820190506124b0600083018461248c565b92915050565b600081519050919050565b600082825260208201905092915050565b60005b838110156124f05780820151818401526020810190506124d5565b60008484015250505050565b6000601f19601f8301169050919050565b6000612518826124b6565b61252281856124c1565b93506125328185602086016124d2565b61253b816124fc565b840191505092915050565b60006020820190508181036000830152612560818461250d565b905092915050565b6000819050919050565b61257b81612568565b811461258657600080fd5b50565b60008135905061259881612572565b92915050565b6000602082840312156125b4576125b36123f1565b5b60006125c284828501612589565b91505092915050565b600073ffffffffffffffffffffffffffffffffffffffff82169050919050565b60006125f6826125cb565b9050919050565b612606816125eb565b82525050565b600060208201905061262160008301846125fd565b92915050565b612630816125eb565b811461263b57600080fd5b50565b60008135905061264d81612627565b92915050565b6000806040838503121561266a576126696123f1565b5b60006126788582860161263e565b925050602061268985828601612589565b9150509250929050565b61269c81612568565b82525050565b60006020820190506126b76000830184612693565b92915050565b6000806000606084860312156126d6576126d56123f1565b5b60006126e48682870161263e565b93505060206126f58682870161263e565b925050604061270686828701612589565b9150509250925092565b600080fd5b600080fd5b600080fd5b60008083601f84011261273557612734612710565b5b8235905067ffffffffffffffff81111561275257612751612715565b5b60208301915083602082028301111561276e5761276d61271a565b5b9250929050565b60008060006040848603121561278e5761278d6123f1565b5b600084013567ffffffffffffffff8111156127ac576127ab6123f6565b5b6127b88682870161271f565b935093505060206127cb86828701612589565b9150509250925092565b6000602082840312156127eb576127ea6123f1565b5b60006127f98482850161263e565b91505092915050565b61280b81612480565b811461281657600080fd5b50565b60008135905061282881612802565b92915050565b60008060408385031215612845576128446123f1565b5b60006128538582860161263e565b925050602061286485828601612819565b9150509250929050565b600080fd5b7f4e487b7100000000000000000000000000000000000000000000000000000000600052604160045260246000fd5b6128ab826124fc565b810181811067ffffffffffffffff821117156128ca576128c9612873565b5b80604052505050565b60006128dd6123e7565b90506128e982826128a2565b919050565b600067ffffffffffffffff82111561290957612908612873565b5b612912826124fc565b9050602081019050919050565b82818337600083830152505050565b600061294161293c846128ee565b6128d3565b90508281526020810184848401111561295d5761295c61286e565b5b61296884828561291f565b509392505050565b600082601f83011261298557612984612710565b5b813561299584826020860161292e565b91505092915050565b600080600080608085870312156129b8576129b76123f1565b5b60006129c68782880161263e565b94505060206129d78782880161263e565b93505060406129e887828801612589565b925050606085013567ffffffffffffffff811115612a0957612a086123f6565b5b612a1587828801612970565b91505092959194509250565b600067ffffffffffffffff821115612a3c57612a3b612873565b5b612a45826124fc565b9050602081019050919050565b6000612a65612a6084612a21565b6128d3565b905082815260208101848484011115612a8157612a8061286e565b5b612a8c84828561291f565b509392505050565b600082601f830112612aa957612aa8612710565b5b8135612ab9848260208601612a52565b91505092915050565b60008060408385031215612ad957612ad86123f1565b5b6000612ae78582860161263e565b925050602083013567ffffffffffffffff811115612b0857612b076123f6565b5b612b1485828601612a94565b9150509250929050565b60008060408385031215612b3557612b346123f1565b5b6000612b438582860161263e565b9250506020612b548582860161263e565b9150509250929050565b7f4e487b7100000000000000000000000000000000000000000000000000000000600052602260045260246000fd5b60006002820490506001821680612ba557607f821691505b602082108103612bb857612bb7612b5e565b5b50919050565b6000606082019050612bd360008301866125fd565b612be06020830185612693565b612bed60408301846125fd565b949350505050565b7f4e487b7100000000000000000000000000000000000000000000000000000000600052601160045260246000fd5b6000612c2f82612568565b9150612c3a83612568565b9250828201905080821115612c5257612c51612bf5565b5b92915050565b6000604082019050612c6d60008301856125fd565b612c7a6020830184612693565b9392505050565b7f4e487b7100000000000000000000000000000000000000000000000000000000600052603260045260246000fd5b6000612cbb82612568565b91507fffffffffffffffffffffffffffffffffffffffffffffffffffffffffffffffff8203612ced57612cec612bf5565b5b600182019050919050565b7f4e6f206d696e747320616c6c6f77656400000000000000000000000000000000600082015250565b6000612d2e6010836124c1565b9150612d3982612cf8565b602082019050919050565b60006020820190508181036000830152612d5d81612d21565b9050919050565b6000612d6f82612568565b915060008203612d8257612d81612bf5565b5b600182039050919050565b600081519050919050565b600082825260208201905092915050565b6000612db482612d8d565b612dbe8185612d98565b9350612dce8185602086016124d2565b612dd7816124fc565b840191505092915050565b6000608082019050612df760008301876125fd565b612e0460208301866125fd565b612e116040830185612693565b8181036060830152612e238184612da9565b905095945050505050565b600081519050612e3d81612427565b92915050565b600060208284031215612e5957612e586123f1565b5b6000612e6784828501612e2e565b91505092915050565b600081905092915050565b6000612e86826124b6565b612e908185612e70565b9350612ea08185602086016124d2565b80840191505092915050565b6000612eb88285612e7b565b9150612ec48284612e7b565b91508190509392505050565b60008190508160005260206000209050919050565b60006020601f8301049050919050565b600082821b905092915050565b600060088302612f327fffffffffffffffffffffffffffffffffffffffffffffffffffffffffffffffff82612ef5565b612f3c8683612ef5565b95508019841693508086168417925050509392505050565b6000819050919050565b6000612f79612f74612f6f84612568565b612f54565b612568565b9050919050565b6000819050919050565b612f9383612f5e565b612fa7612f9f82612f80565b848454612f02565b825550505050565b600090565b612fbc612faf565b612fc7818484612f8a565b505050565b5b81811015612feb57612fe0600082612fb4565b600181019050612fcd565b5050565b601f8211156130305761300181612ed0565b61300a84612ee5565b81016020851015613019578190505b61302d61302585612ee5565b830182612fcc565b50505b505050565b600082821c905092915050565b600061305360001984600802613035565b1980831691505092915050565b600061306c8383613042565b9150826002028217905092915050565b613085826124b6565b67ffffffffffffffff81111561309e5761309d612873565b5b6130a88254612b8d565b6130b3828285612fef565b600060209050601f8311600181146130e657600084156130d4578287015190505b6130de8582613060565b865550613146565b601f1984166130f486612ed0565b60005b8281101561311c578489015182556001820191506020850194506020810190506130f7565b868310156131395784890151613135601f891682613042565b8355505b6001600288020188555050505b505050505050565b600061315982612568565b915061316483612568565b925082820390508181111561317c5761317b612bf5565b5b92915050565b7f4e487b7100000000000000000000000000000000000000000000000000000000600052603160045260246000fd5b7f4e487b7100000000000000000000000000000000000000000000000000000000600052601260045260246000fdfea26469706673582212202fc7a9ee1bbfed236d50d0f9c52284b910ce5300a6f28ef708a2838a5d29458b64736f6c63430008180033",
  "linkReferences": {},
  "deployedLinkReferences": {}
}