{
  "_format": "hh-sol-artifact-1",
  "contractName": "Quests",
  "sourceName": "contracts/Quests.sol",
  "abi": [
    {
      "inputs": [
        {
          "internalType": "contract IERC721Enumerable",
          "name": "_nftContract",
          "type": "address"
        }
      ],
      "stateMutability": "nonpayable",
      "type": "constructor"
    },
    {
      "inputs": [
        {
          "internalType": "address",
          "name": "owner",
          "type": "address"
        }
      ],
      "name": "OwnableInvalidOwner",
      "type": "error"
    },
    {
      "inputs": [
        {
          "internalType": "address",
          "name": "account",
          "type": "address"
        }
      ],
      "name": "OwnableUnauthorizedAccount",
      "type": "error"
    },
    {
      "anonymous": false,
      "inputs": [
        {
          "indexed": true,
          "internalType": "address",
          "name": "previousOwner",
          "type": "address"
        },
        {
          "indexed": true,
          "internalType": "address",
          "name": "newOwner",
          "type": "address"
        }
      ],
      "name": "OwnershipTransferred",
      "type": "event"
    },
    {
      "inputs": [
        {
          "internalType": "address",
          "name": "user",
          "type": "address"
        },
        {
          "internalType": "uint256",
          "name": "tokenId",
          "type": "uint256"
        }
      ],
      "name": "addToAllowlist",
      "outputs": [],
      "stateMutability": "nonpayable",
      "type": "function"
    },
    {
      "inputs": [
        {
          "internalType": "address",
          "name": "",
          "type": "address"
        }
      ],
      "name": "allowedUsers",
      "outputs": [
        {
          "internalType": "uint256",
          "name": "",
          "type": "uint256"
        }
      ],
      "stateMutability": "view",
      "type": "function"
    },
    {
      "inputs": [
        {
          "internalType": "address",
          "name": "user",
          "type": "address"
        }
      ],
      "name": "canClaim",
      "outputs": [
        {
          "internalType": "bool",
          "name": "",
          "type": "bool"
        }
      ],
      "stateMutability": "view",
      "type": "function"
    },
    {
      "inputs": [],
      "name": "claimNFT",
      "outputs": [],
      "stateMutability": "nonpayable",
      "type": "function"
    },
    {
      "inputs": [],
      "name": "owner",
      "outputs": [
        {
          "internalType": "address",
          "name": "",
          "type": "address"
        }
      ],
      "stateMutability": "view",
      "type": "function"
    },
    {
      "inputs": [
        {
          "internalType": "address",
          "name": "user",
          "type": "address"
        }
      ],
      "name": "removeFromAllowlist",
      "outputs": [],
      "stateMutability": "nonpayable",
      "type": "function"
    },
    {
      "inputs": [],
      "name": "renounceOwnership",
      "outputs": [],
      "stateMutability": "nonpayable",
      "type": "function"
    },
    {
      "inputs": [
        {
          "internalType": "uint256",
          "name": "",
          "type": "uint256"
        }
      ],
      "name": "traitClaimed",
      "outputs": [
        {
          "internalType": "bool",
          "name": "",
          "type": "bool"
        }
      ],
      "stateMutability": "view",
      "type": "function"
    },
    {
      "inputs": [],
      "name": "traits",
      "outputs": [
        {
          "internalType": "contract IERC721Enumerable",
          "name": "",
          "type": "address"
        }
      ],
      "stateMutability": "view",
      "type": "function"
    },
    {
      "inputs": [
        {
          "internalType": "address",
          "name": "newOwner",
          "type": "address"
        }
      ],
      "name": "transferOwnership",
      "outputs": [],
      "stateMutability": "nonpayable",
      "type": "function"
    }
  ],
  "bytecode": "0x60806040523480156200001157600080fd5b506040516200112a3803806200112a833981810160405281019062000037919062000249565b33600073ffffffffffffffffffffffffffffffffffffffff168173ffffffffffffffffffffffffffffffffffffffff1603620000ad5760006040517f1e4fbdf7000000000000000000000000000000000000000000000000000000008152600401620000a491906200028c565b60405180910390fd5b620000be816200010760201b60201c565b5080600160006101000a81548173ffffffffffffffffffffffffffffffffffffffff021916908373ffffffffffffffffffffffffffffffffffffffff16021790555050620002a9565b60008060009054906101000a900473ffffffffffffffffffffffffffffffffffffffff169050816000806101000a81548173ffffffffffffffffffffffffffffffffffffffff021916908373ffffffffffffffffffffffffffffffffffffffff1602179055508173ffffffffffffffffffffffffffffffffffffffff168173ffffffffffffffffffffffffffffffffffffffff167f8be0079c531659141344cd1fd0a4f28419497f9722a3daafe3b4186f6b6457e060405160405180910390a35050565b600080fd5b600073ffffffffffffffffffffffffffffffffffffffff82169050919050565b6000620001fd82620001d0565b9050919050565b60006200021182620001f0565b9050919050565b620002238162000204565b81146200022f57600080fd5b50565b600081519050620002438162000218565b92915050565b600060208284031215620002625762000261620001cb565b5b6000620002728482850162000232565b91505092915050565b6200028681620001f0565b82525050565b6000602082019050620002a360008301846200027b565b92915050565b610e7180620002b96000396000f3fe608060405234801561001057600080fd5b506004361061009e5760003560e01c8063b285559611610066578063b285559614610121578063bf3506c11461013d578063e1fc334f1461016d578063f2fde38b1461018b578063f3d1306d146101a75761009e565b806357113989146100a35780635da93d7e146100d3578063672756ad146100ef578063715018a6146100f95780638da5cb5b14610103575b600080fd5b6100bd60048036038101906100b89190610999565b6101d7565b6040516100ca91906109e1565b60405180910390f35b6100ed60048036038101906100e89190610a5a565b6101f7565b005b6100f76102f9565b005b6101016105e1565b005b61010b6105f5565b6040516101189190610a96565b60405180910390f35b61013b60048036038101906101369190610ab1565b61061e565b005b61015760048036038101906101529190610a5a565b6106fb565b60405161016491906109e1565b60405180910390f35b610175610747565b6040516101829190610b50565b60405180910390f35b6101a560048036038101906101a09190610a5a565b61076d565b005b6101c160048036038101906101bc9190610a5a565b6107f3565b6040516101ce9190610b7a565b60405180910390f35b60036020528060005260406000206000915054906101000a900460ff1681565b6101ff61080b565b6000600260008373ffffffffffffffffffffffffffffffffffffffff1673ffffffffffffffffffffffffffffffffffffffff16815260200190815260200160002054905060008103610286576040517f08c379a000000000000000000000000000000000000000000000000000000000815260040161027d90610bf2565b60405180910390fd5b600260008373ffffffffffffffffffffffffffffffffffffffff1673ffffffffffffffffffffffffffffffffffffffff1681526020019081526020016000206000905560006003600083815260200190815260200160002060006101000a81548160ff0219169083151502179055505050565b610302336106fb565b610341576040517f08c379a000000000000000000000000000000000000000000000000000000000815260040161033890610c5e565b60405180910390fd5b6000600260003373ffffffffffffffffffffffffffffffffffffffff1673ffffffffffffffffffffffffffffffffffffffff168152602001908152602001600020549050600081036103c8576040517f08c379a00000000000000000000000000000000000000000000000000000000081526004016103bf90610cca565b60405180910390fd5b60006103d26105f5565b90508073ffffffffffffffffffffffffffffffffffffffff16600160009054906101000a900473ffffffffffffffffffffffffffffffffffffffff1673ffffffffffffffffffffffffffffffffffffffff16636352211e846040518263ffffffff1660e01b81526004016104469190610b7a565b602060405180830381865afa158015610463573d6000803e3d6000fd5b505050506040513d601f19601f820116820180604052508101906104879190610cff565b73ffffffffffffffffffffffffffffffffffffffff16146104dd576040517f08c379a00000000000000000000000000000000000000000000000000000000081526004016104d490610d78565b60405180910390fd5b600260003373ffffffffffffffffffffffffffffffffffffffff1673ffffffffffffffffffffffffffffffffffffffff1681526020019081526020016000206000905560016003600084815260200190815260200160002060006101000a81548160ff021916908315150217905550600160009054906101000a900473ffffffffffffffffffffffffffffffffffffffff1673ffffffffffffffffffffffffffffffffffffffff166323b872dd8233856040518463ffffffff1660e01b81526004016105ab93929190610d98565b600060405180830381600087803b1580156105c557600080fd5b505af11580156105d9573d6000803e3d6000fd5b505050505050565b6105e961080b565b6105f36000610892565b565b60008060009054906101000a900473ffffffffffffffffffffffffffffffffffffffff16905090565b61062661080b565b6003600082815260200190815260200160002060009054906101000a900460ff1615610687576040517f08c379a000000000000000000000000000000000000000000000000000000000815260040161067e90610e1b565b60405180910390fd5b80600260008473ffffffffffffffffffffffffffffffffffffffff1673ffffffffffffffffffffffffffffffffffffffff1681526020019081526020016000208190555060016003600083815260200190815260200160002060006101000a81548160ff0219169083151502179055505050565b600080600260008473ffffffffffffffffffffffffffffffffffffffff1673ffffffffffffffffffffffffffffffffffffffff1681526020019081526020016000205414159050919050565b600160009054906101000a900473ffffffffffffffffffffffffffffffffffffffff1681565b61077561080b565b600073ffffffffffffffffffffffffffffffffffffffff168173ffffffffffffffffffffffffffffffffffffffff16036107e75760006040517f1e4fbdf70000000000000000000000000000000000000000000000000000000081526004016107de9190610a96565b60405180910390fd5b6107f081610892565b50565b60026020528060005260406000206000915090505481565b610813610956565b73ffffffffffffffffffffffffffffffffffffffff166108316105f5565b73ffffffffffffffffffffffffffffffffffffffff161461089057610854610956565b6040517f118cdaa70000000000000000000000000000000000000000000000000000000081526004016108879190610a96565b60405180910390fd5b565b60008060009054906101000a900473ffffffffffffffffffffffffffffffffffffffff169050816000806101000a81548173ffffffffffffffffffffffffffffffffffffffff021916908373ffffffffffffffffffffffffffffffffffffffff1602179055508173ffffffffffffffffffffffffffffffffffffffff168173ffffffffffffffffffffffffffffffffffffffff167f8be0079c531659141344cd1fd0a4f28419497f9722a3daafe3b4186f6b6457e060405160405180910390a35050565b600033905090565b600080fd5b6000819050919050565b61097681610963565b811461098157600080fd5b50565b6000813590506109938161096d565b92915050565b6000602082840312156109af576109ae61095e565b5b60006109bd84828501610984565b91505092915050565b60008115159050919050565b6109db816109c6565b82525050565b60006020820190506109f660008301846109d2565b92915050565b600073ffffffffffffffffffffffffffffffffffffffff82169050919050565b6000610a27826109fc565b9050919050565b610a3781610a1c565b8114610a4257600080fd5b50565b600081359050610a5481610a2e565b92915050565b600060208284031215610a7057610a6f61095e565b5b6000610a7e84828501610a45565b91505092915050565b610a9081610a1c565b82525050565b6000602082019050610aab6000830184610a87565b92915050565b60008060408385031215610ac857610ac761095e565b5b6000610ad685828601610a45565b9250506020610ae785828601610984565b9150509250929050565b6000819050919050565b6000610b16610b11610b0c846109fc565b610af1565b6109fc565b9050919050565b6000610b2882610afb565b9050919050565b6000610b3a82610b1d565b9050919050565b610b4a81610b2f565b82525050565b6000602082019050610b656000830184610b41565b92915050565b610b7481610963565b82525050565b6000602082019050610b8f6000830184610b6b565b92915050565b600082825260208201905092915050565b7f5573657220686173206e6f2061737369676e6564204e46540000000000000000600082015250565b6000610bdc601883610b95565b9150610be782610ba6565b602082019050919050565b60006020820190508181036000830152610c0b81610bcf565b9050919050565b7f4e6f7420656c696769626c6520746f20636c61696d204e465400000000000000600082015250565b6000610c48601983610b95565b9150610c5382610c12565b602082019050919050565b60006020820190508181036000830152610c7781610c3b565b9050919050565b7f4e6f204e46542061737369676e656420746f20636c61696d0000000000000000600082015250565b6000610cb4601883610b95565b9150610cbf82610c7e565b602082019050919050565b60006020820190508181036000830152610ce381610ca7565b9050919050565b600081519050610cf981610a2e565b92915050565b600060208284031215610d1557610d1461095e565b5b6000610d2384828501610cea565b91505092915050565b7f4f776e657220646f6573206e6f74206f776e20746865204e4654000000000000600082015250565b6000610d62601a83610b95565b9150610d6d82610d2c565b602082019050919050565b60006020820190508181036000830152610d9181610d55565b9050919050565b6000606082019050610dad6000830186610a87565b610dba6020830185610a87565b610dc76040830184610b6b565b949350505050565b7f4e465420616c726561647920636c61696d6564206f722061737369676e656400600082015250565b6000610e05601f83610b95565b9150610e1082610dcf565b602082019050919050565b60006020820190508181036000830152610e3481610df8565b905091905056fea264697066735822122078bede298aeeb9d44f182eb135ab2a2a6bcebdf7d384fad08cfa60254af93de964736f6c63430008180033",
  "linkReferences": {},
  "deployedLinkReferences": {}
}