{
  "_format": "hh-sol-artifact-1",
  "contractName": "SafeMint",
  "sourceName": "contracts/SafeMint.sol",
  "abi": [
    {
      "inputs": [
        {
          "internalType": "address",
          "name": "_trustedBackendSigner",
          "type": "address"
        }
      ],
      "stateMutability": "nonpayable",
      "type": "constructor"
    },
    {
      "inputs": [],
      "name": "ECDSAInvalidSignature",
      "type": "error"
    },
    {
      "inputs": [
        {
          "internalType": "uint256",
          "name": "length",
          "type": "uint256"
        }
      ],
      "name": "ECDSAInvalidSignatureLength",
      "type": "error"
    },
    {
      "inputs": [
        {
          "internalType": "bytes32",
          "name": "s",
          "type": "bytes32"
        }
      ],
      "name": "ECDSAInvalidSignatureS",
      "type": "error"
    },
    {
      "inputs": [
        {
          "internalType": "address",
          "name": "sender",
          "type": "address"
        },
        {
          "internalType": "uint256",
          "name": "tokenId",
          "type": "uint256"
        },
        {
          "internalType": "address",
          "name": "owner",
          "type": "address"
        }
      ],
      "name": "ERC721IncorrectOwner",
      "type": "error"
    },
    {
      "inputs": [
        {
          "internalType": "address",
          "name": "operator",
          "type": "address"
        },
        {
          "internalType": "uint256",
          "name": "tokenId",
          "type": "uint256"
        }
      ],
      "name": "ERC721InsufficientApproval",
      "type": "error"
    },
    {
      "inputs": [
        {
          "internalType": "address",
          "name": "approver",
          "type": "address"
        }
      ],
      "name": "ERC721InvalidApprover",
      "type": "error"
    },
    {
      "inputs": [
        {
          "internalType": "address",
          "name": "operator",
          "type": "address"
        }
      ],
      "name": "ERC721InvalidOperator",
      "type": "error"
    },
    {
      "inputs": [
        {
          "internalType": "address",
          "name": "owner",
          "type": "address"
        }
      ],
      "name": "ERC721InvalidOwner",
      "type": "error"
    },
    {
      "inputs": [
        {
          "internalType": "address",
          "name": "receiver",
          "type": "address"
        }
      ],
      "name": "ERC721InvalidReceiver",
      "type": "error"
    },
    {
      "inputs": [
        {
          "internalType": "address",
          "name": "sender",
          "type": "address"
        }
      ],
      "name": "ERC721InvalidSender",
      "type": "error"
    },
    {
      "inputs": [
        {
          "internalType": "uint256",
          "name": "tokenId",
          "type": "uint256"
        }
      ],
      "name": "ERC721NonexistentToken",
      "type": "error"
    },
    {
      "anonymous": false,
      "inputs": [
        {
          "indexed": true,
          "internalType": "address",
          "name": "owner",
          "type": "address"
        },
        {
          "indexed": true,
          "internalType": "address",
          "name": "approved",
          "type": "address"
        },
        {
          "indexed": true,
          "internalType": "uint256",
          "name": "tokenId",
          "type": "uint256"
        }
      ],
      "name": "Approval",
      "type": "event"
    },
    {
      "anonymous": false,
      "inputs": [
        {
          "indexed": true,
          "internalType": "address",
          "name": "owner",
          "type": "address"
        },
        {
          "indexed": true,
          "internalType": "address",
          "name": "operator",
          "type": "address"
        },
        {
          "indexed": false,
          "internalType": "bool",
          "name": "approved",
          "type": "bool"
        }
      ],
      "name": "ApprovalForAll",
      "type": "event"
    },
    {
      "anonymous": false,
      "inputs": [
        {
          "indexed": true,
          "internalType": "address",
          "name": "from",
          "type": "address"
        },
        {
          "indexed": true,
          "internalType": "address",
          "name": "to",
          "type": "address"
        },
        {
          "indexed": true,
          "internalType": "uint256",
          "name": "tokenId",
          "type": "uint256"
        }
      ],
      "name": "Transfer",
      "type": "event"
    },
    {
      "inputs": [],
      "name": "admin",
      "outputs": [
        {
          "internalType": "address",
          "name": "",
          "type": "address"
        }
      ],
      "stateMutability": "view",
      "type": "function"
    },
    {
      "inputs": [
        {
          "internalType": "address",
          "name": "to",
          "type": "address"
        },
        {
          "internalType": "uint256",
          "name": "tokenId",
          "type": "uint256"
        }
      ],
      "name": "approve",
      "outputs": [],
      "stateMutability": "nonpayable",
      "type": "function"
    },
    {
      "inputs": [
        {
          "internalType": "address",
          "name": "owner",
          "type": "address"
        }
      ],
      "name": "balanceOf",
      "outputs": [
        {
          "internalType": "uint256",
          "name": "",
          "type": "uint256"
        }
      ],
      "stateMutability": "view",
      "type": "function"
    },
    {
      "inputs": [
        {
          "internalType": "uint256",
          "name": "tokenId",
          "type": "uint256"
        }
      ],
      "name": "getApproved",
      "outputs": [
        {
          "internalType": "address",
          "name": "",
          "type": "address"
        }
      ],
      "stateMutability": "view",
      "type": "function"
    },
    {
      "inputs": [
        {
          "internalType": "address",
          "name": "owner",
          "type": "address"
        },
        {
          "internalType": "address",
          "name": "operator",
          "type": "address"
        }
      ],
      "name": "isApprovedForAll",
      "outputs": [
        {
          "internalType": "bool",
          "name": "",
          "type": "bool"
        }
      ],
      "stateMutability": "view",
      "type": "function"
    },
    {
      "inputs": [
        {
          "internalType": "bytes32",
          "name": "_messageHash",
          "type": "bytes32"
        },
        {
          "internalType": "bytes",
          "name": "_signature",
          "type": "bytes"
        }
      ],
      "name": "mintNFT",
      "outputs": [],
      "stateMutability": "nonpayable",
      "type": "function"
    },
    {
      "inputs": [],
      "name": "name",
      "outputs": [
        {
          "internalType": "string",
          "name": "",
          "type": "string"
        }
      ],
      "stateMutability": "view",
      "type": "function"
    },
    {
      "inputs": [
        {
          "internalType": "uint256",
          "name": "tokenId",
          "type": "uint256"
        }
      ],
      "name": "ownerOf",
      "outputs": [
        {
          "internalType": "address",
          "name": "",
          "type": "address"
        }
      ],
      "stateMutability": "view",
      "type": "function"
    },
    {
      "inputs": [
        {
          "internalType": "address",
          "name": "from",
          "type": "address"
        },
        {
          "internalType": "address",
          "name": "to",
          "type": "address"
        },
        {
          "internalType": "uint256",
          "name": "tokenId",
          "type": "uint256"
        }
      ],
      "name": "safeTransferFrom",
      "outputs": [],
      "stateMutability": "nonpayable",
      "type": "function"
    },
    {
      "inputs": [
        {
          "internalType": "address",
          "name": "from",
          "type": "address"
        },
        {
          "internalType": "address",
          "name": "to",
          "type": "address"
        },
        {
          "internalType": "uint256",
          "name": "tokenId",
          "type": "uint256"
        },
        {
          "internalType": "bytes",
          "name": "data",
          "type": "bytes"
        }
      ],
      "name": "safeTransferFrom",
      "outputs": [],
      "stateMutability": "nonpayable",
      "type": "function"
    },
    {
      "inputs": [
        {
          "internalType": "address",
          "name": "operator",
          "type": "address"
        },
        {
          "internalType": "bool",
          "name": "approved",
          "type": "bool"
        }
      ],
      "name": "setApprovalForAll",
      "outputs": [],
      "stateMutability": "nonpayable",
      "type": "function"
    },
    {
      "inputs": [
        {
          "internalType": "bytes4",
          "name": "interfaceId",
          "type": "bytes4"
        }
      ],
      "name": "supportsInterface",
      "outputs": [
        {
          "internalType": "bool",
          "name": "",
          "type": "bool"
        }
      ],
      "stateMutability": "view",
      "type": "function"
    },
    {
      "inputs": [],
      "name": "symbol",
      "outputs": [
        {
          "internalType": "string",
          "name": "",
          "type": "string"
        }
      ],
      "stateMutability": "view",
      "type": "function"
    },
    {
      "inputs": [],
      "name": "tokenIdCounter",
      "outputs": [
        {
          "internalType": "uint256",
          "name": "",
          "type": "uint256"
        }
      ],
      "stateMutability": "view",
      "type": "function"
    },
    {
      "inputs": [
        {
          "internalType": "uint256",
          "name": "tokenId",
          "type": "uint256"
        }
      ],
      "name": "tokenURI",
      "outputs": [
        {
          "internalType": "string",
          "name": "",
          "type": "string"
        }
      ],
      "stateMutability": "view",
      "type": "function"
    },
    {
      "inputs": [
        {
          "internalType": "address",
          "name": "from",
          "type": "address"
        },
        {
          "internalType": "address",
          "name": "to",
          "type": "address"
        },
        {
          "internalType": "uint256",
          "name": "tokenId",
          "type": "uint256"
        }
      ],
      "name": "transferFrom",
      "outputs": [],
      "stateMutability": "nonpayable",
      "type": "function"
    },
    {
      "inputs": [],
      "name": "trustedBackendSigner",
      "outputs": [
        {
          "internalType": "address",
          "name": "",
          "type": "address"
        }
      ],
      "stateMutability": "view",
      "type": "function"
    },
    {
      "inputs": [
        {
          "internalType": "address",
          "name": "newSigner",
          "type": "address"
        }
      ],
      "name": "updateTrustedBackendSigner",
      "outputs": [],
      "stateMutability": "nonpayable",
      "type": "function"
    }
  ],
  "bytecode": "0x60806040523480156200001157600080fd5b5060405162002b4338038062002b438339818101604052810190620000379190620001c4565b6040518060400160405280600881526020017f51756573744e46540000000000000000000000000000000000000000000000008152506040518060400160405280600481526020017f514e4654000000000000000000000000000000000000000000000000000000008152508160009081620000b4919062000470565b508060019081620000c6919062000470565b50505033600660006101000a81548173ffffffffffffffffffffffffffffffffffffffff021916908373ffffffffffffffffffffffffffffffffffffffff16021790555080600760006101000a81548173ffffffffffffffffffffffffffffffffffffffff021916908373ffffffffffffffffffffffffffffffffffffffff16021790555060016008819055505062000557565b600080fd5b600073ffffffffffffffffffffffffffffffffffffffff82169050919050565b60006200018c826200015f565b9050919050565b6200019e816200017f565b8114620001aa57600080fd5b50565b600081519050620001be8162000193565b92915050565b600060208284031215620001dd57620001dc6200015a565b5b6000620001ed84828501620001ad565b91505092915050565b600081519050919050565b7f4e487b7100000000000000000000000000000000000000000000000000000000600052604160045260246000fd5b7f4e487b7100000000000000000000000000000000000000000000000000000000600052602260045260246000fd5b600060028204905060018216806200027857607f821691505b6020821081036200028e576200028d62000230565b5b50919050565b60008190508160005260206000209050919050565b60006020601f8301049050919050565b600082821b905092915050565b600060088302620002f87fffffffffffffffffffffffffffffffffffffffffffffffffffffffffffffffff82620002b9565b620003048683620002b9565b95508019841693508086168417925050509392505050565b6000819050919050565b6000819050919050565b6000620003516200034b62000345846200031c565b62000326565b6200031c565b9050919050565b6000819050919050565b6200036d8362000330565b620003856200037c8262000358565b848454620002c6565b825550505050565b600090565b6200039c6200038d565b620003a981848462000362565b505050565b5b81811015620003d157620003c560008262000392565b600181019050620003af565b5050565b601f8211156200042057620003ea8162000294565b620003f584620002a9565b8101602085101562000405578190505b6200041d6200041485620002a9565b830182620003ae565b50505b505050565b600082821c905092915050565b6000620004456000198460080262000425565b1980831691505092915050565b600062000460838362000432565b9150826002028217905092915050565b6200047b82620001f6565b67ffffffffffffffff81111562000497576200049662000201565b5b620004a382546200025f565b620004b0828285620003d5565b600060209050601f831160018114620004e85760008415620004d3578287015190505b620004df858262000452565b8655506200054f565b601f198416620004f88662000294565b60005b828110156200052257848901518255600182019150602085019450602081019050620004fb565b868310156200054257848901516200053e601f89168262000432565b8355505b6001600288020188555050505b505050505050565b6125dc80620005676000396000f3fe608060405234801561001057600080fd5b50600436106101165760003560e01c80636352211e116100a2578063a22cb46511610071578063a22cb465146102df578063b88d4fde146102fb578063c87b56dd14610317578063e985e9c514610347578063f851a4401461037757610116565b80636352211e1461024357806370a082311461027357806395d89b41146102a357806398bdf6f5146102c157610116565b806323b872dd116100e957806323b872dd146101b557806342842e0e146101d157806346491a48146101ed5780634bb8cc471461020b578063523a5b381461022757610116565b806301ffc9a71461011b57806306fdde031461014b578063081812fc14610169578063095ea7b314610199575b600080fd5b61013560048036038101906101309190611b65565b610395565b6040516101429190611bad565b60405180910390f35b610153610477565b6040516101609190611c58565b60405180910390f35b610183600480360381019061017e9190611cb0565b610509565b6040516101909190611d1e565b60405180910390f35b6101b360048036038101906101ae9190611d65565b610525565b005b6101cf60048036038101906101ca9190611da5565b61053b565b005b6101eb60048036038101906101e69190611da5565b61063d565b005b6101f561065d565b6040516102029190611d1e565b60405180910390f35b61022560048036038101906102209190611f63565b610683565b005b610241600480360381019061023c9190611fbf565b61074a565b005b61025d60048036038101906102589190611cb0565b61081e565b60405161026a9190611d1e565b60405180910390f35b61028d60048036038101906102889190611fbf565b610830565b60405161029a9190611ffb565b60405180910390f35b6102ab6108ea565b6040516102b89190611c58565b60405180910390f35b6102c961097c565b6040516102d69190611ffb565b60405180910390f35b6102f960048036038101906102f49190612042565b610982565b005b61031560048036038101906103109190612082565b610998565b005b610331600480360381019061032c9190611cb0565b6109b5565b60405161033e9190611c58565b60405180910390f35b610361600480360381019061035c9190612105565b610a1e565b60405161036e9190611bad565b60405180910390f35b61037f610ab2565b60405161038c9190611d1e565b60405180910390f35b60007f80ac58cd000000000000000000000000000000000000000000000000000000007bffffffffffffffffffffffffffffffffffffffffffffffffffffffff1916827bffffffffffffffffffffffffffffffffffffffffffffffffffffffff1916148061046057507f5b5e139f000000000000000000000000000000000000000000000000000000007bffffffffffffffffffffffffffffffffffffffffffffffffffffffff1916827bffffffffffffffffffffffffffffffffffffffffffffffffffffffff1916145b80610470575061046f82610ad8565b5b9050919050565b60606000805461048690612174565b80601f01602080910402602001604051908101604052809291908181526020018280546104b290612174565b80156104ff5780601f106104d4576101008083540402835291602001916104ff565b820191906000526020600020905b8154815290600101906020018083116104e257829003601f168201915b5050505050905090565b600061051482610b42565b5061051e82610bca565b9050919050565b6105378282610532610c07565b610c0f565b5050565b600073ffffffffffffffffffffffffffffffffffffffff168273ffffffffffffffffffffffffffffffffffffffff16036105ad5760006040517f64a0ae920000000000000000000000000000000000000000000000000000000081526004016105a49190611d1e565b60405180910390fd5b60006105c183836105bc610c07565b610c21565b90508373ffffffffffffffffffffffffffffffffffffffff168173ffffffffffffffffffffffffffffffffffffffff1614610637578382826040517f64283d7b00000000000000000000000000000000000000000000000000000000815260040161062e939291906121a5565b60405180910390fd5b50505050565b61065883838360405180602001604052806000815250610998565b505050565b600760009054906101000a900473ffffffffffffffffffffffffffffffffffffffff1681565b600061068f8383610e3b565b9050600760009054906101000a900473ffffffffffffffffffffffffffffffffffffffff1673ffffffffffffffffffffffffffffffffffffffff168173ffffffffffffffffffffffffffffffffffffffff1614610721576040517f08c379a000000000000000000000000000000000000000000000000000000000815260040161071890612228565b60405180910390fd5b61072d33600854610e67565b6008600081548092919061074090612277565b9190505550505050565b600660009054906101000a900473ffffffffffffffffffffffffffffffffffffffff1673ffffffffffffffffffffffffffffffffffffffff163373ffffffffffffffffffffffffffffffffffffffff16146107da576040517f08c379a00000000000000000000000000000000000000000000000000000000081526004016107d190612331565b60405180910390fd5b80600760006101000a81548173ffffffffffffffffffffffffffffffffffffffff021916908373ffffffffffffffffffffffffffffffffffffffff16021790555050565b600061082982610b42565b9050919050565b60008073ffffffffffffffffffffffffffffffffffffffff168273ffffffffffffffffffffffffffffffffffffffff16036108a35760006040517f89c62b6400000000000000000000000000000000000000000000000000000000815260040161089a9190611d1e565b60405180910390fd5b600360008373ffffffffffffffffffffffffffffffffffffffff1673ffffffffffffffffffffffffffffffffffffffff168152602001908152602001600020549050919050565b6060600180546108f990612174565b80601f016020809104026020016040519081016040528092919081815260200182805461092590612174565b80156109725780601f1061094757610100808354040283529160200191610972565b820191906000526020600020905b81548152906001019060200180831161095557829003601f168201915b5050505050905090565b60085481565b61099461098d610c07565b8383610f60565b5050565b6109a384848461053b565b6109af848484846110cf565b50505050565b60606109c082610b42565b5060006109cb611286565b905060008151116109eb5760405180602001604052806000815250610a16565b806109f58461129d565b604051602001610a0692919061238d565b6040516020818303038152906040525b915050919050565b6000600560008473ffffffffffffffffffffffffffffffffffffffff1673ffffffffffffffffffffffffffffffffffffffff16815260200190815260200160002060008373ffffffffffffffffffffffffffffffffffffffff1673ffffffffffffffffffffffffffffffffffffffff16815260200190815260200160002060009054906101000a900460ff16905092915050565b600660009054906101000a900473ffffffffffffffffffffffffffffffffffffffff1681565b60007f01ffc9a7000000000000000000000000000000000000000000000000000000007bffffffffffffffffffffffffffffffffffffffffffffffffffffffff1916827bffffffffffffffffffffffffffffffffffffffffffffffffffffffff1916149050919050565b600080610b4e8361136b565b9050600073ffffffffffffffffffffffffffffffffffffffff168173ffffffffffffffffffffffffffffffffffffffff1603610bc157826040517f7e273289000000000000000000000000000000000000000000000000000000008152600401610bb89190611ffb565b60405180910390fd5b80915050919050565b60006004600083815260200190815260200160002060009054906101000a900473ffffffffffffffffffffffffffffffffffffffff169050919050565b600033905090565b610c1c83838360016113a8565b505050565b600080610c2d8461136b565b9050600073ffffffffffffffffffffffffffffffffffffffff168373ffffffffffffffffffffffffffffffffffffffff1614610c6f57610c6e81848661156d565b5b600073ffffffffffffffffffffffffffffffffffffffff168173ffffffffffffffffffffffffffffffffffffffff1614610d0057610cb16000856000806113a8565b6001600360008373ffffffffffffffffffffffffffffffffffffffff1673ffffffffffffffffffffffffffffffffffffffff168152602001908152602001600020600082825403925050819055505b600073ffffffffffffffffffffffffffffffffffffffff168573ffffffffffffffffffffffffffffffffffffffff1614610d83576001600360008773ffffffffffffffffffffffffffffffffffffffff1673ffffffffffffffffffffffffffffffffffffffff168152602001908152602001600020600082825401925050819055505b846002600086815260200190815260200160002060006101000a81548173ffffffffffffffffffffffffffffffffffffffff021916908373ffffffffffffffffffffffffffffffffffffffff160217905550838573ffffffffffffffffffffffffffffffffffffffff168273ffffffffffffffffffffffffffffffffffffffff167fddf252ad1be2c89b69c2b068fc378daa952ba7f163c4a11628f55a4df523b3ef60405160405180910390a4809150509392505050565b600080600080610e4b8686611631565b925092509250610e5b828261168d565b82935050505092915050565b600073ffffffffffffffffffffffffffffffffffffffff168273ffffffffffffffffffffffffffffffffffffffff1603610ed95760006040517f64a0ae92000000000000000000000000000000000000000000000000000000008152600401610ed09190611d1e565b60405180910390fd5b6000610ee783836000610c21565b9050600073ffffffffffffffffffffffffffffffffffffffff168173ffffffffffffffffffffffffffffffffffffffff1614610f5b5760006040517f73c6ac6e000000000000000000000000000000000000000000000000000000008152600401610f529190611d1e565b60405180910390fd5b505050565b600073ffffffffffffffffffffffffffffffffffffffff168273ffffffffffffffffffffffffffffffffffffffff1603610fd157816040517f5b08ba18000000000000000000000000000000000000000000000000000000008152600401610fc89190611d1e565b60405180910390fd5b80600560008573ffffffffffffffffffffffffffffffffffffffff1673ffffffffffffffffffffffffffffffffffffffff16815260200190815260200160002060008473ffffffffffffffffffffffffffffffffffffffff1673ffffffffffffffffffffffffffffffffffffffff16815260200190815260200160002060006101000a81548160ff0219169083151502179055508173ffffffffffffffffffffffffffffffffffffffff168373ffffffffffffffffffffffffffffffffffffffff167f17307eab39ab6107e8899845ad3d59bd9653f200f220920489ca2b5937696c31836040516110c29190611bad565b60405180910390a3505050565b60008373ffffffffffffffffffffffffffffffffffffffff163b1115611280578273ffffffffffffffffffffffffffffffffffffffff1663150b7a02611113610c07565b8685856040518563ffffffff1660e01b81526004016111359493929190612406565b6020604051808303816000875af192505050801561117157506040513d601f19601f8201168201806040525081019061116e9190612467565b60015b6111f5573d80600081146111a1576040519150601f19603f3d011682016040523d82523d6000602084013e6111a6565b606091505b5060008151036111ed57836040517f64a0ae920000000000000000000000000000000000000000000000000000000081526004016111e49190611d1e565b60405180910390fd5b805181602001fd5b63150b7a0260e01b7bffffffffffffffffffffffffffffffffffffffffffffffffffffffff1916817bffffffffffffffffffffffffffffffffffffffffffffffffffffffff19161461127e57836040517f64a0ae920000000000000000000000000000000000000000000000000000000081526004016112759190611d1e565b60405180910390fd5b505b50505050565b606060405180602001604052806000815250905090565b6060600060016112ac846117f1565b01905060008167ffffffffffffffff8111156112cb576112ca611e38565b5b6040519080825280601f01601f1916602001820160405280156112fd5781602001600182028036833780820191505090505b509050600082602001820190505b600115611360578080600190039150507f3031323334353637383961626364656600000000000000000000000000000000600a86061a8153600a858161135457611353612494565b5b0494506000850361130b575b819350505050919050565b60006002600083815260200190815260200160002060009054906101000a900473ffffffffffffffffffffffffffffffffffffffff169050919050565b80806113e15750600073ffffffffffffffffffffffffffffffffffffffff168273ffffffffffffffffffffffffffffffffffffffff1614155b156115155760006113f184610b42565b9050600073ffffffffffffffffffffffffffffffffffffffff168373ffffffffffffffffffffffffffffffffffffffff161415801561145c57508273ffffffffffffffffffffffffffffffffffffffff168173ffffffffffffffffffffffffffffffffffffffff1614155b801561146f575061146d8184610a1e565b155b156114b157826040517fa9fbf51f0000000000000000000000000000000000000000000000000000000081526004016114a89190611d1e565b60405180910390fd5b811561151357838573ffffffffffffffffffffffffffffffffffffffff168273ffffffffffffffffffffffffffffffffffffffff167f8c5be1e5ebec7d5bd14f71427d1e84f3dd0314c0f7b2291e5b200ac8c7c3b92560405160405180910390a45b505b836004600085815260200190815260200160002060006101000a81548173ffffffffffffffffffffffffffffffffffffffff021916908373ffffffffffffffffffffffffffffffffffffffff16021790555050505050565b611578838383611944565b61162c57600073ffffffffffffffffffffffffffffffffffffffff168373ffffffffffffffffffffffffffffffffffffffff16036115ed57806040517f7e2732890000000000000000000000000000000000000000000000000000000081526004016115e49190611ffb565b60405180910390fd5b81816040517f177e802f0000000000000000000000000000000000000000000000000000000081526004016116239291906124c3565b60405180910390fd5b505050565b600080600060418451036116765760008060006020870151925060408701519150606087015160001a905061166888828585611a05565b955095509550505050611686565b60006002855160001b9250925092505b9250925092565b600060038111156116a1576116a06124ec565b5b8260038111156116b4576116b36124ec565b5b03156117ed57600160038111156116ce576116cd6124ec565b5b8260038111156116e1576116e06124ec565b5b03611718576040517ff645eedf00000000000000000000000000000000000000000000000000000000815260040160405180910390fd5b6002600381111561172c5761172b6124ec565b5b82600381111561173f5761173e6124ec565b5b03611784578060001c6040517ffce698f700000000000000000000000000000000000000000000000000000000815260040161177b9190611ffb565b60405180910390fd5b600380811115611797576117966124ec565b5b8260038111156117aa576117a96124ec565b5b036117ec57806040517fd78bce0c0000000000000000000000000000000000000000000000000000000081526004016117e3919061252a565b60405180910390fd5b5b5050565b600080600090507a184f03e93ff9f4daa797ed6e38ed64bf6a1f010000000000000000831061184f577a184f03e93ff9f4daa797ed6e38ed64bf6a1f010000000000000000838161184557611844612494565b5b0492506040810190505b6d04ee2d6d415b85acef8100000000831061188c576d04ee2d6d415b85acef8100000000838161188257611881612494565b5b0492506020810190505b662386f26fc1000083106118bb57662386f26fc1000083816118b1576118b0612494565b5b0492506010810190505b6305f5e10083106118e4576305f5e10083816118da576118d9612494565b5b0492506008810190505b61271083106119095761271083816118ff576118fe612494565b5b0492506004810190505b6064831061192c576064838161192257611921612494565b5b0492506002810190505b600a831061193b576001810190505b80915050919050565b60008073ffffffffffffffffffffffffffffffffffffffff168373ffffffffffffffffffffffffffffffffffffffff16141580156119fc57508273ffffffffffffffffffffffffffffffffffffffff168473ffffffffffffffffffffffffffffffffffffffff1614806119bd57506119bc8484610a1e565b5b806119fb57508273ffffffffffffffffffffffffffffffffffffffff166119e383610bca565b73ffffffffffffffffffffffffffffffffffffffff16145b5b90509392505050565b60008060007f7fffffffffffffffffffffffffffffff5d576e7357a4501ddfe92f46681b20a08460001c1115611a45576000600385925092509250611aef565b600060018888888860405160008152602001604052604051611a6a9493929190612561565b6020604051602081039080840390855afa158015611a8c573d6000803e3d6000fd5b505050602060405103519050600073ffffffffffffffffffffffffffffffffffffffff168173ffffffffffffffffffffffffffffffffffffffff1603611ae057600060016000801b93509350935050611aef565b8060008060001b935093509350505b9450945094915050565b6000604051905090565b600080fd5b600080fd5b60007fffffffff0000000000000000000000000000000000000000000000000000000082169050919050565b611b4281611b0d565b8114611b4d57600080fd5b50565b600081359050611b5f81611b39565b92915050565b600060208284031215611b7b57611b7a611b03565b5b6000611b8984828501611b50565b91505092915050565b60008115159050919050565b611ba781611b92565b82525050565b6000602082019050611bc26000830184611b9e565b92915050565b600081519050919050565b600082825260208201905092915050565b60005b83811015611c02578082015181840152602081019050611be7565b60008484015250505050565b6000601f19601f8301169050919050565b6000611c2a82611bc8565b611c348185611bd3565b9350611c44818560208601611be4565b611c4d81611c0e565b840191505092915050565b60006020820190508181036000830152611c728184611c1f565b905092915050565b6000819050919050565b611c8d81611c7a565b8114611c9857600080fd5b50565b600081359050611caa81611c84565b92915050565b600060208284031215611cc657611cc5611b03565b5b6000611cd484828501611c9b565b91505092915050565b600073ffffffffffffffffffffffffffffffffffffffff82169050919050565b6000611d0882611cdd565b9050919050565b611d1881611cfd565b82525050565b6000602082019050611d336000830184611d0f565b92915050565b611d4281611cfd565b8114611d4d57600080fd5b50565b600081359050611d5f81611d39565b92915050565b60008060408385031215611d7c57611d7b611b03565b5b6000611d8a85828601611d50565b9250506020611d9b85828601611c9b565b9150509250929050565b600080600060608486031215611dbe57611dbd611b03565b5b6000611dcc86828701611d50565b9350506020611ddd86828701611d50565b9250506040611dee86828701611c9b565b9150509250925092565b6000819050919050565b611e0b81611df8565b8114611e1657600080fd5b50565b600081359050611e2881611e02565b92915050565b600080fd5b600080fd5b7f4e487b7100000000000000000000000000000000000000000000000000000000600052604160045260246000fd5b611e7082611c0e565b810181811067ffffffffffffffff82111715611e8f57611e8e611e38565b5b80604052505050565b6000611ea2611af9565b9050611eae8282611e67565b919050565b600067ffffffffffffffff821115611ece57611ecd611e38565b5b611ed782611c0e565b9050602081019050919050565b82818337600083830152505050565b6000611f06611f0184611eb3565b611e98565b905082815260208101848484011115611f2257611f21611e33565b5b611f2d848285611ee4565b509392505050565b600082601f830112611f4a57611f49611e2e565b5b8135611f5a848260208601611ef3565b91505092915050565b60008060408385031215611f7a57611f79611b03565b5b6000611f8885828601611e19565b925050602083013567ffffffffffffffff811115611fa957611fa8611b08565b5b611fb585828601611f35565b9150509250929050565b600060208284031215611fd557611fd4611b03565b5b6000611fe384828501611d50565b91505092915050565b611ff581611c7a565b82525050565b60006020820190506120106000830184611fec565b92915050565b61201f81611b92565b811461202a57600080fd5b50565b60008135905061203c81612016565b92915050565b6000806040838503121561205957612058611b03565b5b600061206785828601611d50565b92505060206120788582860161202d565b9150509250929050565b6000806000806080858703121561209c5761209b611b03565b5b60006120aa87828801611d50565b94505060206120bb87828801611d50565b93505060406120cc87828801611c9b565b925050606085013567ffffffffffffffff8111156120ed576120ec611b08565b5b6120f987828801611f35565b91505092959194509250565b6000806040838503121561211c5761211b611b03565b5b600061212a85828601611d50565b925050602061213b85828601611d50565b9150509250929050565b7f4e487b7100000000000000000000000000000000000000000000000000000000600052602260045260246000fd5b6000600282049050600182168061218c57607f821691505b60208210810361219f5761219e612145565b5b50919050565b60006060820190506121ba6000830186611d0f565b6121c76020830185611fec565b6121d46040830184611d0f565b949350505050565b7f496e76616c6964207369676e6174757265000000000000000000000000000000600082015250565b6000612212601183611bd3565b915061221d826121dc565b602082019050919050565b6000602082019050818103600083015261224181612205565b9050919050565b7f4e487b7100000000000000000000000000000000000000000000000000000000600052601160045260246000fd5b600061228282611c7a565b91507fffffffffffffffffffffffffffffffffffffffffffffffffffffffffffffffff82036122b4576122b3612248565b5b600182019050919050565b7f4f6e6c792061646d696e2063616e20757064617465207468652074727573746560008201527f64206261636b656e64207369676e657200000000000000000000000000000000602082015250565b600061231b603083611bd3565b9150612326826122bf565b604082019050919050565b6000602082019050818103600083015261234a8161230e565b9050919050565b600081905092915050565b600061236782611bc8565b6123718185612351565b9350612381818560208601611be4565b80840191505092915050565b6000612399828561235c565b91506123a5828461235c565b91508190509392505050565b600081519050919050565b600082825260208201905092915050565b60006123d8826123b1565b6123e281856123bc565b93506123f2818560208601611be4565b6123fb81611c0e565b840191505092915050565b600060808201905061241b6000830187611d0f565b6124286020830186611d0f565b6124356040830185611fec565b818103606083015261244781846123cd565b905095945050505050565b60008151905061246181611b39565b92915050565b60006020828403121561247d5761247c611b03565b5b600061248b84828501612452565b91505092915050565b7f4e487b7100000000000000000000000000000000000000000000000000000000600052601260045260246000fd5b60006040820190506124d86000830185611d0f565b6124e56020830184611fec565b9392505050565b7f4e487b7100000000000000000000000000000000000000000000000000000000600052602160045260246000fd5b61252481611df8565b82525050565b600060208201905061253f600083018461251b565b92915050565b600060ff82169050919050565b61255b81612545565b82525050565b6000608082019050612576600083018761251b565b6125836020830186612552565b612590604083018561251b565b61259d606083018461251b565b9594505050505056fea2646970667358221220bc8063cab4d00983f903aebea5e9c2574283c39042d3928c5c8ab5581b5ab57a64736f6c63430008180033",
  "linkReferences": {},
  "deployedLinkReferences": {}
}