{
  "_format": "hh-sol-artifact-1",
  "contractName": "SolarSeekerTraits",
  "sourceName": "contracts/SolarSeekerTraits.sol",
  "address": "0x6C1D44C358dF67f401ff570b684A0B4167B58063",
  "abi": [
    {
      "inputs": [],
      "stateMutability": "nonpayable",
      "type": "constructor"
    },
    {
      "inputs": [],
      "name": "ERC721EnumerableForbiddenBatchMint",
      "type": "error"
    },
    {
      "inputs": [
        {
          "internalType": "address",
          "name": "sender",
          "type": "address"
        },
        {
          "internalType": "uint256",
          "name": "tokenId",
          "type": "uint256"
        },
        {
          "internalType": "address",
          "name": "owner",
          "type": "address"
        }
      ],
      "name": "ERC721IncorrectOwner",
      "type": "error"
    },
    {
      "inputs": [
        {
          "internalType": "address",
          "name": "operator",
          "type": "address"
        },
        {
          "internalType": "uint256",
          "name": "tokenId",
          "type": "uint256"
        }
      ],
      "name": "ERC721InsufficientApproval",
      "type": "error"
    },
    {
      "inputs": [
        {
          "internalType": "address",
          "name": "approver",
          "type": "address"
        }
      ],
      "name": "ERC721InvalidApprover",
      "type": "error"
    },
    {
      "inputs": [
        {
          "internalType": "address",
          "name": "operator",
          "type": "address"
        }
      ],
      "name": "ERC721InvalidOperator",
      "type": "error"
    },
    {
      "inputs": [
        {
          "internalType": "address",
          "name": "owner",
          "type": "address"
        }
      ],
      "name": "ERC721InvalidOwner",
      "type": "error"
    },
    {
      "inputs": [
        {
          "internalType": "address",
          "name": "receiver",
          "type": "address"
        }
      ],
      "name": "ERC721InvalidReceiver",
      "type": "error"
    },
    {
      "inputs": [
        {
          "internalType": "address",
          "name": "sender",
          "type": "address"
        }
      ],
      "name": "ERC721InvalidSender",
      "type": "error"
    },
    {
      "inputs": [
        {
          "internalType": "uint256",
          "name": "tokenId",
          "type": "uint256"
        }
      ],
      "name": "ERC721NonexistentToken",
      "type": "error"
    },
    {
      "inputs": [
        {
          "internalType": "address",
          "name": "owner",
          "type": "address"
        },
        {
          "internalType": "uint256",
          "name": "index",
          "type": "uint256"
        }
      ],
      "name": "ERC721OutOfBoundsIndex",
      "type": "error"
    },
    {
      "inputs": [
        {
          "internalType": "address",
          "name": "owner",
          "type": "address"
        }
      ],
      "name": "OwnableInvalidOwner",
      "type": "error"
    },
    {
      "inputs": [
        {
          "internalType": "address",
          "name": "account",
          "type": "address"
        }
      ],
      "name": "OwnableUnauthorizedAccount",
      "type": "error"
    },
    {
      "anonymous": false,
      "inputs": [
        {
          "indexed": true,
          "internalType": "address",
          "name": "owner",
          "type": "address"
        },
        {
          "indexed": true,
          "internalType": "address",
          "name": "approved",
          "type": "address"
        },
        {
          "indexed": true,
          "internalType": "uint256",
          "name": "tokenId",
          "type": "uint256"
        }
      ],
      "name": "Approval",
      "type": "event"
    },
    {
      "anonymous": false,
      "inputs": [
        {
          "indexed": true,
          "internalType": "address",
          "name": "owner",
          "type": "address"
        },
        {
          "indexed": true,
          "internalType": "address",
          "name": "operator",
          "type": "address"
        },
        {
          "indexed": false,
          "internalType": "bool",
          "name": "approved",
          "type": "bool"
        }
      ],
      "name": "ApprovalForAll",
      "type": "event"
    },
    {
      "anonymous": false,
      "inputs": [
        {
          "indexed": false,
          "internalType": "uint256",
          "name": "_fromTokenId",
          "type": "uint256"
        },
        {
          "indexed": false,
          "internalType": "uint256",
          "name": "_toTokenId",
          "type": "uint256"
        }
      ],
      "name": "BatchMetadataUpdate",
      "type": "event"
    },
    {
      "anonymous": false,
      "inputs": [
        {
          "indexed": false,
          "internalType": "uint256",
          "name": "_tokenId",
          "type": "uint256"
        }
      ],
      "name": "MetadataUpdate",
      "type": "event"
    },
    {
      "anonymous": false,
      "inputs": [
        {
          "indexed": true,
          "internalType": "address",
          "name": "previousOwner",
          "type": "address"
        },
        {
          "indexed": true,
          "internalType": "address",
          "name": "newOwner",
          "type": "address"
        }
      ],
      "name": "OwnershipTransferred",
      "type": "event"
    },
    {
      "anonymous": false,
      "inputs": [
        {
          "indexed": true,
          "internalType": "address",
          "name": "from",
          "type": "address"
        },
        {
          "indexed": true,
          "internalType": "address",
          "name": "to",
          "type": "address"
        },
        {
          "indexed": true,
          "internalType": "uint256",
          "name": "tokenId",
          "type": "uint256"
        }
      ],
      "name": "Transfer",
      "type": "event"
    },
    {
      "inputs": [
        {
          "internalType": "address",
          "name": "receiver",
          "type": "address"
        },
        {
          "internalType": "uint256",
          "name": "amt",
          "type": "uint256"
        }
      ],
      "name": "allowMint",
      "outputs": [],
      "stateMutability": "nonpayable",
      "type": "function"
    },
    {
      "inputs": [
        {
          "internalType": "address[]",
          "name": "receivers",
          "type": "address[]"
        },
        {
          "internalType": "uint256",
          "name": "amt",
          "type": "uint256"
        }
      ],
      "name": "allowMint",
      "outputs": [],
      "stateMutability": "nonpayable",
      "type": "function"
    },
    {
      "inputs": [
        {
          "internalType": "address",
          "name": "receiver",
          "type": "address"
        }
      ],
      "name": "allowMint",
      "outputs": [],
      "stateMutability": "nonpayable",
      "type": "function"
    },
    {
      "inputs": [
        {
          "internalType": "address",
          "name": "to",
          "type": "address"
        },
        {
          "internalType": "uint256",
          "name": "tokenId",
          "type": "uint256"
        }
      ],
      "name": "approve",
      "outputs": [],
      "stateMutability": "nonpayable",
      "type": "function"
    },
    {
      "inputs": [
        {
          "internalType": "address",
          "name": "owner",
          "type": "address"
        }
      ],
      "name": "balanceOf",
      "outputs": [
        {
          "internalType": "uint256",
          "name": "",
          "type": "uint256"
        }
      ],
      "stateMutability": "view",
      "type": "function"
    },
    {
      "inputs": [
        {
          "internalType": "uint256",
          "name": "tokenId",
          "type": "uint256"
        }
      ],
      "name": "burn",
      "outputs": [],
      "stateMutability": "nonpayable",
      "type": "function"
    },
    {
      "inputs": [
        {
          "internalType": "uint256",
          "name": "tokenId",
          "type": "uint256"
        }
      ],
      "name": "getApproved",
      "outputs": [
        {
          "internalType": "address",
          "name": "",
          "type": "address"
        }
      ],
      "stateMutability": "view",
      "type": "function"
    },
    {
      "inputs": [
        {
          "internalType": "address",
          "name": "owner",
          "type": "address"
        },
        {
          "internalType": "address",
          "name": "operator",
          "type": "address"
        }
      ],
      "name": "isApprovedForAll",
      "outputs": [
        {
          "internalType": "bool",
          "name": "",
          "type": "bool"
        }
      ],
      "stateMutability": "view",
      "type": "function"
    },
    {
      "inputs": [
        {
          "internalType": "address",
          "name": "",
          "type": "address"
        }
      ],
      "name": "mintAllowance",
      "outputs": [
        {
          "internalType": "uint256",
          "name": "",
          "type": "uint256"
        }
      ],
      "stateMutability": "view",
      "type": "function"
    },
    {
      "inputs": [],
      "name": "name",
      "outputs": [
        {
          "internalType": "string",
          "name": "",
          "type": "string"
        }
      ],
      "stateMutability": "view",
      "type": "function"
    },
    {
      "inputs": [],
      "name": "owner",
      "outputs": [
        {
          "internalType": "address",
          "name": "",
          "type": "address"
        }
      ],
      "stateMutability": "view",
      "type": "function"
    },
    {
      "inputs": [
        {
          "internalType": "uint256",
          "name": "tokenId",
          "type": "uint256"
        }
      ],
      "name": "ownerOf",
      "outputs": [
        {
          "internalType": "address",
          "name": "",
          "type": "address"
        }
      ],
      "stateMutability": "view",
      "type": "function"
    },
    {
      "inputs": [],
      "name": "renounceOwnership",
      "outputs": [],
      "stateMutability": "nonpayable",
      "type": "function"
    },
    {
      "inputs": [
        {
          "internalType": "address",
          "name": "to",
          "type": "address"
        },
        {
          "internalType": "string",
          "name": "uri",
          "type": "string"
        }
      ],
      "name": "safeMint",
      "outputs": [],
      "stateMutability": "nonpayable",
      "type": "function"
    },
    {
      "inputs": [
        {
          "internalType": "address",
          "name": "from",
          "type": "address"
        },
        {
          "internalType": "address",
          "name": "to",
          "type": "address"
        },
        {
          "internalType": "uint256",
          "name": "tokenId",
          "type": "uint256"
        }
      ],
      "name": "safeTransferFrom",
      "outputs": [],
      "stateMutability": "nonpayable",
      "type": "function"
    },
    {
      "inputs": [
        {
          "internalType": "address",
          "name": "from",
          "type": "address"
        },
        {
          "internalType": "address",
          "name": "to",
          "type": "address"
        },
        {
          "internalType": "uint256",
          "name": "tokenId",
          "type": "uint256"
        },
        {
          "internalType": "bytes",
          "name": "data",
          "type": "bytes"
        }
      ],
      "name": "safeTransferFrom",
      "outputs": [],
      "stateMutability": "nonpayable",
      "type": "function"
    },
    {
      "inputs": [
        {
          "internalType": "address",
          "name": "operator",
          "type": "address"
        },
        {
          "internalType": "bool",
          "name": "approved",
          "type": "bool"
        }
      ],
      "name": "setApprovalForAll",
      "outputs": [],
      "stateMutability": "nonpayable",
      "type": "function"
    },
    {
      "inputs": [
        {
          "internalType": "bytes4",
          "name": "interfaceId",
          "type": "bytes4"
        }
      ],
      "name": "supportsInterface",
      "outputs": [
        {
          "internalType": "bool",
          "name": "",
          "type": "bool"
        }
      ],
      "stateMutability": "view",
      "type": "function"
    },
    {
      "inputs": [],
      "name": "symbol",
      "outputs": [
        {
          "internalType": "string",
          "name": "",
          "type": "string"
        }
      ],
      "stateMutability": "view",
      "type": "function"
    },
    {
      "inputs": [
        {
          "internalType": "uint256",
          "name": "index",
          "type": "uint256"
        }
      ],
      "name": "tokenByIndex",
      "outputs": [
        {
          "internalType": "uint256",
          "name": "",
          "type": "uint256"
        }
      ],
      "stateMutability": "view",
      "type": "function"
    },
    {
      "inputs": [
        {
          "internalType": "address",
          "name": "owner",
          "type": "address"
        },
        {
          "internalType": "uint256",
          "name": "index",
          "type": "uint256"
        }
      ],
      "name": "tokenOfOwnerByIndex",
      "outputs": [
        {
          "internalType": "uint256",
          "name": "",
          "type": "uint256"
        }
      ],
      "stateMutability": "view",
      "type": "function"
    },
    {
      "inputs": [
        {
          "internalType": "uint256",
          "name": "tokenId",
          "type": "uint256"
        }
      ],
      "name": "tokenURI",
      "outputs": [
        {
          "internalType": "string",
          "name": "",
          "type": "string"
        }
      ],
      "stateMutability": "view",
      "type": "function"
    },
    {
      "inputs": [],
      "name": "totalSupply",
      "outputs": [
        {
          "internalType": "uint256",
          "name": "",
          "type": "uint256"
        }
      ],
      "stateMutability": "view",
      "type": "function"
    },
    {
      "inputs": [
        {
          "internalType": "address",
          "name": "from",
          "type": "address"
        },
        {
          "internalType": "address",
          "name": "to",
          "type": "address"
        },
        {
          "internalType": "uint256",
          "name": "tokenId",
          "type": "uint256"
        }
      ],
      "name": "transferFrom",
      "outputs": [],
      "stateMutability": "nonpayable",
      "type": "function"
    },
    {
      "inputs": [
        {
          "internalType": "address",
          "name": "newOwner",
          "type": "address"
        }
      ],
      "name": "transferOwnership",
      "outputs": [],
      "stateMutability": "nonpayable",
      "type": "function"
    }
  ],
  "bytecode": "0x60806040523480156200001157600080fd5b50336040518060400160405280601381526020017f536f6c6172205365656b657220547261697473000000000000000000000000008152506040518060400160405280601181526020017f536f6c61725365656b6572547261697473000000000000000000000000000000815250816000908162000090919062000472565b508060019081620000a2919062000472565b505050600073ffffffffffffffffffffffffffffffffffffffff168173ffffffffffffffffffffffffffffffffffffffff16036200011a5760006040517f1e4fbdf70000000000000000000000000000000000000000000000000000000081526004016200011191906200059e565b60405180910390fd5b6200012b816200013260201b60201c565b50620005bb565b6000600b60009054906101000a900473ffffffffffffffffffffffffffffffffffffffff16905081600b60006101000a81548173ffffffffffffffffffffffffffffffffffffffff021916908373ffffffffffffffffffffffffffffffffffffffff1602179055508173ffffffffffffffffffffffffffffffffffffffff168173ffffffffffffffffffffffffffffffffffffffff167f8be0079c531659141344cd1fd0a4f28419497f9722a3daafe3b4186f6b6457e060405160405180910390a35050565b600081519050919050565b7f4e487b7100000000000000000000000000000000000000000000000000000000600052604160045260246000fd5b7f4e487b7100000000000000000000000000000000000000000000000000000000600052602260045260246000fd5b600060028204905060018216806200027a57607f821691505b60208210810362000290576200028f62000232565b5b50919050565b60008190508160005260206000209050919050565b60006020601f8301049050919050565b600082821b905092915050565b600060088302620002fa7fffffffffffffffffffffffffffffffffffffffffffffffffffffffffffffffff82620002bb565b620003068683620002bb565b95508019841693508086168417925050509392505050565b6000819050919050565b6000819050919050565b6000620003536200034d62000347846200031e565b62000328565b6200031e565b9050919050565b6000819050919050565b6200036f8362000332565b620003876200037e826200035a565b848454620002c8565b825550505050565b600090565b6200039e6200038f565b620003ab81848462000364565b505050565b5b81811015620003d357620003c760008262000394565b600181019050620003b1565b5050565b601f8211156200042257620003ec8162000296565b620003f784620002ab565b8101602085101562000407578190505b6200041f6200041685620002ab565b830182620003b0565b50505b505050565b600082821c905092915050565b6000620004476000198460080262000427565b1980831691505092915050565b600062000462838362000434565b9150826002028217905092915050565b6200047d82620001f8565b67ffffffffffffffff81111562000499576200049862000203565b5b620004a5825462000261565b620004b2828285620003d7565b600060209050601f831160018114620004ea5760008415620004d5578287015190505b620004e1858262000454565b86555062000551565b601f198416620004fa8662000296565b60005b828110156200052457848901518255600182019150602085019450602081019050620004fd565b8683101562000544578489015162000540601f89168262000434565b8355505b6001600288020188555050505b505050505050565b600073ffffffffffffffffffffffffffffffffffffffff82169050919050565b6000620005868262000559565b9050919050565b620005988162000579565b82525050565b6000602082019050620005b560008301846200058d565b92915050565b61326480620005cb6000396000f3fe608060405234801561001057600080fd5b50600436106101735760003560e01c80636352211e116100de578063a22cb46511610097578063c87b56dd11610071578063c87b56dd14610446578063d204c45e14610476578063e985e9c514610492578063f2fde38b146104c257610173565b8063a22cb465146103de578063b88d4fde146103fa578063c5119ff81461041657610173565b80636352211e1461031c578063640cff981461034c57806370a0823114610368578063715018a6146103985780638da5cb5b146103a257806395d89b41146103c057610173565b806326e97fce1161013057806326e97fce1461024c5780632f745c591461026857806342842e0e1461029857806342966c68146102b45780634f6ccce7146102d0578063540dcc6d1461030057610173565b806301ffc9a71461017857806306fdde03146101a8578063081812fc146101c6578063095ea7b3146101f657806318160ddd1461021257806323b872dd14610230575b600080fd5b610192600480360381019061018d91906124a1565b6104de565b60405161019f91906124e9565b60405180910390f35b6101b06104f0565b6040516101bd9190612594565b60405180910390f35b6101e060048036038101906101db91906125ec565b610582565b6040516101ed919061265a565b60405180910390f35b610210600480360381019061020b91906126a1565b61059e565b005b61021a6105b4565b60405161022791906126f0565b60405180910390f35b61024a6004803603810190610245919061270b565b6105c1565b005b610266600480360381019061026191906126a1565b6106c3565b005b610282600480360381019061027d91906126a1565b610725565b60405161028f91906126f0565b60405180910390f35b6102b260048036038101906102ad919061270b565b6107ce565b005b6102ce60048036038101906102c991906125ec565b6107ee565b005b6102ea60048036038101906102e591906125ec565b610805565b6040516102f791906126f0565b60405180910390f35b61031a600480360381019061031591906127c3565b61087b565b005b610336600480360381019061033191906125ec565b610921565b604051610343919061265a565b60405180910390f35b61036660048036038101906103619190612823565b610933565b005b610382600480360381019061037d9190612823565b610993565b60405161038f91906126f0565b60405180910390f35b6103a0610a4d565b005b6103aa610a61565b6040516103b7919061265a565b60405180910390f35b6103c8610a8b565b6040516103d59190612594565b60405180910390f35b6103f860048036038101906103f3919061287c565b610b1d565b005b610414600480360381019061040f91906129ec565b610b33565b005b610430600480360381019061042b9190612823565b610b50565b60405161043d91906126f0565b60405180910390f35b610460600480360381019061045b91906125ec565b610b68565b60405161046d9190612594565b60405180910390f35b610490600480360381019061048b9190612b10565b610b7a565b005b6104ac60048036038101906104a79190612b6c565b610c85565b6040516104b991906124e9565b60405180910390f35b6104dc60048036038101906104d79190612823565b610d19565b005b60006104e982610d9f565b9050919050565b6060600080546104ff90612bdb565b80601f016020809104026020016040519081016040528092919081815260200182805461052b90612bdb565b80156105785780601f1061054d57610100808354040283529160200191610578565b820191906000526020600020905b81548152906001019060200180831161055b57829003601f168201915b5050505050905090565b600061058d82610e00565b5061059782610e88565b9050919050565b6105b082826105ab610ec5565b610ecd565b5050565b6000600880549050905090565b600073ffffffffffffffffffffffffffffffffffffffff168273ffffffffffffffffffffffffffffffffffffffff16036106335760006040517f64a0ae9200000000000000000000000000000000000000000000000000000000815260040161062a919061265a565b60405180910390fd5b60006106478383610642610ec5565b610edf565b90508373ffffffffffffffffffffffffffffffffffffffff168173ffffffffffffffffffffffffffffffffffffffff16146106bd578382826040517f64283d7b0000000000000000000000000000000000000000000000000000000081526004016106b493929190612c0c565b60405180910390fd5b50505050565b6106cb610ef5565b80600d60008473ffffffffffffffffffffffffffffffffffffffff1673ffffffffffffffffffffffffffffffffffffffff168152602001908152602001600020600082825461071a9190612c72565b925050819055505050565b600061073083610993565b82106107755782826040517fa57d13dc00000000000000000000000000000000000000000000000000000000815260040161076c929190612ca6565b60405180910390fd5b600660008473ffffffffffffffffffffffffffffffffffffffff1673ffffffffffffffffffffffffffffffffffffffff168152602001908152602001600020600083815260200190815260200160002054905092915050565b6107e983838360405180602001604052806000815250610b33565b505050565b6108016000826107fc610ec5565b610edf565b5050565b600061080f6105b4565b8210610855576000826040517fa57d13dc00000000000000000000000000000000000000000000000000000000815260040161084c929190612ca6565b60405180910390fd5b6008828154811061086957610868612ccf565b5b90600052602060002001549050919050565b610883610ef5565b60005b8383905081101561091b5781600d60008686858181106108a9576108a8612ccf565b5b90506020020160208101906108be9190612823565b73ffffffffffffffffffffffffffffffffffffffff1673ffffffffffffffffffffffffffffffffffffffff16815260200190815260200160002060008282546109079190612c72565b925050819055508080600101915050610886565b50505050565b600061092c82610e00565b9050919050565b61093b610ef5565b600d60008273ffffffffffffffffffffffffffffffffffffffff1673ffffffffffffffffffffffffffffffffffffffff168152602001908152602001600020600081548092919061098b90612cfe565b919050555050565b60008073ffffffffffffffffffffffffffffffffffffffff168273ffffffffffffffffffffffffffffffffffffffff1603610a065760006040517f89c62b640000000000000000000000000000000000000000000000000000000081526004016109fd919061265a565b60405180910390fd5b600360008373ffffffffffffffffffffffffffffffffffffffff1673ffffffffffffffffffffffffffffffffffffffff168152602001908152602001600020549050919050565b610a55610ef5565b610a5f6000610f7c565b565b6000600b60009054906101000a900473ffffffffffffffffffffffffffffffffffffffff16905090565b606060018054610a9a90612bdb565b80601f0160208091040260200160405190810160405280929190818152602001828054610ac690612bdb565b8015610b135780601f10610ae857610100808354040283529160200191610b13565b820191906000526020600020905b815481529060010190602001808311610af657829003601f168201915b5050505050905090565b610b2f610b28610ec5565b8383611042565b5050565b610b3e8484846105c1565b610b4a848484846111b1565b50505050565b600d6020528060005260406000206000915090505481565b6060610b7382611368565b9050919050565b6000600d60003373ffffffffffffffffffffffffffffffffffffffff1673ffffffffffffffffffffffffffffffffffffffff1681526020019081526020016000205411610bfc576040517f08c379a0000000000000000000000000000000000000000000000000000000008152600401610bf390612d92565b60405180910390fd5b600d60003373ffffffffffffffffffffffffffffffffffffffff1673ffffffffffffffffffffffffffffffffffffffff1681526020019081526020016000206000815480929190610c4c90612db2565b91905055506000600c6000815480929190610c6690612cfe565b919050559050610c76838261147b565b610c808183611499565b505050565b6000600560008473ffffffffffffffffffffffffffffffffffffffff1673ffffffffffffffffffffffffffffffffffffffff16815260200190815260200160002060008373ffffffffffffffffffffffffffffffffffffffff1673ffffffffffffffffffffffffffffffffffffffff16815260200190815260200160002060009054906101000a900460ff16905092915050565b610d21610ef5565b600073ffffffffffffffffffffffffffffffffffffffff168173ffffffffffffffffffffffffffffffffffffffff1603610d935760006040517f1e4fbdf7000000000000000000000000000000000000000000000000000000008152600401610d8a919061265a565b60405180910390fd5b610d9c81610f7c565b50565b6000634906490660e01b7bffffffffffffffffffffffffffffffffffffffffffffffffffffffff1916827bffffffffffffffffffffffffffffffffffffffffffffffffffffffff19161480610df95750610df8826114f5565b5b9050919050565b600080610e0c8361156f565b9050600073ffffffffffffffffffffffffffffffffffffffff168173ffffffffffffffffffffffffffffffffffffffff1603610e7f57826040517f7e273289000000000000000000000000000000000000000000000000000000008152600401610e7691906126f0565b60405180910390fd5b80915050919050565b60006004600083815260200190815260200160002060009054906101000a900473ffffffffffffffffffffffffffffffffffffffff169050919050565b600033905090565b610eda83838360016115ac565b505050565b6000610eec848484611771565b90509392505050565b610efd610ec5565b73ffffffffffffffffffffffffffffffffffffffff16610f1b610a61565b73ffffffffffffffffffffffffffffffffffffffff1614610f7a57610f3e610ec5565b6040517f118cdaa7000000000000000000000000000000000000000000000000000000008152600401610f71919061265a565b60405180910390fd5b565b6000600b60009054906101000a900473ffffffffffffffffffffffffffffffffffffffff16905081600b60006101000a81548173ffffffffffffffffffffffffffffffffffffffff021916908373ffffffffffffffffffffffffffffffffffffffff1602179055508173ffffffffffffffffffffffffffffffffffffffff168173ffffffffffffffffffffffffffffffffffffffff167f8be0079c531659141344cd1fd0a4f28419497f9722a3daafe3b4186f6b6457e060405160405180910390a35050565b600073ffffffffffffffffffffffffffffffffffffffff168273ffffffffffffffffffffffffffffffffffffffff16036110b357816040517f5b08ba180000000000000000000000000000000000000000000000000000000081526004016110aa919061265a565b60405180910390fd5b80600560008573ffffffffffffffffffffffffffffffffffffffff1673ffffffffffffffffffffffffffffffffffffffff16815260200190815260200160002060008473ffffffffffffffffffffffffffffffffffffffff1673ffffffffffffffffffffffffffffffffffffffff16815260200190815260200160002060006101000a81548160ff0219169083151502179055508173ffffffffffffffffffffffffffffffffffffffff168373ffffffffffffffffffffffffffffffffffffffff167f17307eab39ab6107e8899845ad3d59bd9653f200f220920489ca2b5937696c31836040516111a491906124e9565b60405180910390a3505050565b60008373ffffffffffffffffffffffffffffffffffffffff163b1115611362578273ffffffffffffffffffffffffffffffffffffffff1663150b7a026111f5610ec5565b8685856040518563ffffffff1660e01b81526004016112179493929190612e30565b6020604051808303816000875af192505050801561125357506040513d601f19601f820116820180604052508101906112509190612e91565b60015b6112d7573d8060008114611283576040519150601f19603f3d011682016040523d82523d6000602084013e611288565b606091505b5060008151036112cf57836040517f64a0ae920000000000000000000000000000000000000000000000000000000081526004016112c6919061265a565b60405180910390fd5b805181602001fd5b63150b7a0260e01b7bffffffffffffffffffffffffffffffffffffffffffffffffffffffff1916817bffffffffffffffffffffffffffffffffffffffffffffffffffffffff19161461136057836040517f64a0ae92000000000000000000000000000000000000000000000000000000008152600401611357919061265a565b60405180910390fd5b505b50505050565b606061137382610e00565b506000600a6000848152602001908152602001600020805461139490612bdb565b80601f01602080910402602001604051908101604052809291908181526020018280546113c090612bdb565b801561140d5780601f106113e25761010080835404028352916020019161140d565b820191906000526020600020905b8154815290600101906020018083116113f057829003601f168201915b50505050509050600061141e61188e565b90506000815103611433578192505050611476565b600082511115611468578082604051602001611450929190612efa565b60405160208183030381529060405292505050611476565b611471846118a5565b925050505b919050565b61149582826040518060200160405280600081525061190e565b5050565b80600a600084815260200190815260200160002090816114b991906130ca565b507ff8e1a15aba9398e019f0b49df1a4fde98ee17ae345cb5f6b5e2c27f5033e8ce7826040516114e991906126f0565b60405180910390a15050565b60007f780e9d63000000000000000000000000000000000000000000000000000000007bffffffffffffffffffffffffffffffffffffffffffffffffffffffff1916827bffffffffffffffffffffffffffffffffffffffffffffffffffffffff1916148061156857506115678261192a565b5b9050919050565b60006002600083815260200190815260200160002060009054906101000a900473ffffffffffffffffffffffffffffffffffffffff169050919050565b80806115e55750600073ffffffffffffffffffffffffffffffffffffffff168273ffffffffffffffffffffffffffffffffffffffff1614155b156117195760006115f584610e00565b9050600073ffffffffffffffffffffffffffffffffffffffff168373ffffffffffffffffffffffffffffffffffffffff161415801561166057508273ffffffffffffffffffffffffffffffffffffffff168173ffffffffffffffffffffffffffffffffffffffff1614155b801561167357506116718184610c85565b155b156116b557826040517fa9fbf51f0000000000000000000000000000000000000000000000000000000081526004016116ac919061265a565b60405180910390fd5b811561171757838573ffffffffffffffffffffffffffffffffffffffff168273ffffffffffffffffffffffffffffffffffffffff167f8c5be1e5ebec7d5bd14f71427d1e84f3dd0314c0f7b2291e5b200ac8c7c3b92560405160405180910390a45b505b836004600085815260200190815260200160002060006101000a81548173ffffffffffffffffffffffffffffffffffffffff021916908373ffffffffffffffffffffffffffffffffffffffff16021790555050505050565b60008061177f858585611a0c565b9050600073ffffffffffffffffffffffffffffffffffffffff168173ffffffffffffffffffffffffffffffffffffffff16036117c3576117be84611c26565b611802565b8473ffffffffffffffffffffffffffffffffffffffff168173ffffffffffffffffffffffffffffffffffffffff1614611801576118008185611c6f565b5b5b600073ffffffffffffffffffffffffffffffffffffffff168573ffffffffffffffffffffffffffffffffffffffff16036118445761183f84611dd0565b611883565b8473ffffffffffffffffffffffffffffffffffffffff168173ffffffffffffffffffffffffffffffffffffffff1614611882576118818585611ea1565b5b5b809150509392505050565b606060405180602001604052806000815250905090565b60606118b082610e00565b5060006118bb61188e565b905060008151116118db5760405180602001604052806000815250611906565b806118e584611f2c565b6040516020016118f6929190612efa565b6040516020818303038152906040525b915050919050565b6119188383611ffa565b61192560008484846111b1565b505050565b60007f80ac58cd000000000000000000000000000000000000000000000000000000007bffffffffffffffffffffffffffffffffffffffffffffffffffffffff1916827bffffffffffffffffffffffffffffffffffffffffffffffffffffffff191614806119f557507f5b5e139f000000000000000000000000000000000000000000000000000000007bffffffffffffffffffffffffffffffffffffffffffffffffffffffff1916827bffffffffffffffffffffffffffffffffffffffffffffffffffffffff1916145b80611a055750611a04826120f3565b5b9050919050565b600080611a188461156f565b9050600073ffffffffffffffffffffffffffffffffffffffff168373ffffffffffffffffffffffffffffffffffffffff1614611a5a57611a5981848661215d565b5b600073ffffffffffffffffffffffffffffffffffffffff168173ffffffffffffffffffffffffffffffffffffffff1614611aeb57611a9c6000856000806115ac565b6001600360008373ffffffffffffffffffffffffffffffffffffffff1673ffffffffffffffffffffffffffffffffffffffff168152602001908152602001600020600082825403925050819055505b600073ffffffffffffffffffffffffffffffffffffffff168573ffffffffffffffffffffffffffffffffffffffff1614611b6e576001600360008773ffffffffffffffffffffffffffffffffffffffff1673ffffffffffffffffffffffffffffffffffffffff168152602001908152602001600020600082825401925050819055505b846002600086815260200190815260200160002060006101000a81548173ffffffffffffffffffffffffffffffffffffffff021916908373ffffffffffffffffffffffffffffffffffffffff160217905550838573ffffffffffffffffffffffffffffffffffffffff168273ffffffffffffffffffffffffffffffffffffffff167fddf252ad1be2c89b69c2b068fc378daa952ba7f163c4a11628f55a4df523b3ef60405160405180910390a4809150509392505050565b6008805490506009600083815260200190815260200160002081905550600881908060018154018082558091505060019003906000526020600020016000909190919091505550565b6000611c7a83610993565b9050600060076000848152602001908152602001600020549050818114611d5f576000600660008673ffffffffffffffffffffffffffffffffffffffff1673ffffffffffffffffffffffffffffffffffffffff168152602001908152602001600020600084815260200190815260200160002054905080600660008773ffffffffffffffffffffffffffffffffffffffff1673ffffffffffffffffffffffffffffffffffffffff168152602001908152602001600020600084815260200190815260200160002081905550816007600083815260200190815260200160002081905550505b6007600084815260200190815260200160002060009055600660008573ffffffffffffffffffffffffffffffffffffffff1673ffffffffffffffffffffffffffffffffffffffff16815260200190815260200160002060008381526020019081526020016000206000905550505050565b60006001600880549050611de4919061319c565b9050600060096000848152602001908152602001600020549050600060088381548110611e1457611e13612ccf565b5b906000526020600020015490508060088381548110611e3657611e35612ccf565b5b906000526020600020018190555081600960008381526020019081526020016000208190555060096000858152602001908152602001600020600090556008805480611e8557611e846131d0565b5b6001900381819060005260206000200160009055905550505050565b60006001611eae84610993565b611eb8919061319c565b905081600660008573ffffffffffffffffffffffffffffffffffffffff1673ffffffffffffffffffffffffffffffffffffffff168152602001908152602001600020600083815260200190815260200160002081905550806007600084815260200190815260200160002081905550505050565b606060006001611f3b84612221565b01905060008167ffffffffffffffff811115611f5a57611f596128c1565b5b6040519080825280601f01601f191660200182016040528015611f8c5781602001600182028036833780820191505090505b509050600082602001820190505b600115611fef578080600190039150507f3031323334353637383961626364656600000000000000000000000000000000600a86061a8153600a8581611fe357611fe26131ff565b5b04945060008503611f9a575b819350505050919050565b600073ffffffffffffffffffffffffffffffffffffffff168273ffffffffffffffffffffffffffffffffffffffff160361206c5760006040517f64a0ae92000000000000000000000000000000000000000000000000000000008152600401612063919061265a565b60405180910390fd5b600061207a83836000610edf565b9050600073ffffffffffffffffffffffffffffffffffffffff168173ffffffffffffffffffffffffffffffffffffffff16146120ee5760006040517f73c6ac6e0000000000000000000000000000000000000000000000000000000081526004016120e5919061265a565b60405180910390fd5b505050565b60007f01ffc9a7000000000000000000000000000000000000000000000000000000007bffffffffffffffffffffffffffffffffffffffffffffffffffffffff1916827bffffffffffffffffffffffffffffffffffffffffffffffffffffffff1916149050919050565b612168838383612374565b61221c57600073ffffffffffffffffffffffffffffffffffffffff168373ffffffffffffffffffffffffffffffffffffffff16036121dd57806040517f7e2732890000000000000000000000000000000000000000000000000000000081526004016121d491906126f0565b60405180910390fd5b81816040517f177e802f000000000000000000000000000000000000000000000000000000008152600401612213929190612ca6565b60405180910390fd5b505050565b600080600090507a184f03e93ff9f4daa797ed6e38ed64bf6a1f010000000000000000831061227f577a184f03e93ff9f4daa797ed6e38ed64bf6a1f0100000000000000008381612275576122746131ff565b5b0492506040810190505b6d04ee2d6d415b85acef810000000083106122bc576d04ee2d6d415b85acef810000000083816122b2576122b16131ff565b5b0492506020810190505b662386f26fc1000083106122eb57662386f26fc1000083816122e1576122e06131ff565b5b0492506010810190505b6305f5e1008310612314576305f5e100838161230a576123096131ff565b5b0492506008810190505b612710831061233957612710838161232f5761232e6131ff565b5b0492506004810190505b6064831061235c5760648381612352576123516131ff565b5b0492506002810190505b600a831061236b576001810190505b80915050919050565b60008073ffffffffffffffffffffffffffffffffffffffff168373ffffffffffffffffffffffffffffffffffffffff161415801561242c57508273ffffffffffffffffffffffffffffffffffffffff168473ffffffffffffffffffffffffffffffffffffffff1614806123ed57506123ec8484610c85565b5b8061242b57508273ffffffffffffffffffffffffffffffffffffffff1661241383610e88565b73ffffffffffffffffffffffffffffffffffffffff16145b5b90509392505050565b6000604051905090565b600080fd5b600080fd5b60007fffffffff0000000000000000000000000000000000000000000000000000000082169050919050565b61247e81612449565b811461248957600080fd5b50565b60008135905061249b81612475565b92915050565b6000602082840312156124b7576124b661243f565b5b60006124c58482850161248c565b91505092915050565b60008115159050919050565b6124e3816124ce565b82525050565b60006020820190506124fe60008301846124da565b92915050565b600081519050919050565b600082825260208201905092915050565b60005b8381101561253e578082015181840152602081019050612523565b60008484015250505050565b6000601f19601f8301169050919050565b600061256682612504565b612570818561250f565b9350612580818560208601612520565b6125898161254a565b840191505092915050565b600060208201905081810360008301526125ae818461255b565b905092915050565b6000819050919050565b6125c9816125b6565b81146125d457600080fd5b50565b6000813590506125e6816125c0565b92915050565b6000602082840312156126025761260161243f565b5b6000612610848285016125d7565b91505092915050565b600073ffffffffffffffffffffffffffffffffffffffff82169050919050565b600061264482612619565b9050919050565b61265481612639565b82525050565b600060208201905061266f600083018461264b565b92915050565b61267e81612639565b811461268957600080fd5b50565b60008135905061269b81612675565b92915050565b600080604083850312156126b8576126b761243f565b5b60006126c68582860161268c565b92505060206126d7858286016125d7565b9150509250929050565b6126ea816125b6565b82525050565b600060208201905061270560008301846126e1565b92915050565b6000806000606084860312156127245761272361243f565b5b60006127328682870161268c565b93505060206127438682870161268c565b9250506040612754868287016125d7565b9150509250925092565b600080fd5b600080fd5b600080fd5b60008083601f8401126127835761278261275e565b5b8235905067ffffffffffffffff8111156127a05761279f612763565b5b6020830191508360208202830111156127bc576127bb612768565b5b9250929050565b6000806000604084860312156127dc576127db61243f565b5b600084013567ffffffffffffffff8111156127fa576127f9612444565b5b6128068682870161276d565b93509350506020612819868287016125d7565b9150509250925092565b6000602082840312156128395761283861243f565b5b60006128478482850161268c565b91505092915050565b612859816124ce565b811461286457600080fd5b50565b60008135905061287681612850565b92915050565b600080604083850312156128935761289261243f565b5b60006128a18582860161268c565b92505060206128b285828601612867565b9150509250929050565b600080fd5b7f4e487b7100000000000000000000000000000000000000000000000000000000600052604160045260246000fd5b6128f98261254a565b810181811067ffffffffffffffff82111715612918576129176128c1565b5b80604052505050565b600061292b612435565b905061293782826128f0565b919050565b600067ffffffffffffffff821115612957576129566128c1565b5b6129608261254a565b9050602081019050919050565b82818337600083830152505050565b600061298f61298a8461293c565b612921565b9050828152602081018484840111156129ab576129aa6128bc565b5b6129b684828561296d565b509392505050565b600082601f8301126129d3576129d261275e565b5b81356129e384826020860161297c565b91505092915050565b60008060008060808587031215612a0657612a0561243f565b5b6000612a148782880161268c565b9450506020612a258782880161268c565b9350506040612a36878288016125d7565b925050606085013567ffffffffffffffff811115612a5757612a56612444565b5b612a63878288016129be565b91505092959194509250565b600067ffffffffffffffff821115612a8a57612a896128c1565b5b612a938261254a565b9050602081019050919050565b6000612ab3612aae84612a6f565b612921565b905082815260208101848484011115612acf57612ace6128bc565b5b612ada84828561296d565b509392505050565b600082601f830112612af757612af661275e565b5b8135612b07848260208601612aa0565b91505092915050565b60008060408385031215612b2757612b2661243f565b5b6000612b358582860161268c565b925050602083013567ffffffffffffffff811115612b5657612b55612444565b5b612b6285828601612ae2565b9150509250929050565b60008060408385031215612b8357612b8261243f565b5b6000612b918582860161268c565b9250506020612ba28582860161268c565b9150509250929050565b7f4e487b7100000000000000000000000000000000000000000000000000000000600052602260045260246000fd5b60006002820490506001821680612bf357607f821691505b602082108103612c0657612c05612bac565b5b50919050565b6000606082019050612c21600083018661264b565b612c2e60208301856126e1565b612c3b604083018461264b565b949350505050565b7f4e487b7100000000000000000000000000000000000000000000000000000000600052601160045260246000fd5b6000612c7d826125b6565b9150612c88836125b6565b9250828201905080821115612ca057612c9f612c43565b5b92915050565b6000604082019050612cbb600083018561264b565b612cc860208301846126e1565b9392505050565b7f4e487b7100000000000000000000000000000000000000000000000000000000600052603260045260246000fd5b6000612d09826125b6565b91507fffffffffffffffffffffffffffffffffffffffffffffffffffffffffffffffff8203612d3b57612d3a612c43565b5b600182019050919050565b7f4e6f206d696e747320616c6c6f77656400000000000000000000000000000000600082015250565b6000612d7c60108361250f565b9150612d8782612d46565b602082019050919050565b60006020820190508181036000830152612dab81612d6f565b9050919050565b6000612dbd826125b6565b915060008203612dd057612dcf612c43565b5b600182039050919050565b600081519050919050565b600082825260208201905092915050565b6000612e0282612ddb565b612e0c8185612de6565b9350612e1c818560208601612520565b612e258161254a565b840191505092915050565b6000608082019050612e45600083018761264b565b612e52602083018661264b565b612e5f60408301856126e1565b8181036060830152612e718184612df7565b905095945050505050565b600081519050612e8b81612475565b92915050565b600060208284031215612ea757612ea661243f565b5b6000612eb584828501612e7c565b91505092915050565b600081905092915050565b6000612ed482612504565b612ede8185612ebe565b9350612eee818560208601612520565b80840191505092915050565b6000612f068285612ec9565b9150612f128284612ec9565b91508190509392505050565b60008190508160005260206000209050919050565b60006020601f8301049050919050565b600082821b905092915050565b600060088302612f807fffffffffffffffffffffffffffffffffffffffffffffffffffffffffffffffff82612f43565b612f8a8683612f43565b95508019841693508086168417925050509392505050565b6000819050919050565b6000612fc7612fc2612fbd846125b6565b612fa2565b6125b6565b9050919050565b6000819050919050565b612fe183612fac565b612ff5612fed82612fce565b848454612f50565b825550505050565b600090565b61300a612ffd565b613015818484612fd8565b505050565b5b818110156130395761302e600082613002565b60018101905061301b565b5050565b601f82111561307e5761304f81612f1e565b61305884612f33565b81016020851015613067578190505b61307b61307385612f33565b83018261301a565b50505b505050565b600082821c905092915050565b60006130a160001984600802613083565b1980831691505092915050565b60006130ba8383613090565b9150826002028217905092915050565b6130d382612504565b67ffffffffffffffff8111156130ec576130eb6128c1565b5b6130f68254612bdb565b61310182828561303d565b600060209050601f8311600181146131345760008415613122578287015190505b61312c85826130ae565b865550613194565b601f19841661314286612f1e565b60005b8281101561316a57848901518255600182019150602085019450602081019050613145565b868310156131875784890151613183601f891682613090565b8355505b6001600288020188555050505b505050505050565b60006131a7826125b6565b91506131b2836125b6565b92508282039050818111156131ca576131c9612c43565b5b92915050565b7f4e487b7100000000000000000000000000000000000000000000000000000000600052603160045260246000fd5b7f4e487b7100000000000000000000000000000000000000000000000000000000600052601260045260246000fdfea2646970667358221220b3c05f200cc470899212d3a5fef146c1511ebeccbc40e34efd05fa852cc37a5e64736f6c63430008180033",
  "linkReferences": {},
  "deployedLinkReferences": {}
}