{
  "_format": "hh-sol-artifact-1",
  "contractName": "SolarSeekers",
  "sourceName": "contracts/SolarSeekers.sol",
  "address": "0xbe33314A55967947520E2ce6A499207Bc3B58C06",
  "abi": [
    {
      "inputs": [
        {
          "internalType": "address",
          "name": "_traitContract",
          "type": "address"
        }
      ],
      "stateMutability": "nonpayable",
      "type": "constructor"
    },
    {
      "inputs": [],
      "name": "ERC721EnumerableForbiddenBatchMint",
      "type": "error"
    },
    {
      "inputs": [
        {
          "internalType": "address",
          "name": "sender",
          "type": "address"
        },
        {
          "internalType": "uint256",
          "name": "tokenId",
          "type": "uint256"
        },
        {
          "internalType": "address",
          "name": "owner",
          "type": "address"
        }
      ],
      "name": "ERC721IncorrectOwner",
      "type": "error"
    },
    {
      "inputs": [
        {
          "internalType": "address",
          "name": "operator",
          "type": "address"
        },
        {
          "internalType": "uint256",
          "name": "tokenId",
          "type": "uint256"
        }
      ],
      "name": "ERC721InsufficientApproval",
      "type": "error"
    },
    {
      "inputs": [
        {
          "internalType": "address",
          "name": "approver",
          "type": "address"
        }
      ],
      "name": "ERC721InvalidApprover",
      "type": "error"
    },
    {
      "inputs": [
        {
          "internalType": "address",
          "name": "operator",
          "type": "address"
        }
      ],
      "name": "ERC721InvalidOperator",
      "type": "error"
    },
    {
      "inputs": [
        {
          "internalType": "address",
          "name": "owner",
          "type": "address"
        }
      ],
      "name": "ERC721InvalidOwner",
      "type": "error"
    },
    {
      "inputs": [
        {
          "internalType": "address",
          "name": "receiver",
          "type": "address"
        }
      ],
      "name": "ERC721InvalidReceiver",
      "type": "error"
    },
    {
      "inputs": [
        {
          "internalType": "address",
          "name": "sender",
          "type": "address"
        }
      ],
      "name": "ERC721InvalidSender",
      "type": "error"
    },
    {
      "inputs": [
        {
          "internalType": "uint256",
          "name": "tokenId",
          "type": "uint256"
        }
      ],
      "name": "ERC721NonexistentToken",
      "type": "error"
    },
    {
      "inputs": [
        {
          "internalType": "address",
          "name": "owner",
          "type": "address"
        },
        {
          "internalType": "uint256",
          "name": "index",
          "type": "uint256"
        }
      ],
      "name": "ERC721OutOfBoundsIndex",
      "type": "error"
    },
    {
      "anonymous": false,
      "inputs": [
        {
          "indexed": true,
          "internalType": "address",
          "name": "owner",
          "type": "address"
        },
        {
          "indexed": true,
          "internalType": "address",
          "name": "approved",
          "type": "address"
        },
        {
          "indexed": true,
          "internalType": "uint256",
          "name": "tokenId",
          "type": "uint256"
        }
      ],
      "name": "Approval",
      "type": "event"
    },
    {
      "anonymous": false,
      "inputs": [
        {
          "indexed": true,
          "internalType": "address",
          "name": "owner",
          "type": "address"
        },
        {
          "indexed": true,
          "internalType": "address",
          "name": "operator",
          "type": "address"
        },
        {
          "indexed": false,
          "internalType": "bool",
          "name": "approved",
          "type": "bool"
        }
      ],
      "name": "ApprovalForAll",
      "type": "event"
    },
    {
      "anonymous": false,
      "inputs": [
        {
          "indexed": false,
          "internalType": "uint256",
          "name": "_fromTokenId",
          "type": "uint256"
        },
        {
          "indexed": false,
          "internalType": "uint256",
          "name": "_toTokenId",
          "type": "uint256"
        }
      ],
      "name": "BatchMetadataUpdate",
      "type": "event"
    },
    {
      "anonymous": false,
      "inputs": [
        {
          "indexed": false,
          "internalType": "uint256",
          "name": "_tokenId",
          "type": "uint256"
        }
      ],
      "name": "MetadataUpdate",
      "type": "event"
    },
    {
      "anonymous": false,
      "inputs": [
        {
          "indexed": true,
          "internalType": "address",
          "name": "from",
          "type": "address"
        },
        {
          "indexed": true,
          "internalType": "address",
          "name": "to",
          "type": "address"
        },
        {
          "indexed": true,
          "internalType": "uint256",
          "name": "tokenId",
          "type": "uint256"
        }
      ],
      "name": "Transfer",
      "type": "event"
    },
    {
      "inputs": [
        {
          "internalType": "address",
          "name": "to",
          "type": "address"
        },
        {
          "internalType": "uint256",
          "name": "tokenId",
          "type": "uint256"
        }
      ],
      "name": "approve",
      "outputs": [],
      "stateMutability": "nonpayable",
      "type": "function"
    },
    {
      "inputs": [
        {
          "internalType": "address",
          "name": "owner",
          "type": "address"
        }
      ],
      "name": "balanceOf",
      "outputs": [
        {
          "internalType": "uint256",
          "name": "",
          "type": "uint256"
        }
      ],
      "stateMutability": "view",
      "type": "function"
    },
    {
      "inputs": [
        {
          "internalType": "uint256",
          "name": "tokenId",
          "type": "uint256"
        }
      ],
      "name": "getApproved",
      "outputs": [
        {
          "internalType": "address",
          "name": "",
          "type": "address"
        }
      ],
      "stateMutability": "view",
      "type": "function"
    },
    {
      "inputs": [
        {
          "internalType": "uint256",
          "name": "tokenId",
          "type": "uint256"
        }
      ],
      "name": "getEquippedTraits",
      "outputs": [
        {
          "internalType": "uint256[7]",
          "name": "",
          "type": "uint256[7]"
        }
      ],
      "stateMutability": "view",
      "type": "function"
    },
    {
      "inputs": [
        {
          "internalType": "address",
          "name": "owner",
          "type": "address"
        },
        {
          "internalType": "address",
          "name": "operator",
          "type": "address"
        }
      ],
      "name": "isApprovedForAll",
      "outputs": [
        {
          "internalType": "bool",
          "name": "",
          "type": "bool"
        }
      ],
      "stateMutability": "view",
      "type": "function"
    },
    {
      "inputs": [
        {
          "internalType": "uint256[4]",
          "name": "necessaryTraits",
          "type": "uint256[4]"
        },
        {
          "internalType": "string",
          "name": "tokenUri",
          "type": "string"
        }
      ],
      "name": "mintWithTraits",
      "outputs": [],
      "stateMutability": "nonpayable",
      "type": "function"
    },
    {
      "inputs": [],
      "name": "name",
      "outputs": [
        {
          "internalType": "string",
          "name": "",
          "type": "string"
        }
      ],
      "stateMutability": "view",
      "type": "function"
    },
    {
      "inputs": [
        {
          "internalType": "uint256",
          "name": "tokenId",
          "type": "uint256"
        }
      ],
      "name": "ownerOf",
      "outputs": [
        {
          "internalType": "address",
          "name": "",
          "type": "address"
        }
      ],
      "stateMutability": "view",
      "type": "function"
    },
    {
      "inputs": [
        {
          "internalType": "address",
          "name": "from",
          "type": "address"
        },
        {
          "internalType": "address",
          "name": "to",
          "type": "address"
        },
        {
          "internalType": "uint256",
          "name": "tokenId",
          "type": "uint256"
        }
      ],
      "name": "safeTransferFrom",
      "outputs": [],
      "stateMutability": "nonpayable",
      "type": "function"
    },
    {
      "inputs": [
        {
          "internalType": "address",
          "name": "from",
          "type": "address"
        },
        {
          "internalType": "address",
          "name": "to",
          "type": "address"
        },
        {
          "internalType": "uint256",
          "name": "tokenId",
          "type": "uint256"
        },
        {
          "internalType": "bytes",
          "name": "data",
          "type": "bytes"
        }
      ],
      "name": "safeTransferFrom",
      "outputs": [],
      "stateMutability": "nonpayable",
      "type": "function"
    },
    {
      "inputs": [
        {
          "internalType": "address",
          "name": "operator",
          "type": "address"
        },
        {
          "internalType": "bool",
          "name": "approved",
          "type": "bool"
        }
      ],
      "name": "setApprovalForAll",
      "outputs": [],
      "stateMutability": "nonpayable",
      "type": "function"
    },
    {
      "inputs": [
        {
          "internalType": "bytes4",
          "name": "interfaceId",
          "type": "bytes4"
        }
      ],
      "name": "supportsInterface",
      "outputs": [
        {
          "internalType": "bool",
          "name": "",
          "type": "bool"
        }
      ],
      "stateMutability": "view",
      "type": "function"
    },
    {
      "inputs": [],
      "name": "symbol",
      "outputs": [
        {
          "internalType": "string",
          "name": "",
          "type": "string"
        }
      ],
      "stateMutability": "view",
      "type": "function"
    },
    {
      "inputs": [
        {
          "internalType": "uint256",
          "name": "index",
          "type": "uint256"
        }
      ],
      "name": "tokenByIndex",
      "outputs": [
        {
          "internalType": "uint256",
          "name": "",
          "type": "uint256"
        }
      ],
      "stateMutability": "view",
      "type": "function"
    },
    {
      "inputs": [
        {
          "internalType": "address",
          "name": "owner",
          "type": "address"
        },
        {
          "internalType": "uint256",
          "name": "index",
          "type": "uint256"
        }
      ],
      "name": "tokenOfOwnerByIndex",
      "outputs": [
        {
          "internalType": "uint256",
          "name": "",
          "type": "uint256"
        }
      ],
      "stateMutability": "view",
      "type": "function"
    },
    {
      "inputs": [
        {
          "internalType": "uint256",
          "name": "tokenId",
          "type": "uint256"
        }
      ],
      "name": "tokenURI",
      "outputs": [
        {
          "internalType": "string",
          "name": "",
          "type": "string"
        }
      ],
      "stateMutability": "view",
      "type": "function"
    },
    {
      "inputs": [],
      "name": "totalSupply",
      "outputs": [
        {
          "internalType": "uint256",
          "name": "",
          "type": "uint256"
        }
      ],
      "stateMutability": "view",
      "type": "function"
    },
    {
      "inputs": [],
      "name": "traitContract",
      "outputs": [
        {
          "internalType": "address",
          "name": "",
          "type": "address"
        }
      ],
      "stateMutability": "view",
      "type": "function"
    },
    {
      "inputs": [
        {
          "internalType": "address",
          "name": "from",
          "type": "address"
        },
        {
          "internalType": "address",
          "name": "to",
          "type": "address"
        },
        {
          "internalType": "uint256",
          "name": "tokenId",
          "type": "uint256"
        }
      ],
      "name": "transferFrom",
      "outputs": [],
      "stateMutability": "nonpayable",
      "type": "function"
    },
    {
      "inputs": [
        {
          "internalType": "uint256",
          "name": "tokenId",
          "type": "uint256"
        },
        {
          "internalType": "uint256[]",
          "name": "newTraitIds",
          "type": "uint256[]"
        },
        {
          "internalType": "uint8[]",
          "name": "traitSlots",
          "type": "uint8[]"
        },
        {
          "internalType": "string",
          "name": "newTokenUri",
          "type": "string"
        }
      ],
      "name": "updateTraits",
      "outputs": [],
      "stateMutability": "nonpayable",
      "type": "function"
    }
  ],
  "bytecode": "0x60a06040523480156200001157600080fd5b5060405162003e5b38038062003e5b833981810160405281019062000037919062000176565b6040518060400160405280600d81526020017f536f6c6172205365656b657273000000000000000000000000000000000000008152506040518060400160405280600c81526020017f536f6c61725365656b65727300000000000000000000000000000000000000008152508160009081620000b4919062000422565b508060019081620000c6919062000422565b5050508073ffffffffffffffffffffffffffffffffffffffff1660808173ffffffffffffffffffffffffffffffffffffffff16815250506001600b819055505062000509565b600080fd5b600073ffffffffffffffffffffffffffffffffffffffff82169050919050565b60006200013e8262000111565b9050919050565b620001508162000131565b81146200015c57600080fd5b50565b600081519050620001708162000145565b92915050565b6000602082840312156200018f576200018e6200010c565b5b60006200019f848285016200015f565b91505092915050565b600081519050919050565b7f4e487b7100000000000000000000000000000000000000000000000000000000600052604160045260246000fd5b7f4e487b7100000000000000000000000000000000000000000000000000000000600052602260045260246000fd5b600060028204905060018216806200022a57607f821691505b60208210810362000240576200023f620001e2565b5b50919050565b60008190508160005260206000209050919050565b60006020601f8301049050919050565b600082821b905092915050565b600060088302620002aa7fffffffffffffffffffffffffffffffffffffffffffffffffffffffffffffffff826200026b565b620002b686836200026b565b95508019841693508086168417925050509392505050565b6000819050919050565b6000819050919050565b600062000303620002fd620002f784620002ce565b620002d8565b620002ce565b9050919050565b6000819050919050565b6200031f83620002e2565b620003376200032e826200030a565b84845462000278565b825550505050565b600090565b6200034e6200033f565b6200035b81848462000314565b505050565b5b8181101562000383576200037760008262000344565b60018101905062000361565b5050565b601f821115620003d2576200039c8162000246565b620003a7846200025b565b81016020851015620003b7578190505b620003cf620003c6856200025b565b83018262000360565b50505b505050565b600082821c905092915050565b6000620003f760001984600802620003d7565b1980831691505092915050565b6000620004128383620003e4565b9150826002028217905092915050565b6200042d82620001a8565b67ffffffffffffffff811115620004495762000448620001b3565b5b62000455825462000211565b6200046282828562000387565b600060209050601f8311600181146200049a576000841562000485578287015190505b62000491858262000404565b86555062000501565b601f198416620004aa8662000246565b60005b82811015620004d457848901518255600182019150602085019450602081019050620004ad565b86831015620004f45784890151620004f0601f891682620003e4565b8355505b6001600288020188555050505b505050505050565b608051613928620005336000396000818161089f01528181610da70152610fbc01526139286000f3fe608060405234801561001057600080fd5b506004361061012c5760003560e01c80634f6ccce7116100ad578063a22cb46511610071578063a22cb46514610355578063b88d4fde14610371578063c87b56dd1461038d578063e985e9c5146103bd578063f3b35c39146103ed5761012c565b80634f6ccce7146102895780635601a1da146102b95780636352211e146102d757806370a082311461030757806395d89b41146103375761012c565b80631905c9b9116100f45780631905c9b9146101e957806321e5b44f1461020557806323b872dd146102215780632f745c591461023d57806342842e0e1461026d5761012c565b806301ffc9a71461013157806306fdde0314610161578063081812fc1461017f578063095ea7b3146101af57806318160ddd146101cb575b600080fd5b61014b6004803603810190610146919061264a565b61041d565b6040516101589190612692565b60405180910390f35b61016961042f565b604051610176919061273d565b60405180910390f35b61019960048036038101906101949190612795565b6104c1565b6040516101a69190612803565b60405180910390f35b6101c960048036038101906101c4919061284a565b6104dd565b005b6101d36104f3565b6040516101e09190612899565b60405180910390f35b61020360048036038101906101fe9190612a10565b610500565b005b61021f600480360381019061021a9190612b1d565b610525565b005b61023b60048036038101906102369190612be0565b61065c565b005b6102576004803603810190610252919061284a565b61075e565b6040516102649190612899565b60405180910390f35b61028760048036038101906102829190612be0565b610807565b005b6102a3600480360381019061029e9190612795565b610827565b6040516102b09190612899565b60405180910390f35b6102c161089d565b6040516102ce9190612803565b60405180910390f35b6102f160048036038101906102ec9190612795565b6108c1565b6040516102fe9190612803565b60405180910390f35b610321600480360381019061031c9190612c33565b6108d3565b60405161032e9190612899565b60405180910390f35b61033f61098d565b60405161034c919061273d565b60405180910390f35b61036f600480360381019061036a9190612c8c565b610a1f565b005b61038b60048036038101906103869190612d6d565b610a35565b005b6103a760048036038101906103a29190612795565b610a52565b6040516103b4919061273d565b60405180910390f35b6103d760048036038101906103d29190612df0565b610a64565b6040516103e49190612692565b60405180910390f35b61040760048036038101906104029190612795565b610af8565b6040516104149190612edb565b60405180910390f35b600061042882610c42565b9050919050565b60606000805461043e90612f25565b80601f016020809104026020016040519081016040528092919081815260200182805461046a90612f25565b80156104b75780601f1061048c576101008083540402835291602001916104b7565b820191906000526020600020905b81548152906001019060200180831161049a57829003601f168201915b5050505050905090565b60006104cc82610ca3565b506104d682610d2b565b9050919050565b6104ef82826104ea610d68565b610d70565b5050565b6000600880549050905090565b61050982610d82565b600061051482610ebd565b90506105208184610efa565b505050565b3373ffffffffffffffffffffffffffffffffffffffff16610545876108c1565b73ffffffffffffffffffffffffffffffffffffffff161461059b576040517f08c379a000000000000000000000000000000000000000000000000000000000815260040161059290612fa2565b60405180910390fd5b8282905085859050146105e3576040517f08c379a00000000000000000000000000000000000000000000000000000000081526004016105da9061300e565b60405180910390fd5b60005b858590508110156106495761063c878787848181106106085761060761302e565b5b905060200201358686858181106106225761062161302e565b5b90506020020160208101906106379190613096565b610f5d565b80806001019150506105e6565b506106548682611172565b505050505050565b600073ffffffffffffffffffffffffffffffffffffffff168273ffffffffffffffffffffffffffffffffffffffff16036106ce5760006040517f64a0ae920000000000000000000000000000000000000000000000000000000081526004016106c59190612803565b60405180910390fd5b60006106e283836106dd610d68565b6111ce565b90508373ffffffffffffffffffffffffffffffffffffffff168173ffffffffffffffffffffffffffffffffffffffff1614610758578382826040517f64283d7b00000000000000000000000000000000000000000000000000000000815260040161074f939291906130c3565b60405180910390fd5b50505050565b6000610769836108d3565b82106107ae5782826040517fa57d13dc0000000000000000000000000000000000000000000000000000000081526004016107a59291906130fa565b60405180910390fd5b600660008473ffffffffffffffffffffffffffffffffffffffff1673ffffffffffffffffffffffffffffffffffffffff168152602001908152602001600020600083815260200190815260200160002054905092915050565b61082283838360405180602001604052806000815250610a35565b505050565b60006108316104f3565b8210610877576000826040517fa57d13dc00000000000000000000000000000000000000000000000000000000815260040161086e9291906130fa565b60405180910390fd5b6008828154811061088b5761088a61302e565b5b90600052602060002001549050919050565b7f000000000000000000000000000000000000000000000000000000000000000081565b60006108cc82610ca3565b9050919050565b60008073ffffffffffffffffffffffffffffffffffffffff168273ffffffffffffffffffffffffffffffffffffffff16036109465760006040517f89c62b6400000000000000000000000000000000000000000000000000000000815260040161093d9190612803565b60405180910390fd5b600360008373ffffffffffffffffffffffffffffffffffffffff1673ffffffffffffffffffffffffffffffffffffffff168152602001908152602001600020549050919050565b60606001805461099c90612f25565b80601f01602080910402602001604051908101604052809291908181526020018280546109c890612f25565b8015610a155780601f106109ea57610100808354040283529160200191610a15565b820191906000526020600020905b8154815290600101906020018083116109f857829003601f168201915b5050505050905090565b610a31610a2a610d68565b83836111e4565b5050565b610a4084848461065c565b610a4c84848484611353565b50505050565b6060610a5d8261150a565b9050919050565b6000600560008473ffffffffffffffffffffffffffffffffffffffff1673ffffffffffffffffffffffffffffffffffffffff16815260200190815260200160002060008373ffffffffffffffffffffffffffffffffffffffff1673ffffffffffffffffffffffffffffffffffffffff16815260200190815260200160002060009054906101000a900460ff16905092915050565b610b006125bc565b610b098261161d565b610b48576040517f08c379a0000000000000000000000000000000000000000000000000000000008152600401610b3f9061316f565b60405180910390fd5b6000600c600084815260200190815260200160002090506040518060e0016040528082600001600060048110610b8157610b8061302e565b5b0154815260200182600001600160048110610b9f57610b9e61302e565b5b0154815260200182600001600260048110610bbd57610bbc61302e565b5b0154815260200182600001600360048110610bdb57610bda61302e565b5b0154815260200182600401600060038110610bf957610bf861302e565b5b0154815260200182600401600160038110610c1757610c1661302e565b5b0154815260200182600401600260038110610c3557610c3461302e565b5b0154815250915050919050565b6000634906490660e01b7bffffffffffffffffffffffffffffffffffffffffffffffffffffffff1916827bffffffffffffffffffffffffffffffffffffffffffffffffffffffff19161480610c9c5750610c9b8261165e565b5b9050919050565b600080610caf836116d8565b9050600073ffffffffffffffffffffffffffffffffffffffff168173ffffffffffffffffffffffffffffffffffffffff1603610d2257826040517f7e273289000000000000000000000000000000000000000000000000000000008152600401610d199190612899565b60405180910390fd5b80915050919050565b60006004600083815260200190815260200160002060009054906101000a900473ffffffffffffffffffffffffffffffffffffffff169050919050565b600033905090565b610d7d8383836001611715565b505050565b60005b6004811015610eb9573373ffffffffffffffffffffffffffffffffffffffff167f000000000000000000000000000000000000000000000000000000000000000073ffffffffffffffffffffffffffffffffffffffff16636352211e848460048110610df457610df361302e565b5b60200201356040518263ffffffff1660e01b8152600401610e159190612899565b602060405180830381865afa158015610e32573d6000803e3d6000fd5b505050506040513d601f19601f82011682018060405250810190610e5691906131a4565b73ffffffffffffffffffffffffffffffffffffffff1614610eac576040517f08c379a0000000000000000000000000000000000000000000000000000000008152600401610ea390613243565b60405180910390fd5b8080600101915050610d85565b5050565b600080600b549050610ecf33826118da565b610ed98184611172565b600b6000815480929190610eec90613292565b919050555080915050919050565b60005b6004811015610f5857818160048110610f1957610f1861302e565b5b6020020135600c60008581526020019081526020016000206000018260048110610f4657610f4561302e565b5b01819055508080600101915050610efd565b505050565b60078160ff1610610fa3576040517f08c379a0000000000000000000000000000000000000000000000000000000008152600401610f9a9061334c565b60405180910390fd5b3373ffffffffffffffffffffffffffffffffffffffff167f000000000000000000000000000000000000000000000000000000000000000073ffffffffffffffffffffffffffffffffffffffff16636352211e846040518263ffffffff1660e01b81526004016110139190612899565b602060405180830381865afa158015611030573d6000803e3d6000fd5b505050506040513d601f19601f8201168201806040525081019061105491906131a4565b73ffffffffffffffffffffffffffffffffffffffff16146110aa576040517f08c379a00000000000000000000000000000000000000000000000000000000081526004016110a1906133b8565b60405180910390fd5b60048160ff16101561112f57600082036110f9576040517f08c379a00000000000000000000000000000000000000000000000000000000081526004016110f09061344a565b60405180910390fd5b81600c60008581526020019081526020016000206000018260ff16600481106111255761112461302e565b5b018190555061116d565b81600c6000858152602001908152602001600020600401600483611153919061346a565b60ff16600381106111675761116661302e565b5b01819055505b505050565b80600a60008481526020019081526020016000209081611192919061364b565b507ff8e1a15aba9398e019f0b49df1a4fde98ee17ae345cb5f6b5e2c27f5033e8ce7826040516111c29190612899565b60405180910390a15050565b60006111db8484846118f8565b90509392505050565b600073ffffffffffffffffffffffffffffffffffffffff168273ffffffffffffffffffffffffffffffffffffffff160361125557816040517f5b08ba1800000000000000000000000000000000000000000000000000000000815260040161124c9190612803565b60405180910390fd5b80600560008573ffffffffffffffffffffffffffffffffffffffff1673ffffffffffffffffffffffffffffffffffffffff16815260200190815260200160002060008473ffffffffffffffffffffffffffffffffffffffff1673ffffffffffffffffffffffffffffffffffffffff16815260200190815260200160002060006101000a81548160ff0219169083151502179055508173ffffffffffffffffffffffffffffffffffffffff168373ffffffffffffffffffffffffffffffffffffffff167f17307eab39ab6107e8899845ad3d59bd9653f200f220920489ca2b5937696c31836040516113469190612692565b60405180910390a3505050565b60008373ffffffffffffffffffffffffffffffffffffffff163b1115611504578273ffffffffffffffffffffffffffffffffffffffff1663150b7a02611397610d68565b8685856040518563ffffffff1660e01b81526004016113b99493929190613772565b6020604051808303816000875af19250505080156113f557506040513d601f19601f820116820180604052508101906113f291906137d3565b60015b611479573d8060008114611425576040519150601f19603f3d011682016040523d82523d6000602084013e61142a565b606091505b50600081510361147157836040517f64a0ae920000000000000000000000000000000000000000000000000000000081526004016114689190612803565b60405180910390fd5b805181602001fd5b63150b7a0260e01b7bffffffffffffffffffffffffffffffffffffffffffffffffffffffff1916817bffffffffffffffffffffffffffffffffffffffffffffffffffffffff19161461150257836040517f64a0ae920000000000000000000000000000000000000000000000000000000081526004016114f99190612803565b60405180910390fd5b505b50505050565b606061151582610ca3565b506000600a6000848152602001908152602001600020805461153690612f25565b80601f016020809104026020016040519081016040528092919081815260200182805461156290612f25565b80156115af5780601f10611584576101008083540402835291602001916115af565b820191906000526020600020905b81548152906001019060200180831161159257829003601f168201915b5050505050905060006115c0611a15565b905060008151036115d5578192505050611618565b60008251111561160a5780826040516020016115f292919061383c565b60405160208183030381529060405292505050611618565b61161384611a2c565b925050505b919050565b60008073ffffffffffffffffffffffffffffffffffffffff1661163f836116d8565b73ffffffffffffffffffffffffffffffffffffffff1614159050919050565b60007f780e9d63000000000000000000000000000000000000000000000000000000007bffffffffffffffffffffffffffffffffffffffffffffffffffffffff1916827bffffffffffffffffffffffffffffffffffffffffffffffffffffffff191614806116d157506116d082611a95565b5b9050919050565b60006002600083815260200190815260200160002060009054906101000a900473ffffffffffffffffffffffffffffffffffffffff169050919050565b808061174e5750600073ffffffffffffffffffffffffffffffffffffffff168273ffffffffffffffffffffffffffffffffffffffff1614155b1561188257600061175e84610ca3565b9050600073ffffffffffffffffffffffffffffffffffffffff168373ffffffffffffffffffffffffffffffffffffffff16141580156117c957508273ffffffffffffffffffffffffffffffffffffffff168173ffffffffffffffffffffffffffffffffffffffff1614155b80156117dc57506117da8184610a64565b155b1561181e57826040517fa9fbf51f0000000000000000000000000000000000000000000000000000000081526004016118159190612803565b60405180910390fd5b811561188057838573ffffffffffffffffffffffffffffffffffffffff168273ffffffffffffffffffffffffffffffffffffffff167f8c5be1e5ebec7d5bd14f71427d1e84f3dd0314c0f7b2291e5b200ac8c7c3b92560405160405180910390a45b505b836004600085815260200190815260200160002060006101000a81548173ffffffffffffffffffffffffffffffffffffffff021916908373ffffffffffffffffffffffffffffffffffffffff16021790555050505050565b6118f4828260405180602001604052806000815250611b77565b5050565b600080611906858585611b93565b9050600073ffffffffffffffffffffffffffffffffffffffff168173ffffffffffffffffffffffffffffffffffffffff160361194a5761194584611dad565b611989565b8473ffffffffffffffffffffffffffffffffffffffff168173ffffffffffffffffffffffffffffffffffffffff1614611988576119878185611df6565b5b5b600073ffffffffffffffffffffffffffffffffffffffff168573ffffffffffffffffffffffffffffffffffffffff16036119cb576119c684611f57565b611a0a565b8473ffffffffffffffffffffffffffffffffffffffff168173ffffffffffffffffffffffffffffffffffffffff1614611a0957611a088585612028565b5b5b809150509392505050565b606060405180602001604052806000815250905090565b6060611a3782610ca3565b506000611a42611a15565b90506000815111611a625760405180602001604052806000815250611a8d565b80611a6c846120b3565b604051602001611a7d92919061383c565b6040516020818303038152906040525b915050919050565b60007f80ac58cd000000000000000000000000000000000000000000000000000000007bffffffffffffffffffffffffffffffffffffffffffffffffffffffff1916827bffffffffffffffffffffffffffffffffffffffffffffffffffffffff19161480611b6057507f5b5e139f000000000000000000000000000000000000000000000000000000007bffffffffffffffffffffffffffffffffffffffffffffffffffffffff1916827bffffffffffffffffffffffffffffffffffffffffffffffffffffffff1916145b80611b705750611b6f82612181565b5b9050919050565b611b8183836121eb565b611b8e6000848484611353565b505050565b600080611b9f846116d8565b9050600073ffffffffffffffffffffffffffffffffffffffff168373ffffffffffffffffffffffffffffffffffffffff1614611be157611be08184866122e4565b5b600073ffffffffffffffffffffffffffffffffffffffff168173ffffffffffffffffffffffffffffffffffffffff1614611c7257611c23600085600080611715565b6001600360008373ffffffffffffffffffffffffffffffffffffffff1673ffffffffffffffffffffffffffffffffffffffff168152602001908152602001600020600082825403925050819055505b600073ffffffffffffffffffffffffffffffffffffffff168573ffffffffffffffffffffffffffffffffffffffff1614611cf5576001600360008773ffffffffffffffffffffffffffffffffffffffff1673ffffffffffffffffffffffffffffffffffffffff168152602001908152602001600020600082825401925050819055505b846002600086815260200190815260200160002060006101000a81548173ffffffffffffffffffffffffffffffffffffffff021916908373ffffffffffffffffffffffffffffffffffffffff160217905550838573ffffffffffffffffffffffffffffffffffffffff168273ffffffffffffffffffffffffffffffffffffffff167fddf252ad1be2c89b69c2b068fc378daa952ba7f163c4a11628f55a4df523b3ef60405160405180910390a4809150509392505050565b6008805490506009600083815260200190815260200160002081905550600881908060018154018082558091505060019003906000526020600020016000909190919091505550565b6000611e01836108d3565b9050600060076000848152602001908152602001600020549050818114611ee6576000600660008673ffffffffffffffffffffffffffffffffffffffff1673ffffffffffffffffffffffffffffffffffffffff168152602001908152602001600020600084815260200190815260200160002054905080600660008773ffffffffffffffffffffffffffffffffffffffff1673ffffffffffffffffffffffffffffffffffffffff168152602001908152602001600020600084815260200190815260200160002081905550816007600083815260200190815260200160002081905550505b6007600084815260200190815260200160002060009055600660008573ffffffffffffffffffffffffffffffffffffffff1673ffffffffffffffffffffffffffffffffffffffff16815260200190815260200160002060008381526020019081526020016000206000905550505050565b60006001600880549050611f6b9190613860565b9050600060096000848152602001908152602001600020549050600060088381548110611f9b57611f9a61302e565b5b906000526020600020015490508060088381548110611fbd57611fbc61302e565b5b90600052602060002001819055508160096000838152602001908152602001600020819055506009600085815260200190815260200160002060009055600880548061200c5761200b613894565b5b6001900381819060005260206000200160009055905550505050565b60006001612035846108d3565b61203f9190613860565b905081600660008573ffffffffffffffffffffffffffffffffffffffff1673ffffffffffffffffffffffffffffffffffffffff168152602001908152602001600020600083815260200190815260200160002081905550806007600084815260200190815260200160002081905550505050565b6060600060016120c2846123a8565b01905060008167ffffffffffffffff8111156120e1576120e06128e5565b5b6040519080825280601f01601f1916602001820160405280156121135781602001600182028036833780820191505090505b509050600082602001820190505b600115612176578080600190039150507f3031323334353637383961626364656600000000000000000000000000000000600a86061a8153600a858161216a576121696138c3565b5b04945060008503612121575b819350505050919050565b60007f01ffc9a7000000000000000000000000000000000000000000000000000000007bffffffffffffffffffffffffffffffffffffffffffffffffffffffff1916827bffffffffffffffffffffffffffffffffffffffffffffffffffffffff1916149050919050565b600073ffffffffffffffffffffffffffffffffffffffff168273ffffffffffffffffffffffffffffffffffffffff160361225d5760006040517f64a0ae920000000000000000000000000000000000000000000000000000000081526004016122549190612803565b60405180910390fd5b600061226b838360006111ce565b9050600073ffffffffffffffffffffffffffffffffffffffff168173ffffffffffffffffffffffffffffffffffffffff16146122df5760006040517f73c6ac6e0000000000000000000000000000000000000000000000000000000081526004016122d69190612803565b60405180910390fd5b505050565b6122ef8383836124fb565b6123a357600073ffffffffffffffffffffffffffffffffffffffff168373ffffffffffffffffffffffffffffffffffffffff160361236457806040517f7e27328900000000000000000000000000000000000000000000000000000000815260040161235b9190612899565b60405180910390fd5b81816040517f177e802f00000000000000000000000000000000000000000000000000000000815260040161239a9291906130fa565b60405180910390fd5b505050565b600080600090507a184f03e93ff9f4daa797ed6e38ed64bf6a1f0100000000000000008310612406577a184f03e93ff9f4daa797ed6e38ed64bf6a1f01000000000000000083816123fc576123fb6138c3565b5b0492506040810190505b6d04ee2d6d415b85acef81000000008310612443576d04ee2d6d415b85acef81000000008381612439576124386138c3565b5b0492506020810190505b662386f26fc10000831061247257662386f26fc100008381612468576124676138c3565b5b0492506010810190505b6305f5e100831061249b576305f5e1008381612491576124906138c3565b5b0492506008810190505b61271083106124c05761271083816124b6576124b56138c3565b5b0492506004810190505b606483106124e357606483816124d9576124d86138c3565b5b0492506002810190505b600a83106124f2576001810190505b80915050919050565b60008073ffffffffffffffffffffffffffffffffffffffff168373ffffffffffffffffffffffffffffffffffffffff16141580156125b357508273ffffffffffffffffffffffffffffffffffffffff168473ffffffffffffffffffffffffffffffffffffffff16148061257457506125738484610a64565b5b806125b257508273ffffffffffffffffffffffffffffffffffffffff1661259a83610d2b565b73ffffffffffffffffffffffffffffffffffffffff16145b5b90509392505050565b6040518060e00160405280600790602082028036833780820191505090505090565b6000604051905090565b600080fd5b600080fd5b60007fffffffff0000000000000000000000000000000000000000000000000000000082169050919050565b612627816125f2565b811461263257600080fd5b50565b6000813590506126448161261e565b92915050565b6000602082840312156126605761265f6125e8565b5b600061266e84828501612635565b91505092915050565b60008115159050919050565b61268c81612677565b82525050565b60006020820190506126a76000830184612683565b92915050565b600081519050919050565b600082825260208201905092915050565b60005b838110156126e75780820151818401526020810190506126cc565b60008484015250505050565b6000601f19601f8301169050919050565b600061270f826126ad565b61271981856126b8565b93506127298185602086016126c9565b612732816126f3565b840191505092915050565b600060208201905081810360008301526127578184612704565b905092915050565b6000819050919050565b6127728161275f565b811461277d57600080fd5b50565b60008135905061278f81612769565b92915050565b6000602082840312156127ab576127aa6125e8565b5b60006127b984828501612780565b91505092915050565b600073ffffffffffffffffffffffffffffffffffffffff82169050919050565b60006127ed826127c2565b9050919050565b6127fd816127e2565b82525050565b600060208201905061281860008301846127f4565b92915050565b612827816127e2565b811461283257600080fd5b50565b6000813590506128448161281e565b92915050565b60008060408385031215612861576128606125e8565b5b600061286f85828601612835565b925050602061288085828601612780565b9150509250929050565b6128938161275f565b82525050565b60006020820190506128ae600083018461288a565b92915050565b600080fd5b6000819050826020600402820111156128d5576128d46128b4565b5b92915050565b600080fd5b600080fd5b7f4e487b7100000000000000000000000000000000000000000000000000000000600052604160045260246000fd5b61291d826126f3565b810181811067ffffffffffffffff8211171561293c5761293b6128e5565b5b80604052505050565b600061294f6125de565b905061295b8282612914565b919050565b600067ffffffffffffffff82111561297b5761297a6128e5565b5b612984826126f3565b9050602081019050919050565b82818337600083830152505050565b60006129b36129ae84612960565b612945565b9050828152602081018484840111156129cf576129ce6128e0565b5b6129da848285612991565b509392505050565b600082601f8301126129f7576129f66128db565b5b8135612a078482602086016129a0565b91505092915050565b60008060a08385031215612a2757612a266125e8565b5b6000612a35858286016128b9565b925050608083013567ffffffffffffffff811115612a5657612a556125ed565b5b612a62858286016129e2565b9150509250929050565b600080fd5b60008083601f840112612a8757612a866128db565b5b8235905067ffffffffffffffff811115612aa457612aa3612a6c565b5b602083019150836020820283011115612ac057612abf6128b4565b5b9250929050565b60008083601f840112612add57612adc6128db565b5b8235905067ffffffffffffffff811115612afa57612af9612a6c565b5b602083019150836020820283011115612b1657612b156128b4565b5b9250929050565b60008060008060008060808789031215612b3a57612b396125e8565b5b6000612b4889828a01612780565b965050602087013567ffffffffffffffff811115612b6957612b686125ed565b5b612b7589828a01612a71565b9550955050604087013567ffffffffffffffff811115612b9857612b976125ed565b5b612ba489828a01612ac7565b9350935050606087013567ffffffffffffffff811115612bc757612bc66125ed565b5b612bd389828a016129e2565b9150509295509295509295565b600080600060608486031215612bf957612bf86125e8565b5b6000612c0786828701612835565b9350506020612c1886828701612835565b9250506040612c2986828701612780565b9150509250925092565b600060208284031215612c4957612c486125e8565b5b6000612c5784828501612835565b91505092915050565b612c6981612677565b8114612c7457600080fd5b50565b600081359050612c8681612c60565b92915050565b60008060408385031215612ca357612ca26125e8565b5b6000612cb185828601612835565b9250506020612cc285828601612c77565b9150509250929050565b600067ffffffffffffffff821115612ce757612ce66128e5565b5b612cf0826126f3565b9050602081019050919050565b6000612d10612d0b84612ccc565b612945565b905082815260208101848484011115612d2c57612d2b6128e0565b5b612d37848285612991565b509392505050565b600082601f830112612d5457612d536128db565b5b8135612d64848260208601612cfd565b91505092915050565b60008060008060808587031215612d8757612d866125e8565b5b6000612d9587828801612835565b9450506020612da687828801612835565b9350506040612db787828801612780565b925050606085013567ffffffffffffffff811115612dd857612dd76125ed565b5b612de487828801612d3f565b91505092959194509250565b60008060408385031215612e0757612e066125e8565b5b6000612e1585828601612835565b9250506020612e2685828601612835565b9150509250929050565b600060079050919050565b600081905092915050565b6000819050919050565b612e598161275f565b82525050565b6000612e6b8383612e50565b60208301905092915050565b6000602082019050919050565b612e8d81612e30565b612e978184612e3b565b9250612ea282612e46565b8060005b83811015612ed3578151612eba8782612e5f565b9650612ec583612e77565b925050600181019050612ea6565b505050505050565b600060e082019050612ef06000830184612e84565b92915050565b7f4e487b7100000000000000000000000000000000000000000000000000000000600052602260045260246000fd5b60006002820490506001821680612f3d57607f821691505b602082108103612f5057612f4f612ef6565b5b50919050565b7f4e6f7420746865206f776e6572206f662074686973204e465400000000000000600082015250565b6000612f8c6019836126b8565b9150612f9782612f56565b602082019050919050565b60006020820190508181036000830152612fbb81612f7f565b9050919050565b7f4d69736d61746368656420696e707574206c656e677468730000000000000000600082015250565b6000612ff86018836126b8565b915061300382612fc2565b602082019050919050565b6000602082019050818103600083015261302781612feb565b9050919050565b7f4e487b7100000000000000000000000000000000000000000000000000000000600052603260045260246000fd5b600060ff82169050919050565b6130738161305d565b811461307e57600080fd5b50565b6000813590506130908161306a565b92915050565b6000602082840312156130ac576130ab6125e8565b5b60006130ba84828501613081565b91505092915050565b60006060820190506130d860008301866127f4565b6130e5602083018561288a565b6130f260408301846127f4565b949350505050565b600060408201905061310f60008301856127f4565b61311c602083018461288a565b9392505050565b7f546f6b656e20646f6573206e6f74206578697374000000000000000000000000600082015250565b60006131596014836126b8565b915061316482613123565b602082019050919050565b600060208201905081810360008301526131888161314c565b9050919050565b60008151905061319e8161281e565b92915050565b6000602082840312156131ba576131b96125e8565b5b60006131c88482850161318f565b91505092915050565b7f596f7520646f206e6f74206f776e20746865206e65636573736172792074726160008201527f6974204e46547300000000000000000000000000000000000000000000000000602082015250565b600061322d6027836126b8565b9150613238826131d1565b604082019050919050565b6000602082019050818103600083015261325c81613220565b9050919050565b7f4e487b7100000000000000000000000000000000000000000000000000000000600052601160045260246000fd5b600061329d8261275f565b91507fffffffffffffffffffffffffffffffffffffffffffffffffffffffffffffffff82036132cf576132ce613263565b5b600182019050919050565b7f496e76616c696420736c6f742c206d757374206265206265747765656e20302060008201527f616e642036000000000000000000000000000000000000000000000000000000602082015250565b60006133366025836126b8565b9150613341826132da565b604082019050919050565b6000602082019050818103600083015261336581613329565b9050919050565b7f596f7520646f206e6f74206f776e20746865207472616974204e465400000000600082015250565b60006133a2601c836126b8565b91506133ad8261336c565b602082019050919050565b600060208201905081810360008301526133d181613395565b9050919050565b7f4e6563657373617279207472616974732063616e6e6f7420626520756e65717560008201527f6970706564000000000000000000000000000000000000000000000000000000602082015250565b60006134346025836126b8565b915061343f826133d8565b604082019050919050565b6000602082019050818103600083015261346381613427565b9050919050565b60006134758261305d565b91506134808361305d565b9250828203905060ff81111561349957613498613263565b5b92915050565b60008190508160005260206000209050919050565b60006020601f8301049050919050565b600082821b905092915050565b6000600883026135017fffffffffffffffffffffffffffffffffffffffffffffffffffffffffffffffff826134c4565b61350b86836134c4565b95508019841693508086168417925050509392505050565b6000819050919050565b600061354861354361353e8461275f565b613523565b61275f565b9050919050565b6000819050919050565b6135628361352d565b61357661356e8261354f565b8484546134d1565b825550505050565b600090565b61358b61357e565b613596818484613559565b505050565b5b818110156135ba576135af600082613583565b60018101905061359c565b5050565b601f8211156135ff576135d08161349f565b6135d9846134b4565b810160208510156135e8578190505b6135fc6135f4856134b4565b83018261359b565b50505b505050565b600082821c905092915050565b600061362260001984600802613604565b1980831691505092915050565b600061363b8383613611565b9150826002028217905092915050565b613654826126ad565b67ffffffffffffffff81111561366d5761366c6128e5565b5b6136778254612f25565b6136828282856135be565b600060209050601f8311600181146136b557600084156136a3578287015190505b6136ad858261362f565b865550613715565b601f1984166136c38661349f565b60005b828110156136eb578489015182556001820191506020850194506020810190506136c6565b868310156137085784890151613704601f891682613611565b8355505b6001600288020188555050505b505050505050565b600081519050919050565b600082825260208201905092915050565b60006137448261371d565b61374e8185613728565b935061375e8185602086016126c9565b613767816126f3565b840191505092915050565b600060808201905061378760008301876127f4565b61379460208301866127f4565b6137a1604083018561288a565b81810360608301526137b38184613739565b905095945050505050565b6000815190506137cd8161261e565b92915050565b6000602082840312156137e9576137e86125e8565b5b60006137f7848285016137be565b91505092915050565b600081905092915050565b6000613816826126ad565b6138208185613800565b93506138308185602086016126c9565b80840191505092915050565b6000613848828561380b565b9150613854828461380b565b91508190509392505050565b600061386b8261275f565b91506138768361275f565b925082820390508181111561388e5761388d613263565b5b92915050565b7f4e487b7100000000000000000000000000000000000000000000000000000000600052603160045260246000fd5b7f4e487b7100000000000000000000000000000000000000000000000000000000600052601260045260246000fdfea2646970667358221220e931233f0b4f6dba98380bef8d31e65b6abed80a31db498119127b9a5c23dfc264736f6c63430008180033",
  "linkReferences": {},
  "deployedLinkReferences": {}
}