{
  "_format": "hh-sol-artifact-1",
  "contractName": "Traits",
  "sourceName": "contracts/Traits.sol",
  "abi": [
    {
      "inputs": [],
      "stateMutability": "nonpayable",
      "type": "constructor"
    },
    {
      "inputs": [],
      "name": "ERC721EnumerableForbiddenBatchMint",
      "type": "error"
    },
    {
      "inputs": [
        {
          "internalType": "address",
          "name": "sender",
          "type": "address"
        },
        {
          "internalType": "uint256",
          "name": "tokenId",
          "type": "uint256"
        },
        {
          "internalType": "address",
          "name": "owner",
          "type": "address"
        }
      ],
      "name": "ERC721IncorrectOwner",
      "type": "error"
    },
    {
      "inputs": [
        {
          "internalType": "address",
          "name": "operator",
          "type": "address"
        },
        {
          "internalType": "uint256",
          "name": "tokenId",
          "type": "uint256"
        }
      ],
      "name": "ERC721InsufficientApproval",
      "type": "error"
    },
    {
      "inputs": [
        {
          "internalType": "address",
          "name": "approver",
          "type": "address"
        }
      ],
      "name": "ERC721InvalidApprover",
      "type": "error"
    },
    {
      "inputs": [
        {
          "internalType": "address",
          "name": "operator",
          "type": "address"
        }
      ],
      "name": "ERC721InvalidOperator",
      "type": "error"
    },
    {
      "inputs": [
        {
          "internalType": "address",
          "name": "owner",
          "type": "address"
        }
      ],
      "name": "ERC721InvalidOwner",
      "type": "error"
    },
    {
      "inputs": [
        {
          "internalType": "address",
          "name": "receiver",
          "type": "address"
        }
      ],
      "name": "ERC721InvalidReceiver",
      "type": "error"
    },
    {
      "inputs": [
        {
          "internalType": "address",
          "name": "sender",
          "type": "address"
        }
      ],
      "name": "ERC721InvalidSender",
      "type": "error"
    },
    {
      "inputs": [
        {
          "internalType": "uint256",
          "name": "tokenId",
          "type": "uint256"
        }
      ],
      "name": "ERC721NonexistentToken",
      "type": "error"
    },
    {
      "inputs": [
        {
          "internalType": "address",
          "name": "owner",
          "type": "address"
        },
        {
          "internalType": "uint256",
          "name": "index",
          "type": "uint256"
        }
      ],
      "name": "ERC721OutOfBoundsIndex",
      "type": "error"
    },
    {
      "inputs": [
        {
          "internalType": "address",
          "name": "owner",
          "type": "address"
        }
      ],
      "name": "OwnableInvalidOwner",
      "type": "error"
    },
    {
      "inputs": [
        {
          "internalType": "address",
          "name": "account",
          "type": "address"
        }
      ],
      "name": "OwnableUnauthorizedAccount",
      "type": "error"
    },
    {
      "anonymous": false,
      "inputs": [
        {
          "indexed": true,
          "internalType": "address",
          "name": "owner",
          "type": "address"
        },
        {
          "indexed": true,
          "internalType": "address",
          "name": "approved",
          "type": "address"
        },
        {
          "indexed": true,
          "internalType": "uint256",
          "name": "tokenId",
          "type": "uint256"
        }
      ],
      "name": "Approval",
      "type": "event"
    },
    {
      "anonymous": false,
      "inputs": [
        {
          "indexed": true,
          "internalType": "address",
          "name": "owner",
          "type": "address"
        },
        {
          "indexed": true,
          "internalType": "address",
          "name": "operator",
          "type": "address"
        },
        {
          "indexed": false,
          "internalType": "bool",
          "name": "approved",
          "type": "bool"
        }
      ],
      "name": "ApprovalForAll",
      "type": "event"
    },
    {
      "anonymous": false,
      "inputs": [
        {
          "indexed": false,
          "internalType": "uint256",
          "name": "_fromTokenId",
          "type": "uint256"
        },
        {
          "indexed": false,
          "internalType": "uint256",
          "name": "_toTokenId",
          "type": "uint256"
        }
      ],
      "name": "BatchMetadataUpdate",
      "type": "event"
    },
    {
      "anonymous": false,
      "inputs": [
        {
          "indexed": false,
          "internalType": "uint256",
          "name": "_tokenId",
          "type": "uint256"
        }
      ],
      "name": "MetadataUpdate",
      "type": "event"
    },
    {
      "anonymous": false,
      "inputs": [
        {
          "indexed": true,
          "internalType": "address",
          "name": "previousOwner",
          "type": "address"
        },
        {
          "indexed": true,
          "internalType": "address",
          "name": "newOwner",
          "type": "address"
        }
      ],
      "name": "OwnershipTransferred",
      "type": "event"
    },
    {
      "anonymous": false,
      "inputs": [
        {
          "indexed": true,
          "internalType": "address",
          "name": "from",
          "type": "address"
        },
        {
          "indexed": true,
          "internalType": "address",
          "name": "to",
          "type": "address"
        },
        {
          "indexed": true,
          "internalType": "uint256",
          "name": "tokenId",
          "type": "uint256"
        }
      ],
      "name": "Transfer",
      "type": "event"
    },
    {
      "inputs": [
        {
          "internalType": "address",
          "name": "to",
          "type": "address"
        },
        {
          "internalType": "uint256",
          "name": "tokenId",
          "type": "uint256"
        }
      ],
      "name": "approve",
      "outputs": [],
      "stateMutability": "nonpayable",
      "type": "function"
    },
    {
      "inputs": [
        {
          "internalType": "address",
          "name": "owner",
          "type": "address"
        }
      ],
      "name": "balanceOf",
      "outputs": [
        {
          "internalType": "uint256",
          "name": "",
          "type": "uint256"
        }
      ],
      "stateMutability": "view",
      "type": "function"
    },
    {
      "inputs": [
        {
          "internalType": "uint256",
          "name": "tokenId",
          "type": "uint256"
        }
      ],
      "name": "burn",
      "outputs": [],
      "stateMutability": "nonpayable",
      "type": "function"
    },
    {
      "inputs": [
        {
          "internalType": "uint256",
          "name": "tokenId",
          "type": "uint256"
        }
      ],
      "name": "getApproved",
      "outputs": [
        {
          "internalType": "address",
          "name": "",
          "type": "address"
        }
      ],
      "stateMutability": "view",
      "type": "function"
    },
    {
      "inputs": [
        {
          "internalType": "address",
          "name": "owner",
          "type": "address"
        },
        {
          "internalType": "address",
          "name": "operator",
          "type": "address"
        }
      ],
      "name": "isApprovedForAll",
      "outputs": [
        {
          "internalType": "bool",
          "name": "",
          "type": "bool"
        }
      ],
      "stateMutability": "view",
      "type": "function"
    },
    {
      "inputs": [],
      "name": "name",
      "outputs": [
        {
          "internalType": "string",
          "name": "",
          "type": "string"
        }
      ],
      "stateMutability": "view",
      "type": "function"
    },
    {
      "inputs": [],
      "name": "owner",
      "outputs": [
        {
          "internalType": "address",
          "name": "",
          "type": "address"
        }
      ],
      "stateMutability": "view",
      "type": "function"
    },
    {
      "inputs": [
        {
          "internalType": "uint256",
          "name": "tokenId",
          "type": "uint256"
        }
      ],
      "name": "ownerOf",
      "outputs": [
        {
          "internalType": "address",
          "name": "",
          "type": "address"
        }
      ],
      "stateMutability": "view",
      "type": "function"
    },
    {
      "inputs": [],
      "name": "renounceOwnership",
      "outputs": [],
      "stateMutability": "nonpayable",
      "type": "function"
    },
    {
      "inputs": [
        {
          "internalType": "address",
          "name": "to",
          "type": "address"
        },
        {
          "internalType": "string",
          "name": "uri",
          "type": "string"
        }
      ],
      "name": "safeMint",
      "outputs": [],
      "stateMutability": "nonpayable",
      "type": "function"
    },
    {
      "inputs": [
        {
          "internalType": "address",
          "name": "from",
          "type": "address"
        },
        {
          "internalType": "address",
          "name": "to",
          "type": "address"
        },
        {
          "internalType": "uint256",
          "name": "tokenId",
          "type": "uint256"
        }
      ],
      "name": "safeTransferFrom",
      "outputs": [],
      "stateMutability": "nonpayable",
      "type": "function"
    },
    {
      "inputs": [
        {
          "internalType": "address",
          "name": "from",
          "type": "address"
        },
        {
          "internalType": "address",
          "name": "to",
          "type": "address"
        },
        {
          "internalType": "uint256",
          "name": "tokenId",
          "type": "uint256"
        },
        {
          "internalType": "bytes",
          "name": "data",
          "type": "bytes"
        }
      ],
      "name": "safeTransferFrom",
      "outputs": [],
      "stateMutability": "nonpayable",
      "type": "function"
    },
    {
      "inputs": [
        {
          "internalType": "address",
          "name": "operator",
          "type": "address"
        },
        {
          "internalType": "bool",
          "name": "approved",
          "type": "bool"
        }
      ],
      "name": "setApprovalForAll",
      "outputs": [],
      "stateMutability": "nonpayable",
      "type": "function"
    },
    {
      "inputs": [
        {
          "internalType": "bytes4",
          "name": "interfaceId",
          "type": "bytes4"
        }
      ],
      "name": "supportsInterface",
      "outputs": [
        {
          "internalType": "bool",
          "name": "",
          "type": "bool"
        }
      ],
      "stateMutability": "view",
      "type": "function"
    },
    {
      "inputs": [],
      "name": "symbol",
      "outputs": [
        {
          "internalType": "string",
          "name": "",
          "type": "string"
        }
      ],
      "stateMutability": "view",
      "type": "function"
    },
    {
      "inputs": [
        {
          "internalType": "uint256",
          "name": "index",
          "type": "uint256"
        }
      ],
      "name": "tokenByIndex",
      "outputs": [
        {
          "internalType": "uint256",
          "name": "",
          "type": "uint256"
        }
      ],
      "stateMutability": "view",
      "type": "function"
    },
    {
      "inputs": [
        {
          "internalType": "address",
          "name": "owner",
          "type": "address"
        },
        {
          "internalType": "uint256",
          "name": "index",
          "type": "uint256"
        }
      ],
      "name": "tokenOfOwnerByIndex",
      "outputs": [
        {
          "internalType": "uint256",
          "name": "",
          "type": "uint256"
        }
      ],
      "stateMutability": "view",
      "type": "function"
    },
    {
      "inputs": [
        {
          "internalType": "uint256",
          "name": "tokenId",
          "type": "uint256"
        }
      ],
      "name": "tokenURI",
      "outputs": [
        {
          "internalType": "string",
          "name": "",
          "type": "string"
        }
      ],
      "stateMutability": "view",
      "type": "function"
    },
    {
      "inputs": [],
      "name": "totalSupply",
      "outputs": [
        {
          "internalType": "uint256",
          "name": "",
          "type": "uint256"
        }
      ],
      "stateMutability": "view",
      "type": "function"
    },
    {
      "inputs": [
        {
          "internalType": "address",
          "name": "from",
          "type": "address"
        },
        {
          "internalType": "address",
          "name": "to",
          "type": "address"
        },
        {
          "internalType": "uint256",
          "name": "tokenId",
          "type": "uint256"
        }
      ],
      "name": "transferFrom",
      "outputs": [],
      "stateMutability": "nonpayable",
      "type": "function"
    },
    {
      "inputs": [
        {
          "internalType": "address",
          "name": "newOwner",
          "type": "address"
        }
      ],
      "name": "transferOwnership",
      "outputs": [],
      "stateMutability": "nonpayable",
      "type": "function"
    }
  ],
  "bytecode": "0x60806040523480156200001157600080fd5b50336040518060400160405280601181526020017f506561716f6e61757473205472616974730000000000000000000000000000008152506040518060400160405280600681526020017f5452414954530000000000000000000000000000000000000000000000000000815250816000908162000090919062000472565b508060019081620000a2919062000472565b505050600073ffffffffffffffffffffffffffffffffffffffff168173ffffffffffffffffffffffffffffffffffffffff16036200011a5760006040517f1e4fbdf70000000000000000000000000000000000000000000000000000000081526004016200011191906200059e565b60405180910390fd5b6200012b816200013260201b60201c565b50620005bb565b6000600b60009054906101000a900473ffffffffffffffffffffffffffffffffffffffff16905081600b60006101000a81548173ffffffffffffffffffffffffffffffffffffffff021916908373ffffffffffffffffffffffffffffffffffffffff1602179055508173ffffffffffffffffffffffffffffffffffffffff168173ffffffffffffffffffffffffffffffffffffffff167f8be0079c531659141344cd1fd0a4f28419497f9722a3daafe3b4186f6b6457e060405160405180910390a35050565b600081519050919050565b7f4e487b7100000000000000000000000000000000000000000000000000000000600052604160045260246000fd5b7f4e487b7100000000000000000000000000000000000000000000000000000000600052602260045260246000fd5b600060028204905060018216806200027a57607f821691505b60208210810362000290576200028f62000232565b5b50919050565b60008190508160005260206000209050919050565b60006020601f8301049050919050565b600082821b905092915050565b600060088302620002fa7fffffffffffffffffffffffffffffffffffffffffffffffffffffffffffffffff82620002bb565b620003068683620002bb565b95508019841693508086168417925050509392505050565b6000819050919050565b6000819050919050565b6000620003536200034d62000347846200031e565b62000328565b6200031e565b9050919050565b6000819050919050565b6200036f8362000332565b620003876200037e826200035a565b848454620002c8565b825550505050565b600090565b6200039e6200038f565b620003ab81848462000364565b505050565b5b81811015620003d357620003c760008262000394565b600181019050620003b1565b5050565b601f8211156200042257620003ec8162000296565b620003f784620002ab565b8101602085101562000407578190505b6200041f6200041685620002ab565b830182620003b0565b50505b505050565b600082821c905092915050565b6000620004476000198460080262000427565b1980831691505092915050565b600062000462838362000434565b9150826002028217905092915050565b6200047d82620001f8565b67ffffffffffffffff81111562000499576200049862000203565b5b620004a5825462000261565b620004b2828285620003d7565b600060209050601f831160018114620004ea5760008415620004d5578287015190505b620004e1858262000454565b86555062000551565b601f198416620004fa8662000296565b60005b828110156200052457848901518255600182019150602085019450602081019050620004fd565b8683101562000544578489015162000540601f89168262000434565b8355505b6001600288020188555050505b505050505050565b600073ffffffffffffffffffffffffffffffffffffffff82169050919050565b6000620005868262000559565b9050919050565b620005988162000579565b82525050565b6000602082019050620005b560008301846200058d565b92915050565b612dcc80620005cb6000396000f3fe608060405234801561001057600080fd5b50600436106101375760003560e01c80636352211e116100b8578063a22cb4651161007c578063a22cb4651461034e578063b88d4fde1461036a578063c87b56dd14610386578063d204c45e146103b6578063e985e9c5146103d2578063f2fde38b1461040257610137565b80636352211e146102a857806370a08231146102d8578063715018a6146103085780638da5cb5b1461031257806395d89b411461033057610137565b806323b872dd116100ff57806323b872dd146101f45780632f745c591461021057806342842e0e1461024057806342966c681461025c5780634f6ccce71461027857610137565b806301ffc9a71461013c57806306fdde031461016c578063081812fc1461018a578063095ea7b3146101ba57806318160ddd146101d6575b600080fd5b61015660048036038101906101519190612192565b61041e565b60405161016391906121da565b60405180910390f35b610174610430565b6040516101819190612285565b60405180910390f35b6101a4600480360381019061019f91906122dd565b6104c2565b6040516101b1919061234b565b60405180910390f35b6101d460048036038101906101cf9190612392565b6104de565b005b6101de6104f4565b6040516101eb91906123e1565b60405180910390f35b61020e600480360381019061020991906123fc565b610501565b005b61022a60048036038101906102259190612392565b610603565b60405161023791906123e1565b60405180910390f35b61025a600480360381019061025591906123fc565b6106ac565b005b610276600480360381019061027191906122dd565b6106cc565b005b610292600480360381019061028d91906122dd565b6106e3565b60405161029f91906123e1565b60405180910390f35b6102c260048036038101906102bd91906122dd565b610759565b6040516102cf919061234b565b60405180910390f35b6102f260048036038101906102ed919061244f565b61076b565b6040516102ff91906123e1565b60405180910390f35b610310610825565b005b61031a610839565b604051610327919061234b565b60405180910390f35b610338610863565b6040516103459190612285565b60405180910390f35b610368600480360381019061036391906124a8565b6108f5565b005b610384600480360381019061037f919061261d565b61090b565b005b6103a0600480360381019061039b91906122dd565b610928565b6040516103ad9190612285565b60405180910390f35b6103d060048036038101906103cb9190612741565b61093a565b005b6103ec60048036038101906103e7919061279d565b610976565b6040516103f991906121da565b60405180910390f35b61041c6004803603810190610417919061244f565b610a0a565b005b600061042982610a90565b9050919050565b60606000805461043f9061280c565b80601f016020809104026020016040519081016040528092919081815260200182805461046b9061280c565b80156104b85780601f1061048d576101008083540402835291602001916104b8565b820191906000526020600020905b81548152906001019060200180831161049b57829003601f168201915b5050505050905090565b60006104cd82610af1565b506104d782610b79565b9050919050565b6104f082826104eb610bb6565b610bbe565b5050565b6000600880549050905090565b600073ffffffffffffffffffffffffffffffffffffffff168273ffffffffffffffffffffffffffffffffffffffff16036105735760006040517f64a0ae9200000000000000000000000000000000000000000000000000000000815260040161056a919061234b565b60405180910390fd5b60006105878383610582610bb6565b610bd0565b90508373ffffffffffffffffffffffffffffffffffffffff168173ffffffffffffffffffffffffffffffffffffffff16146105fd578382826040517f64283d7b0000000000000000000000000000000000000000000000000000000081526004016105f49392919061283d565b60405180910390fd5b50505050565b600061060e8361076b565b82106106535782826040517fa57d13dc00000000000000000000000000000000000000000000000000000000815260040161064a929190612874565b60405180910390fd5b600660008473ffffffffffffffffffffffffffffffffffffffff1673ffffffffffffffffffffffffffffffffffffffff168152602001908152602001600020600083815260200190815260200160002054905092915050565b6106c78383836040518060200160405280600081525061090b565b505050565b6106df6000826106da610bb6565b610bd0565b5050565b60006106ed6104f4565b8210610733576000826040517fa57d13dc00000000000000000000000000000000000000000000000000000000815260040161072a929190612874565b60405180910390fd5b600882815481106107475761074661289d565b5b90600052602060002001549050919050565b600061076482610af1565b9050919050565b60008073ffffffffffffffffffffffffffffffffffffffff168273ffffffffffffffffffffffffffffffffffffffff16036107de5760006040517f89c62b640000000000000000000000000000000000000000000000000000000081526004016107d5919061234b565b60405180910390fd5b600360008373ffffffffffffffffffffffffffffffffffffffff1673ffffffffffffffffffffffffffffffffffffffff168152602001908152602001600020549050919050565b61082d610be6565b6108376000610c6d565b565b6000600b60009054906101000a900473ffffffffffffffffffffffffffffffffffffffff16905090565b6060600180546108729061280c565b80601f016020809104026020016040519081016040528092919081815260200182805461089e9061280c565b80156108eb5780601f106108c0576101008083540402835291602001916108eb565b820191906000526020600020905b8154815290600101906020018083116108ce57829003601f168201915b5050505050905090565b610907610900610bb6565b8383610d33565b5050565b610916848484610501565b61092284848484610ea2565b50505050565b606061093382611059565b9050919050565b610942610be6565b6000600c6000815480929190610957906128fb565b919050559050610967838261116c565b610971818361118a565b505050565b6000600560008473ffffffffffffffffffffffffffffffffffffffff1673ffffffffffffffffffffffffffffffffffffffff16815260200190815260200160002060008373ffffffffffffffffffffffffffffffffffffffff1673ffffffffffffffffffffffffffffffffffffffff16815260200190815260200160002060009054906101000a900460ff16905092915050565b610a12610be6565b600073ffffffffffffffffffffffffffffffffffffffff168173ffffffffffffffffffffffffffffffffffffffff1603610a845760006040517f1e4fbdf7000000000000000000000000000000000000000000000000000000008152600401610a7b919061234b565b60405180910390fd5b610a8d81610c6d565b50565b6000634906490660e01b7bffffffffffffffffffffffffffffffffffffffffffffffffffffffff1916827bffffffffffffffffffffffffffffffffffffffffffffffffffffffff19161480610aea5750610ae9826111e6565b5b9050919050565b600080610afd83611260565b9050600073ffffffffffffffffffffffffffffffffffffffff168173ffffffffffffffffffffffffffffffffffffffff1603610b7057826040517f7e273289000000000000000000000000000000000000000000000000000000008152600401610b6791906123e1565b60405180910390fd5b80915050919050565b60006004600083815260200190815260200160002060009054906101000a900473ffffffffffffffffffffffffffffffffffffffff169050919050565b600033905090565b610bcb838383600161129d565b505050565b6000610bdd848484611462565b90509392505050565b610bee610bb6565b73ffffffffffffffffffffffffffffffffffffffff16610c0c610839565b73ffffffffffffffffffffffffffffffffffffffff1614610c6b57610c2f610bb6565b6040517f118cdaa7000000000000000000000000000000000000000000000000000000008152600401610c62919061234b565b60405180910390fd5b565b6000600b60009054906101000a900473ffffffffffffffffffffffffffffffffffffffff16905081600b60006101000a81548173ffffffffffffffffffffffffffffffffffffffff021916908373ffffffffffffffffffffffffffffffffffffffff1602179055508173ffffffffffffffffffffffffffffffffffffffff168173ffffffffffffffffffffffffffffffffffffffff167f8be0079c531659141344cd1fd0a4f28419497f9722a3daafe3b4186f6b6457e060405160405180910390a35050565b600073ffffffffffffffffffffffffffffffffffffffff168273ffffffffffffffffffffffffffffffffffffffff1603610da457816040517f5b08ba18000000000000000000000000000000000000000000000000000000008152600401610d9b919061234b565b60405180910390fd5b80600560008573ffffffffffffffffffffffffffffffffffffffff1673ffffffffffffffffffffffffffffffffffffffff16815260200190815260200160002060008473ffffffffffffffffffffffffffffffffffffffff1673ffffffffffffffffffffffffffffffffffffffff16815260200190815260200160002060006101000a81548160ff0219169083151502179055508173ffffffffffffffffffffffffffffffffffffffff168373ffffffffffffffffffffffffffffffffffffffff167f17307eab39ab6107e8899845ad3d59bd9653f200f220920489ca2b5937696c3183604051610e9591906121da565b60405180910390a3505050565b60008373ffffffffffffffffffffffffffffffffffffffff163b1115611053578273ffffffffffffffffffffffffffffffffffffffff1663150b7a02610ee6610bb6565b8685856040518563ffffffff1660e01b8152600401610f089493929190612998565b6020604051808303816000875af1925050508015610f4457506040513d601f19601f82011682018060405250810190610f4191906129f9565b60015b610fc8573d8060008114610f74576040519150601f19603f3d011682016040523d82523d6000602084013e610f79565b606091505b506000815103610fc057836040517f64a0ae92000000000000000000000000000000000000000000000000000000008152600401610fb7919061234b565b60405180910390fd5b805181602001fd5b63150b7a0260e01b7bffffffffffffffffffffffffffffffffffffffffffffffffffffffff1916817bffffffffffffffffffffffffffffffffffffffffffffffffffffffff19161461105157836040517f64a0ae92000000000000000000000000000000000000000000000000000000008152600401611048919061234b565b60405180910390fd5b505b50505050565b606061106482610af1565b506000600a600084815260200190815260200160002080546110859061280c565b80601f01602080910402602001604051908101604052809291908181526020018280546110b19061280c565b80156110fe5780601f106110d3576101008083540402835291602001916110fe565b820191906000526020600020905b8154815290600101906020018083116110e157829003601f168201915b50505050509050600061110f61157f565b90506000815103611124578192505050611167565b600082511115611159578082604051602001611141929190612a62565b60405160208183030381529060405292505050611167565b61116284611596565b925050505b919050565b6111868282604051806020016040528060008152506115ff565b5050565b80600a600084815260200190815260200160002090816111aa9190612c32565b507ff8e1a15aba9398e019f0b49df1a4fde98ee17ae345cb5f6b5e2c27f5033e8ce7826040516111da91906123e1565b60405180910390a15050565b60007f780e9d63000000000000000000000000000000000000000000000000000000007bffffffffffffffffffffffffffffffffffffffffffffffffffffffff1916827bffffffffffffffffffffffffffffffffffffffffffffffffffffffff1916148061125957506112588261161b565b5b9050919050565b60006002600083815260200190815260200160002060009054906101000a900473ffffffffffffffffffffffffffffffffffffffff169050919050565b80806112d65750600073ffffffffffffffffffffffffffffffffffffffff168273ffffffffffffffffffffffffffffffffffffffff1614155b1561140a5760006112e684610af1565b9050600073ffffffffffffffffffffffffffffffffffffffff168373ffffffffffffffffffffffffffffffffffffffff161415801561135157508273ffffffffffffffffffffffffffffffffffffffff168173ffffffffffffffffffffffffffffffffffffffff1614155b801561136457506113628184610976565b155b156113a657826040517fa9fbf51f00000000000000000000000000000000000000000000000000000000815260040161139d919061234b565b60405180910390fd5b811561140857838573ffffffffffffffffffffffffffffffffffffffff168273ffffffffffffffffffffffffffffffffffffffff167f8c5be1e5ebec7d5bd14f71427d1e84f3dd0314c0f7b2291e5b200ac8c7c3b92560405160405180910390a45b505b836004600085815260200190815260200160002060006101000a81548173ffffffffffffffffffffffffffffffffffffffff021916908373ffffffffffffffffffffffffffffffffffffffff16021790555050505050565b6000806114708585856116fd565b9050600073ffffffffffffffffffffffffffffffffffffffff168173ffffffffffffffffffffffffffffffffffffffff16036114b4576114af84611917565b6114f3565b8473ffffffffffffffffffffffffffffffffffffffff168173ffffffffffffffffffffffffffffffffffffffff16146114f2576114f18185611960565b5b5b600073ffffffffffffffffffffffffffffffffffffffff168573ffffffffffffffffffffffffffffffffffffffff16036115355761153084611ac1565b611574565b8473ffffffffffffffffffffffffffffffffffffffff168173ffffffffffffffffffffffffffffffffffffffff1614611573576115728585611b92565b5b5b809150509392505050565b606060405180602001604052806000815250905090565b60606115a182610af1565b5060006115ac61157f565b905060008151116115cc57604051806020016040528060008152506115f7565b806115d684611c1d565b6040516020016115e7929190612a62565b6040516020818303038152906040525b915050919050565b6116098383611ceb565b6116166000848484610ea2565b505050565b60007f80ac58cd000000000000000000000000000000000000000000000000000000007bffffffffffffffffffffffffffffffffffffffffffffffffffffffff1916827bffffffffffffffffffffffffffffffffffffffffffffffffffffffff191614806116e657507f5b5e139f000000000000000000000000000000000000000000000000000000007bffffffffffffffffffffffffffffffffffffffffffffffffffffffff1916827bffffffffffffffffffffffffffffffffffffffffffffffffffffffff1916145b806116f657506116f582611de4565b5b9050919050565b60008061170984611260565b9050600073ffffffffffffffffffffffffffffffffffffffff168373ffffffffffffffffffffffffffffffffffffffff161461174b5761174a818486611e4e565b5b600073ffffffffffffffffffffffffffffffffffffffff168173ffffffffffffffffffffffffffffffffffffffff16146117dc5761178d60008560008061129d565b6001600360008373ffffffffffffffffffffffffffffffffffffffff1673ffffffffffffffffffffffffffffffffffffffff168152602001908152602001600020600082825403925050819055505b600073ffffffffffffffffffffffffffffffffffffffff168573ffffffffffffffffffffffffffffffffffffffff161461185f576001600360008773ffffffffffffffffffffffffffffffffffffffff1673ffffffffffffffffffffffffffffffffffffffff168152602001908152602001600020600082825401925050819055505b846002600086815260200190815260200160002060006101000a81548173ffffffffffffffffffffffffffffffffffffffff021916908373ffffffffffffffffffffffffffffffffffffffff160217905550838573ffffffffffffffffffffffffffffffffffffffff168273ffffffffffffffffffffffffffffffffffffffff167fddf252ad1be2c89b69c2b068fc378daa952ba7f163c4a11628f55a4df523b3ef60405160405180910390a4809150509392505050565b6008805490506009600083815260200190815260200160002081905550600881908060018154018082558091505060019003906000526020600020016000909190919091505550565b600061196b8361076b565b9050600060076000848152602001908152602001600020549050818114611a50576000600660008673ffffffffffffffffffffffffffffffffffffffff1673ffffffffffffffffffffffffffffffffffffffff168152602001908152602001600020600084815260200190815260200160002054905080600660008773ffffffffffffffffffffffffffffffffffffffff1673ffffffffffffffffffffffffffffffffffffffff168152602001908152602001600020600084815260200190815260200160002081905550816007600083815260200190815260200160002081905550505b6007600084815260200190815260200160002060009055600660008573ffffffffffffffffffffffffffffffffffffffff1673ffffffffffffffffffffffffffffffffffffffff16815260200190815260200160002060008381526020019081526020016000206000905550505050565b60006001600880549050611ad59190612d04565b9050600060096000848152602001908152602001600020549050600060088381548110611b0557611b0461289d565b5b906000526020600020015490508060088381548110611b2757611b2661289d565b5b906000526020600020018190555081600960008381526020019081526020016000208190555060096000858152602001908152602001600020600090556008805480611b7657611b75612d38565b5b6001900381819060005260206000200160009055905550505050565b60006001611b9f8461076b565b611ba99190612d04565b905081600660008573ffffffffffffffffffffffffffffffffffffffff1673ffffffffffffffffffffffffffffffffffffffff168152602001908152602001600020600083815260200190815260200160002081905550806007600084815260200190815260200160002081905550505050565b606060006001611c2c84611f12565b01905060008167ffffffffffffffff811115611c4b57611c4a6124f2565b5b6040519080825280601f01601f191660200182016040528015611c7d5781602001600182028036833780820191505090505b509050600082602001820190505b600115611ce0578080600190039150507f3031323334353637383961626364656600000000000000000000000000000000600a86061a8153600a8581611cd457611cd3612d67565b5b04945060008503611c8b575b819350505050919050565b600073ffffffffffffffffffffffffffffffffffffffff168273ffffffffffffffffffffffffffffffffffffffff1603611d5d5760006040517f64a0ae92000000000000000000000000000000000000000000000000000000008152600401611d54919061234b565b60405180910390fd5b6000611d6b83836000610bd0565b9050600073ffffffffffffffffffffffffffffffffffffffff168173ffffffffffffffffffffffffffffffffffffffff1614611ddf5760006040517f73c6ac6e000000000000000000000000000000000000000000000000000000008152600401611dd6919061234b565b60405180910390fd5b505050565b60007f01ffc9a7000000000000000000000000000000000000000000000000000000007bffffffffffffffffffffffffffffffffffffffffffffffffffffffff1916827bffffffffffffffffffffffffffffffffffffffffffffffffffffffff1916149050919050565b611e59838383612065565b611f0d57600073ffffffffffffffffffffffffffffffffffffffff168373ffffffffffffffffffffffffffffffffffffffff1603611ece57806040517f7e273289000000000000000000000000000000000000000000000000000000008152600401611ec591906123e1565b60405180910390fd5b81816040517f177e802f000000000000000000000000000000000000000000000000000000008152600401611f04929190612874565b60405180910390fd5b505050565b600080600090507a184f03e93ff9f4daa797ed6e38ed64bf6a1f0100000000000000008310611f70577a184f03e93ff9f4daa797ed6e38ed64bf6a1f0100000000000000008381611f6657611f65612d67565b5b0492506040810190505b6d04ee2d6d415b85acef81000000008310611fad576d04ee2d6d415b85acef81000000008381611fa357611fa2612d67565b5b0492506020810190505b662386f26fc100008310611fdc57662386f26fc100008381611fd257611fd1612d67565b5b0492506010810190505b6305f5e1008310612005576305f5e1008381611ffb57611ffa612d67565b5b0492506008810190505b612710831061202a5761271083816120205761201f612d67565b5b0492506004810190505b6064831061204d576064838161204357612042612d67565b5b0492506002810190505b600a831061205c576001810190505b80915050919050565b60008073ffffffffffffffffffffffffffffffffffffffff168373ffffffffffffffffffffffffffffffffffffffff161415801561211d57508273ffffffffffffffffffffffffffffffffffffffff168473ffffffffffffffffffffffffffffffffffffffff1614806120de57506120dd8484610976565b5b8061211c57508273ffffffffffffffffffffffffffffffffffffffff1661210483610b79565b73ffffffffffffffffffffffffffffffffffffffff16145b5b90509392505050565b6000604051905090565b600080fd5b600080fd5b60007fffffffff0000000000000000000000000000000000000000000000000000000082169050919050565b61216f8161213a565b811461217a57600080fd5b50565b60008135905061218c81612166565b92915050565b6000602082840312156121a8576121a7612130565b5b60006121b68482850161217d565b91505092915050565b60008115159050919050565b6121d4816121bf565b82525050565b60006020820190506121ef60008301846121cb565b92915050565b600081519050919050565b600082825260208201905092915050565b60005b8381101561222f578082015181840152602081019050612214565b60008484015250505050565b6000601f19601f8301169050919050565b6000612257826121f5565b6122618185612200565b9350612271818560208601612211565b61227a8161223b565b840191505092915050565b6000602082019050818103600083015261229f818461224c565b905092915050565b6000819050919050565b6122ba816122a7565b81146122c557600080fd5b50565b6000813590506122d7816122b1565b92915050565b6000602082840312156122f3576122f2612130565b5b6000612301848285016122c8565b91505092915050565b600073ffffffffffffffffffffffffffffffffffffffff82169050919050565b60006123358261230a565b9050919050565b6123458161232a565b82525050565b6000602082019050612360600083018461233c565b92915050565b61236f8161232a565b811461237a57600080fd5b50565b60008135905061238c81612366565b92915050565b600080604083850312156123a9576123a8612130565b5b60006123b78582860161237d565b92505060206123c8858286016122c8565b9150509250929050565b6123db816122a7565b82525050565b60006020820190506123f660008301846123d2565b92915050565b60008060006060848603121561241557612414612130565b5b60006124238682870161237d565b93505060206124348682870161237d565b9250506040612445868287016122c8565b9150509250925092565b60006020828403121561246557612464612130565b5b60006124738482850161237d565b91505092915050565b612485816121bf565b811461249057600080fd5b50565b6000813590506124a28161247c565b92915050565b600080604083850312156124bf576124be612130565b5b60006124cd8582860161237d565b92505060206124de85828601612493565b9150509250929050565b600080fd5b600080fd5b7f4e487b7100000000000000000000000000000000000000000000000000000000600052604160045260246000fd5b61252a8261223b565b810181811067ffffffffffffffff82111715612549576125486124f2565b5b80604052505050565b600061255c612126565b90506125688282612521565b919050565b600067ffffffffffffffff821115612588576125876124f2565b5b6125918261223b565b9050602081019050919050565b82818337600083830152505050565b60006125c06125bb8461256d565b612552565b9050828152602081018484840111156125dc576125db6124ed565b5b6125e784828561259e565b509392505050565b600082601f830112612604576126036124e8565b5b81356126148482602086016125ad565b91505092915050565b6000806000806080858703121561263757612636612130565b5b60006126458782880161237d565b94505060206126568782880161237d565b9350506040612667878288016122c8565b925050606085013567ffffffffffffffff81111561268857612687612135565b5b612694878288016125ef565b91505092959194509250565b600067ffffffffffffffff8211156126bb576126ba6124f2565b5b6126c48261223b565b9050602081019050919050565b60006126e46126df846126a0565b612552565b905082815260208101848484011115612700576126ff6124ed565b5b61270b84828561259e565b509392505050565b600082601f830112612728576127276124e8565b5b81356127388482602086016126d1565b91505092915050565b6000806040838503121561275857612757612130565b5b60006127668582860161237d565b925050602083013567ffffffffffffffff81111561278757612786612135565b5b61279385828601612713565b9150509250929050565b600080604083850312156127b4576127b3612130565b5b60006127c28582860161237d565b92505060206127d38582860161237d565b9150509250929050565b7f4e487b7100000000000000000000000000000000000000000000000000000000600052602260045260246000fd5b6000600282049050600182168061282457607f821691505b602082108103612837576128366127dd565b5b50919050565b6000606082019050612852600083018661233c565b61285f60208301856123d2565b61286c604083018461233c565b949350505050565b6000604082019050612889600083018561233c565b61289660208301846123d2565b9392505050565b7f4e487b7100000000000000000000000000000000000000000000000000000000600052603260045260246000fd5b7f4e487b7100000000000000000000000000000000000000000000000000000000600052601160045260246000fd5b6000612906826122a7565b91507fffffffffffffffffffffffffffffffffffffffffffffffffffffffffffffffff8203612938576129376128cc565b5b600182019050919050565b600081519050919050565b600082825260208201905092915050565b600061296a82612943565b612974818561294e565b9350612984818560208601612211565b61298d8161223b565b840191505092915050565b60006080820190506129ad600083018761233c565b6129ba602083018661233c565b6129c760408301856123d2565b81810360608301526129d9818461295f565b905095945050505050565b6000815190506129f381612166565b92915050565b600060208284031215612a0f57612a0e612130565b5b6000612a1d848285016129e4565b91505092915050565b600081905092915050565b6000612a3c826121f5565b612a468185612a26565b9350612a56818560208601612211565b80840191505092915050565b6000612a6e8285612a31565b9150612a7a8284612a31565b91508190509392505050565b60008190508160005260206000209050919050565b60006020601f8301049050919050565b600082821b905092915050565b600060088302612ae87fffffffffffffffffffffffffffffffffffffffffffffffffffffffffffffffff82612aab565b612af28683612aab565b95508019841693508086168417925050509392505050565b6000819050919050565b6000612b2f612b2a612b25846122a7565b612b0a565b6122a7565b9050919050565b6000819050919050565b612b4983612b14565b612b5d612b5582612b36565b848454612ab8565b825550505050565b600090565b612b72612b65565b612b7d818484612b40565b505050565b5b81811015612ba157612b96600082612b6a565b600181019050612b83565b5050565b601f821115612be657612bb781612a86565b612bc084612a9b565b81016020851015612bcf578190505b612be3612bdb85612a9b565b830182612b82565b50505b505050565b600082821c905092915050565b6000612c0960001984600802612beb565b1980831691505092915050565b6000612c228383612bf8565b9150826002028217905092915050565b612c3b826121f5565b67ffffffffffffffff811115612c5457612c536124f2565b5b612c5e825461280c565b612c69828285612ba5565b600060209050601f831160018114612c9c5760008415612c8a578287015190505b612c948582612c16565b865550612cfc565b601f198416612caa86612a86565b60005b82811015612cd257848901518255600182019150602085019450602081019050612cad565b86831015612cef5784890151612ceb601f891682612bf8565b8355505b6001600288020188555050505b505050505050565b6000612d0f826122a7565b9150612d1a836122a7565b9250828203905081811115612d3257612d316128cc565b5b92915050565b7f4e487b7100000000000000000000000000000000000000000000000000000000600052603160045260246000fd5b7f4e487b7100000000000000000000000000000000000000000000000000000000600052601260045260246000fdfea26469706673582212205cea8b18bec6f90aa9669868b86c7a1b1ef73566cd2a1faeb0e82517f5ab762164736f6c63430008180033",
  "linkReferences": {},
  "deployedLinkReferences": {}
}